{
	"AddressBook.sol": {
		"AddressBook": {
			"abi": [
				{
					"inputs": [
						{
							"internalType": "uint256",
							"name": "id",
							"type": "uint256"
						}
					],
					"name": "ContactNotFound",
					"type": "error"
				},
				{
					"inputs": [
						{
							"internalType": "address",
							"name": "owner",
							"type": "address"
						}
					],
					"name": "OwnableInvalidOwner",
					"type": "error"
				},
				{
					"inputs": [
						{
							"internalType": "address",
							"name": "account",
							"type": "address"
						}
					],
					"name": "OwnableUnauthorizedAccount",
					"type": "error"
				},
				{
					"anonymous": false,
					"inputs": [
						{
							"indexed": true,
							"internalType": "address",
							"name": "previousOwner",
							"type": "address"
						},
						{
							"indexed": true,
							"internalType": "address",
							"name": "newOwner",
							"type": "address"
						}
					],
					"name": "OwnershipTransferred",
					"type": "event"
				},
				{
					"inputs": [
						{
							"internalType": "string",
							"name": "firstName",
							"type": "string"
						},
						{
							"internalType": "string",
							"name": "lastName",
							"type": "string"
						},
						{
							"internalType": "uint256[]",
							"name": "phoneNumbers",
							"type": "uint256[]"
						}
					],
					"name": "addContact",
					"outputs": [],
					"stateMutability": "nonpayable",
					"type": "function"
				},
				{
					"inputs": [
						{
							"internalType": "uint256",
							"name": "id",
							"type": "uint256"
						}
					],
					"name": "deleteContact",
					"outputs": [],
					"stateMutability": "nonpayable",
					"type": "function"
				},
				{
					"inputs": [],
					"name": "getAllContacts",
					"outputs": [
						{
							"components": [
								{
									"internalType": "uint256",
									"name": "id",
									"type": "uint256"
								},
								{
									"internalType": "string",
									"name": "firstName",
									"type": "string"
								},
								{
									"internalType": "string",
									"name": "lastName",
									"type": "string"
								},
								{
									"internalType": "uint256[]",
									"name": "phoneNumbers",
									"type": "uint256[]"
								}
							],
							"internalType": "struct AddressBook.Contact[]",
							"name": "",
							"type": "tuple[]"
						}
					],
					"stateMutability": "view",
					"type": "function"
				},
				{
					"inputs": [
						{
							"internalType": "uint256",
							"name": "id",
							"type": "uint256"
						}
					],
					"name": "getContact",
					"outputs": [
						{
							"components": [
								{
									"internalType": "uint256",
									"name": "id",
									"type": "uint256"
								},
								{
									"internalType": "string",
									"name": "firstName",
									"type": "string"
								},
								{
									"internalType": "string",
									"name": "lastName",
									"type": "string"
								},
								{
									"internalType": "uint256[]",
									"name": "phoneNumbers",
									"type": "uint256[]"
								}
							],
							"internalType": "struct AddressBook.Contact",
							"name": "",
							"type": "tuple"
						}
					],
					"stateMutability": "view",
					"type": "function"
				},
				{
					"inputs": [],
					"name": "owner",
					"outputs": [
						{
							"internalType": "address",
							"name": "",
							"type": "address"
						}
					],
					"stateMutability": "view",
					"type": "function"
				},
				{
					"inputs": [],
					"name": "renounceOwnership",
					"outputs": [],
					"stateMutability": "nonpayable",
					"type": "function"
				},
				{
					"inputs": [
						{
							"internalType": "address",
							"name": "newOwner",
							"type": "address"
						}
					],
					"name": "transferOwnership",
					"outputs": [],
					"stateMutability": "nonpayable",
					"type": "function"
				}
			],
			"devdoc": {
				"errors": {
					"OwnableInvalidOwner(address)": [
						{
							"details": "The owner is not a valid owner account. (eg. `address(0)`)"
						}
					],
					"OwnableUnauthorizedAccount(address)": [
						{
							"details": "The caller account is not authorized to perform an operation."
						}
					]
				},
				"kind": "dev",
				"methods": {
					"owner()": {
						"details": "Returns the address of the current owner."
					},
					"renounceOwnership()": {
						"details": "Leaves the contract without owner. It will not be possible to call `onlyOwner` functions. Can only be called by the current owner. NOTE: Renouncing ownership will leave the contract without an owner, thereby disabling any functionality that is only available to the owner."
					},
					"transferOwnership(address)": {
						"details": "Transfers ownership of the contract to a new account (`newOwner`). Can only be called by the current owner."
					}
				},
				"version": 1
			},
			"evm": {
				"assembly": "    /* \"AddressBook.sol\":116:2978  contract AddressBook is Ownable(msg.sender) {... */\n  mstore(0x40, 0x80)\n    /* \"AddressBook.sol\":220:249  string private salt = \"value\" */\n  mload(0x40)\n  dup1\n  0x40\n  add\n  0x40\n  mstore\n  dup1\n  0x05\n  dup2\n  mstore\n  0x20\n  add\n  0x76616c7565000000000000000000000000000000000000000000000000000000\n  dup2\n  mstore\n  pop\n  0x01\n  swap1\n  dup2\n  tag_1\n  swap2\n  swap1\n  tag_2\n  jump\t// in\ntag_1:\n  pop\n    /* \"AddressBook.sol\":878:879  1 */\n  0x01\n    /* \"AddressBook.sol\":856:879  uint private nextId = 1 */\n  0x04\n  sstore\n    /* \"AddressBook.sol\":116:2978  contract AddressBook is Ownable(msg.sender) {... */\n  callvalue\n  dup1\n  iszero\n  tag_3\n  jumpi\n  0x00\n  dup1\n  revert\ntag_3:\n  pop\n    /* \"AddressBook.sol\":148:158  msg.sender */\n  caller\n    /* \"@openzeppelin/contracts/access/Ownable.sol\":1297:1298  0 */\n  0x00\n    /* \"@openzeppelin/contracts/access/Ownable.sol\":1273:1299  initialOwner == address(0) */\n  0xffffffffffffffffffffffffffffffffffffffff\n  and\n    /* \"@openzeppelin/contracts/access/Ownable.sol\":1273:1285  initialOwner */\n  dup2\n    /* \"@openzeppelin/contracts/access/Ownable.sol\":1273:1299  initialOwner == address(0) */\n  0xffffffffffffffffffffffffffffffffffffffff\n  and\n  sub\n    /* \"@openzeppelin/contracts/access/Ownable.sol\":1269:1364  if (initialOwner == address(0)) {... */\n  tag_6\n  jumpi\n    /* \"@openzeppelin/contracts/access/Ownable.sol\":1350:1351  0 */\n  0x00\n    /* \"@openzeppelin/contracts/access/Ownable.sol\":1322:1353  OwnableInvalidOwner(address(0)) */\n  mload(0x40)\n  0x1e4fbdf700000000000000000000000000000000000000000000000000000000\n  dup2\n  mstore\n  0x04\n  add\n  tag_7\n  swap2\n  swap1\n  tag_8\n  jump\t// in\ntag_7:\n  mload(0x40)\n  dup1\n  swap2\n  sub\n  swap1\n  revert\n    /* \"@openzeppelin/contracts/access/Ownable.sol\":1269:1364  if (initialOwner == address(0)) {... */\ntag_6:\n    /* \"@openzeppelin/contracts/access/Ownable.sol\":1373:1405  _transferOwnership(initialOwner) */\n  tag_9\n    /* \"@openzeppelin/contracts/access/Ownable.sol\":1392:1404  initialOwner */\n  dup2\n    /* \"@openzeppelin/contracts/access/Ownable.sol\":1373:1391  _transferOwnership */\n  shl(0x20, tag_10)\n    /* \"@openzeppelin/contracts/access/Ownable.sol\":1373:1405  _transferOwnership(initialOwner) */\n  0x20\n  shr\n  jump\t// in\ntag_9:\n    /* \"@openzeppelin/contracts/access/Ownable.sol\":1225:1412  constructor(address initialOwner) {... */\n  pop\n    /* \"AddressBook.sol\":116:2978  contract AddressBook is Ownable(msg.sender) {... */\n  jump(tag_11)\n    /* \"@openzeppelin/contracts/access/Ownable.sol\":2912:3099  function _transferOwnership(address newOwner) internal virtual {... */\ntag_10:\n    /* \"@openzeppelin/contracts/access/Ownable.sol\":2985:3001  address oldOwner */\n  0x00\n    /* \"@openzeppelin/contracts/access/Ownable.sol\":3004:3010  _owner */\n  dup1\n  0x00\n  swap1\n  sload\n  swap1\n  0x0100\n  exp\n  swap1\n  div\n  0xffffffffffffffffffffffffffffffffffffffff\n  and\n    /* \"@openzeppelin/contracts/access/Ownable.sol\":2985:3010  address oldOwner = _owner */\n  swap1\n  pop\n    /* \"@openzeppelin/contracts/access/Ownable.sol\":3029:3037  newOwner */\n  dup2\n    /* \"@openzeppelin/contracts/access/Ownable.sol\":3020:3026  _owner */\n  0x00\n  dup1\n    /* \"@openzeppelin/contracts/access/Ownable.sol\":3020:3037  _owner = newOwner */\n  0x0100\n  exp\n  dup2\n  sload\n  dup2\n  0xffffffffffffffffffffffffffffffffffffffff\n  mul\n  not\n  and\n  swap1\n  dup4\n  0xffffffffffffffffffffffffffffffffffffffff\n  and\n  mul\n  or\n  swap1\n  sstore\n  pop\n    /* \"@openzeppelin/contracts/access/Ownable.sol\":3083:3091  newOwner */\n  dup2\n    /* \"@openzeppelin/contracts/access/Ownable.sol\":3052:3092  OwnershipTransferred(oldOwner, newOwner) */\n  0xffffffffffffffffffffffffffffffffffffffff\n  and\n    /* \"@openzeppelin/contracts/access/Ownable.sol\":3073:3081  oldOwner */\n  dup2\n    /* \"@openzeppelin/contracts/access/Ownable.sol\":3052:3092  OwnershipTransferred(oldOwner, newOwner) */\n  0xffffffffffffffffffffffffffffffffffffffff\n  and\n  0x8be0079c531659141344cd1fd0a4f28419497f9722a3daafe3b4186f6b6457e0\n  mload(0x40)\n  mload(0x40)\n  dup1\n  swap2\n  sub\n  swap1\n  log3\n    /* \"@openzeppelin/contracts/access/Ownable.sol\":2975:3099  {... */\n  pop\n    /* \"@openzeppelin/contracts/access/Ownable.sol\":2912:3099  function _transferOwnership(address newOwner) internal virtual {... */\n  pop\n  jump\t// out\n    /* \"#utility.yul\":7:106   */\ntag_13:\n    /* \"#utility.yul\":59:65   */\n  0x00\n    /* \"#utility.yul\":93:98   */\n  dup2\n    /* \"#utility.yul\":87:99   */\n  mload\n    /* \"#utility.yul\":77:99   */\n  swap1\n  pop\n    /* \"#utility.yul\":7:106   */\n  swap2\n  swap1\n  pop\n  jump\t// out\n    /* \"#utility.yul\":112:292   */\ntag_14:\n    /* \"#utility.yul\":160:237   */\n  0x4e487b7100000000000000000000000000000000000000000000000000000000\n    /* \"#utility.yul\":157:158   */\n  0x00\n    /* \"#utility.yul\":150:238   */\n  mstore\n    /* \"#utility.yul\":257:261   */\n  0x41\n    /* \"#utility.yul\":254:255   */\n  0x04\n    /* \"#utility.yul\":247:262   */\n  mstore\n    /* \"#utility.yul\":281:285   */\n  0x24\n    /* \"#utility.yul\":278:279   */\n  0x00\n    /* \"#utility.yul\":271:286   */\n  revert\n    /* \"#utility.yul\":298:478   */\ntag_15:\n    /* \"#utility.yul\":346:423   */\n  0x4e487b7100000000000000000000000000000000000000000000000000000000\n    /* \"#utility.yul\":343:344   */\n  0x00\n    /* \"#utility.yul\":336:424   */\n  mstore\n    /* \"#utility.yul\":443:447   */\n  0x22\n    /* \"#utility.yul\":440:441   */\n  0x04\n    /* \"#utility.yul\":433:448   */\n  mstore\n    /* \"#utility.yul\":467:471   */\n  0x24\n    /* \"#utility.yul\":464:465   */\n  0x00\n    /* \"#utility.yul\":457:472   */\n  revert\n    /* \"#utility.yul\":484:804   */\ntag_16:\n    /* \"#utility.yul\":528:534   */\n  0x00\n    /* \"#utility.yul\":565:566   */\n  0x02\n    /* \"#utility.yul\":559:563   */\n  dup3\n    /* \"#utility.yul\":555:567   */\n  div\n    /* \"#utility.yul\":545:567   */\n  swap1\n  pop\n    /* \"#utility.yul\":612:613   */\n  0x01\n    /* \"#utility.yul\":606:610   */\n  dup3\n    /* \"#utility.yul\":602:614   */\n  and\n    /* \"#utility.yul\":633:651   */\n  dup1\n    /* \"#utility.yul\":623:704   */\n  tag_41\n  jumpi\n    /* \"#utility.yul\":689:693   */\n  0x7f\n    /* \"#utility.yul\":681:687   */\n  dup3\n    /* \"#utility.yul\":677:694   */\n  and\n    /* \"#utility.yul\":667:694   */\n  swap2\n  pop\n    /* \"#utility.yul\":623:704   */\ntag_41:\n    /* \"#utility.yul\":751:753   */\n  0x20\n    /* \"#utility.yul\":743:749   */\n  dup3\n    /* \"#utility.yul\":740:754   */\n  lt\n    /* \"#utility.yul\":720:738   */\n  dup2\n    /* \"#utility.yul\":717:755   */\n  sub\n    /* \"#utility.yul\":714:798   */\n  tag_42\n  jumpi\n    /* \"#utility.yul\":770:788   */\n  tag_43\n  tag_15\n  jump\t// in\ntag_43:\n    /* \"#utility.yul\":714:798   */\ntag_42:\n    /* \"#utility.yul\":535:804   */\n  pop\n    /* \"#utility.yul\":484:804   */\n  swap2\n  swap1\n  pop\n  jump\t// out\n    /* \"#utility.yul\":810:951   */\ntag_17:\n    /* \"#utility.yul\":859:863   */\n  0x00\n    /* \"#utility.yul\":882:885   */\n  dup2\n    /* \"#utility.yul\":874:885   */\n  swap1\n  pop\n    /* \"#utility.yul\":905:908   */\n  dup2\n    /* \"#utility.yul\":902:903   */\n  0x00\n    /* \"#utility.yul\":895:909   */\n  mstore\n    /* \"#utility.yul\":939:943   */\n  0x20\n    /* \"#utility.yul\":936:937   */\n  0x00\n    /* \"#utility.yul\":926:944   */\n  keccak256\n    /* \"#utility.yul\":918:944   */\n  swap1\n  pop\n    /* \"#utility.yul\":810:951   */\n  swap2\n  swap1\n  pop\n  jump\t// out\n    /* \"#utility.yul\":957:1050   */\ntag_18:\n    /* \"#utility.yul\":994:1000   */\n  0x00\n    /* \"#utility.yul\":1041:1043   */\n  0x20\n    /* \"#utility.yul\":1036:1038   */\n  0x1f\n    /* \"#utility.yul\":1029:1034   */\n  dup4\n    /* \"#utility.yul\":1025:1039   */\n  add\n    /* \"#utility.yul\":1021:1044   */\n  div\n    /* \"#utility.yul\":1011:1044   */\n  swap1\n  pop\n    /* \"#utility.yul\":957:1050   */\n  swap2\n  swap1\n  pop\n  jump\t// out\n    /* \"#utility.yul\":1056:1163   */\ntag_19:\n    /* \"#utility.yul\":1100:1108   */\n  0x00\n    /* \"#utility.yul\":1150:1155   */\n  dup3\n    /* \"#utility.yul\":1144:1148   */\n  dup3\n    /* \"#utility.yul\":1140:1156   */\n  shl\n    /* \"#utility.yul\":1119:1156   */\n  swap1\n  pop\n    /* \"#utility.yul\":1056:1163   */\n  swap3\n  swap2\n  pop\n  pop\n  jump\t// out\n    /* \"#utility.yul\":1169:1562   */\ntag_20:\n    /* \"#utility.yul\":1238:1244   */\n  0x00\n    /* \"#utility.yul\":1288:1289   */\n  0x08\n    /* \"#utility.yul\":1276:1286   */\n  dup4\n    /* \"#utility.yul\":1272:1290   */\n  mul\n    /* \"#utility.yul\":1311:1408   */\n  tag_48\n    /* \"#utility.yul\":1341:1407   */\n  0xffffffffffffffffffffffffffffffffffffffffffffffffffffffffffffffff\n    /* \"#utility.yul\":1330:1339   */\n  dup3\n    /* \"#utility.yul\":1311:1408   */\n  tag_19\n  jump\t// in\ntag_48:\n    /* \"#utility.yul\":1429:1468   */\n  tag_49\n    /* \"#utility.yul\":1459:1467   */\n  dup7\n    /* \"#utility.yul\":1448:1457   */\n  dup4\n    /* \"#utility.yul\":1429:1468   */\n  tag_19\n  jump\t// in\ntag_49:\n    /* \"#utility.yul\":1417:1468   */\n  swap6\n  pop\n    /* \"#utility.yul\":1501:1505   */\n  dup1\n    /* \"#utility.yul\":1497:1506   */\n  not\n    /* \"#utility.yul\":1490:1495   */\n  dup5\n    /* \"#utility.yul\":1486:1507   */\n  and\n    /* \"#utility.yul\":1477:1507   */\n  swap4\n  pop\n    /* \"#utility.yul\":1550:1554   */\n  dup1\n    /* \"#utility.yul\":1540:1548   */\n  dup7\n    /* \"#utility.yul\":1536:1555   */\n  and\n    /* \"#utility.yul\":1529:1534   */\n  dup5\n    /* \"#utility.yul\":1526:1556   */\n  or\n    /* \"#utility.yul\":1516:1556   */\n  swap3\n  pop\n    /* \"#utility.yul\":1245:1562   */\n  pop\n  pop\n    /* \"#utility.yul\":1169:1562   */\n  swap4\n  swap3\n  pop\n  pop\n  pop\n  jump\t// out\n    /* \"#utility.yul\":1568:1645   */\ntag_21:\n    /* \"#utility.yul\":1605:1612   */\n  0x00\n    /* \"#utility.yul\":1634:1639   */\n  dup2\n    /* \"#utility.yul\":1623:1639   */\n  swap1\n  pop\n    /* \"#utility.yul\":1568:1645   */\n  swap2\n  swap1\n  pop\n  jump\t// out\n    /* \"#utility.yul\":1651:1711   */\ntag_22:\n    /* \"#utility.yul\":1679:1682   */\n  0x00\n    /* \"#utility.yul\":1700:1705   */\n  dup2\n    /* \"#utility.yul\":1693:1705   */\n  swap1\n  pop\n    /* \"#utility.yul\":1651:1711   */\n  swap2\n  swap1\n  pop\n  jump\t// out\n    /* \"#utility.yul\":1717:1859   */\ntag_23:\n    /* \"#utility.yul\":1767:1776   */\n  0x00\n    /* \"#utility.yul\":1800:1853   */\n  tag_53\n    /* \"#utility.yul\":1818:1852   */\n  tag_54\n    /* \"#utility.yul\":1827:1851   */\n  tag_55\n    /* \"#utility.yul\":1845:1850   */\n  dup5\n    /* \"#utility.yul\":1827:1851   */\n  tag_21\n  jump\t// in\ntag_55:\n    /* \"#utility.yul\":1818:1852   */\n  tag_22\n  jump\t// in\ntag_54:\n    /* \"#utility.yul\":1800:1853   */\n  tag_21\n  jump\t// in\ntag_53:\n    /* \"#utility.yul\":1787:1853   */\n  swap1\n  pop\n    /* \"#utility.yul\":1717:1859   */\n  swap2\n  swap1\n  pop\n  jump\t// out\n    /* \"#utility.yul\":1865:1940   */\ntag_24:\n    /* \"#utility.yul\":1908:1911   */\n  0x00\n    /* \"#utility.yul\":1929:1934   */\n  dup2\n    /* \"#utility.yul\":1922:1934   */\n  swap1\n  pop\n    /* \"#utility.yul\":1865:1940   */\n  swap2\n  swap1\n  pop\n  jump\t// out\n    /* \"#utility.yul\":1946:2215   */\ntag_25:\n    /* \"#utility.yul\":2056:2095   */\n  tag_58\n    /* \"#utility.yul\":2087:2094   */\n  dup4\n    /* \"#utility.yul\":2056:2095   */\n  tag_23\n  jump\t// in\ntag_58:\n    /* \"#utility.yul\":2117:2208   */\n  tag_59\n    /* \"#utility.yul\":2166:2207   */\n  tag_60\n    /* \"#utility.yul\":2190:2206   */\n  dup3\n    /* \"#utility.yul\":2166:2207   */\n  tag_24\n  jump\t// in\ntag_60:\n    /* \"#utility.yul\":2158:2164   */\n  dup5\n    /* \"#utility.yul\":2151:2155   */\n  dup5\n    /* \"#utility.yul\":2145:2156   */\n  sload\n    /* \"#utility.yul\":2117:2208   */\n  tag_20\n  jump\t// in\ntag_59:\n    /* \"#utility.yul\":2111:2115   */\n  dup3\n    /* \"#utility.yul\":2104:2209   */\n  sstore\n    /* \"#utility.yul\":2022:2215   */\n  pop\n    /* \"#utility.yul\":1946:2215   */\n  pop\n  pop\n  pop\n  jump\t// out\n    /* \"#utility.yul\":2221:2294   */\ntag_26:\n    /* \"#utility.yul\":2266:2269   */\n  0x00\n    /* \"#utility.yul\":2221:2294   */\n  swap1\n  jump\t// out\n    /* \"#utility.yul\":2300:2489   */\ntag_27:\n    /* \"#utility.yul\":2377:2409   */\n  tag_63\n  tag_26\n  jump\t// in\ntag_63:\n    /* \"#utility.yul\":2418:2483   */\n  tag_64\n    /* \"#utility.yul\":2476:2482   */\n  dup2\n    /* \"#utility.yul\":2468:2474   */\n  dup5\n    /* \"#utility.yul\":2462:2466   */\n  dup5\n    /* \"#utility.yul\":2418:2483   */\n  tag_25\n  jump\t// in\ntag_64:\n    /* \"#utility.yul\":2353:2489   */\n  pop\n    /* \"#utility.yul\":2300:2489   */\n  pop\n  pop\n  jump\t// out\n    /* \"#utility.yul\":2495:2681   */\ntag_28:\n    /* \"#utility.yul\":2555:2675   */\ntag_66:\n    /* \"#utility.yul\":2572:2575   */\n  dup2\n    /* \"#utility.yul\":2565:2570   */\n  dup2\n    /* \"#utility.yul\":2562:2576   */\n  lt\n    /* \"#utility.yul\":2555:2675   */\n  iszero\n  tag_68\n  jumpi\n    /* \"#utility.yul\":2626:2665   */\n  tag_69\n    /* \"#utility.yul\":2663:2664   */\n  0x00\n    /* \"#utility.yul\":2656:2661   */\n  dup3\n    /* \"#utility.yul\":2626:2665   */\n  tag_27\n  jump\t// in\ntag_69:\n    /* \"#utility.yul\":2599:2600   */\n  0x01\n    /* \"#utility.yul\":2592:2597   */\n  dup2\n    /* \"#utility.yul\":2588:2601   */\n  add\n    /* \"#utility.yul\":2579:2601   */\n  swap1\n  pop\n    /* \"#utility.yul\":2555:2675   */\n  jump(tag_66)\ntag_68:\n    /* \"#utility.yul\":2495:2681   */\n  pop\n  pop\n  jump\t// out\n    /* \"#utility.yul\":2687:3230   */\ntag_29:\n    /* \"#utility.yul\":2788:2790   */\n  0x1f\n    /* \"#utility.yul\":2783:2786   */\n  dup3\n    /* \"#utility.yul\":2780:2791   */\n  gt\n    /* \"#utility.yul\":2777:3223   */\n  iszero\n  tag_71\n  jumpi\n    /* \"#utility.yul\":2822:2860   */\n  tag_72\n    /* \"#utility.yul\":2854:2859   */\n  dup2\n    /* \"#utility.yul\":2822:2860   */\n  tag_17\n  jump\t// in\ntag_72:\n    /* \"#utility.yul\":2906:2935   */\n  tag_73\n    /* \"#utility.yul\":2924:2934   */\n  dup5\n    /* \"#utility.yul\":2906:2935   */\n  tag_18\n  jump\t// in\ntag_73:\n    /* \"#utility.yul\":2896:2904   */\n  dup2\n    /* \"#utility.yul\":2892:2936   */\n  add\n    /* \"#utility.yul\":3089:3091   */\n  0x20\n    /* \"#utility.yul\":3077:3087   */\n  dup6\n    /* \"#utility.yul\":3074:3092   */\n  lt\n    /* \"#utility.yul\":3071:3120   */\n  iszero\n  tag_74\n  jumpi\n    /* \"#utility.yul\":3110:3118   */\n  dup2\n    /* \"#utility.yul\":3095:3118   */\n  swap1\n  pop\n    /* \"#utility.yul\":3071:3120   */\ntag_74:\n    /* \"#utility.yul\":3133:3213   */\n  tag_75\n    /* \"#utility.yul\":3189:3211   */\n  tag_76\n    /* \"#utility.yul\":3207:3210   */\n  dup6\n    /* \"#utility.yul\":3189:3211   */\n  tag_18\n  jump\t// in\ntag_76:\n    /* \"#utility.yul\":3179:3187   */\n  dup4\n    /* \"#utility.yul\":3175:3212   */\n  add\n    /* \"#utility.yul\":3162:3173   */\n  dup3\n    /* \"#utility.yul\":3133:3213   */\n  tag_28\n  jump\t// in\ntag_75:\n    /* \"#utility.yul\":2792:3223   */\n  pop\n  pop\n    /* \"#utility.yul\":2777:3223   */\ntag_71:\n    /* \"#utility.yul\":2687:3230   */\n  pop\n  pop\n  pop\n  jump\t// out\n    /* \"#utility.yul\":3236:3353   */\ntag_30:\n    /* \"#utility.yul\":3290:3298   */\n  0x00\n    /* \"#utility.yul\":3340:3345   */\n  dup3\n    /* \"#utility.yul\":3334:3338   */\n  dup3\n    /* \"#utility.yul\":3330:3346   */\n  shr\n    /* \"#utility.yul\":3309:3346   */\n  swap1\n  pop\n    /* \"#utility.yul\":3236:3353   */\n  swap3\n  swap2\n  pop\n  pop\n  jump\t// out\n    /* \"#utility.yul\":3359:3528   */\ntag_31:\n    /* \"#utility.yul\":3403:3409   */\n  0x00\n    /* \"#utility.yul\":3436:3487   */\n  tag_79\n    /* \"#utility.yul\":3484:3485   */\n  0x00\n    /* \"#utility.yul\":3480:3486   */\n  not\n    /* \"#utility.yul\":3472:3477   */\n  dup5\n    /* \"#utility.yul\":3469:3470   */\n  0x08\n    /* \"#utility.yul\":3465:3478   */\n  mul\n    /* \"#utility.yul\":3436:3487   */\n  tag_30\n  jump\t// in\ntag_79:\n    /* \"#utility.yul\":3432:3488   */\n  not\n    /* \"#utility.yul\":3517:3521   */\n  dup1\n    /* \"#utility.yul\":3511:3515   */\n  dup4\n    /* \"#utility.yul\":3507:3522   */\n  and\n    /* \"#utility.yul\":3497:3522   */\n  swap2\n  pop\n    /* \"#utility.yul\":3410:3528   */\n  pop\n    /* \"#utility.yul\":3359:3528   */\n  swap3\n  swap2\n  pop\n  pop\n  jump\t// out\n    /* \"#utility.yul\":3533:3828   */\ntag_32:\n    /* \"#utility.yul\":3609:3613   */\n  0x00\n    /* \"#utility.yul\":3755:3784   */\n  tag_81\n    /* \"#utility.yul\":3780:3783   */\n  dup4\n    /* \"#utility.yul\":3774:3778   */\n  dup4\n    /* \"#utility.yul\":3755:3784   */\n  tag_31\n  jump\t// in\ntag_81:\n    /* \"#utility.yul\":3747:3784   */\n  swap2\n  pop\n    /* \"#utility.yul\":3817:3820   */\n  dup3\n    /* \"#utility.yul\":3814:3815   */\n  0x02\n    /* \"#utility.yul\":3810:3821   */\n  mul\n    /* \"#utility.yul\":3804:3808   */\n  dup3\n    /* \"#utility.yul\":3801:3822   */\n  or\n    /* \"#utility.yul\":3793:3822   */\n  swap1\n  pop\n    /* \"#utility.yul\":3533:3828   */\n  swap3\n  swap2\n  pop\n  pop\n  jump\t// out\n    /* \"#utility.yul\":3833:5228   */\ntag_2:\n    /* \"#utility.yul\":3950:3987   */\n  tag_83\n    /* \"#utility.yul\":3983:3986   */\n  dup3\n    /* \"#utility.yul\":3950:3987   */\n  tag_13\n  jump\t// in\ntag_83:\n    /* \"#utility.yul\":4052:4070   */\n  0xffffffffffffffff\n    /* \"#utility.yul\":4044:4050   */\n  dup2\n    /* \"#utility.yul\":4041:4071   */\n  gt\n    /* \"#utility.yul\":4038:4094   */\n  iszero\n  tag_84\n  jumpi\n    /* \"#utility.yul\":4074:4092   */\n  tag_85\n  tag_14\n  jump\t// in\ntag_85:\n    /* \"#utility.yul\":4038:4094   */\ntag_84:\n    /* \"#utility.yul\":4118:4156   */\n  tag_86\n    /* \"#utility.yul\":4150:4154   */\n  dup3\n    /* \"#utility.yul\":4144:4155   */\n  sload\n    /* \"#utility.yul\":4118:4156   */\n  tag_16\n  jump\t// in\ntag_86:\n    /* \"#utility.yul\":4203:4270   */\n  tag_87\n    /* \"#utility.yul\":4263:4269   */\n  dup3\n    /* \"#utility.yul\":4255:4261   */\n  dup3\n    /* \"#utility.yul\":4249:4253   */\n  dup6\n    /* \"#utility.yul\":4203:4270   */\n  tag_29\n  jump\t// in\ntag_87:\n    /* \"#utility.yul\":4297:4298   */\n  0x00\n    /* \"#utility.yul\":4321:4325   */\n  0x20\n    /* \"#utility.yul\":4308:4325   */\n  swap1\n  pop\n    /* \"#utility.yul\":4353:4355   */\n  0x1f\n    /* \"#utility.yul\":4345:4351   */\n  dup4\n    /* \"#utility.yul\":4342:4356   */\n  gt\n    /* \"#utility.yul\":4370:4371   */\n  0x01\n    /* \"#utility.yul\":4365:4983   */\n  dup2\n  eq\n  tag_89\n  jumpi\n    /* \"#utility.yul\":5027:5028   */\n  0x00\n    /* \"#utility.yul\":5044:5050   */\n  dup5\n    /* \"#utility.yul\":5041:5118   */\n  iszero\n  tag_90\n  jumpi\n    /* \"#utility.yul\":5093:5102   */\n  dup3\n    /* \"#utility.yul\":5088:5091   */\n  dup8\n    /* \"#utility.yul\":5084:5103   */\n  add\n    /* \"#utility.yul\":5078:5104   */\n  mload\n    /* \"#utility.yul\":5069:5104   */\n  swap1\n  pop\n    /* \"#utility.yul\":5041:5118   */\ntag_90:\n    /* \"#utility.yul\":5144:5211   */\n  tag_91\n    /* \"#utility.yul\":5204:5210   */\n  dup6\n    /* \"#utility.yul\":5197:5202   */\n  dup3\n    /* \"#utility.yul\":5144:5211   */\n  tag_32\n  jump\t// in\ntag_91:\n    /* \"#utility.yul\":5138:5142   */\n  dup7\n    /* \"#utility.yul\":5131:5212   */\n  sstore\n    /* \"#utility.yul\":5000:5222   */\n  pop\n    /* \"#utility.yul\":4335:5222   */\n  jump(tag_88)\n    /* \"#utility.yul\":4365:4983   */\ntag_89:\n    /* \"#utility.yul\":4417:4421   */\n  0x1f\n    /* \"#utility.yul\":4413:4422   */\n  not\n    /* \"#utility.yul\":4405:4411   */\n  dup5\n    /* \"#utility.yul\":4401:4423   */\n  and\n    /* \"#utility.yul\":4451:4488   */\n  tag_92\n    /* \"#utility.yul\":4483:4487   */\n  dup7\n    /* \"#utility.yul\":4451:4488   */\n  tag_17\n  jump\t// in\ntag_92:\n    /* \"#utility.yul\":4510:4511   */\n  0x00\n    /* \"#utility.yul\":4524:4732   */\ntag_93:\n    /* \"#utility.yul\":4538:4545   */\n  dup3\n    /* \"#utility.yul\":4535:4536   */\n  dup2\n    /* \"#utility.yul\":4532:4546   */\n  lt\n    /* \"#utility.yul\":4524:4732   */\n  iszero\n  tag_95\n  jumpi\n    /* \"#utility.yul\":4617:4626   */\n  dup5\n    /* \"#utility.yul\":4612:4615   */\n  dup10\n    /* \"#utility.yul\":4608:4627   */\n  add\n    /* \"#utility.yul\":4602:4628   */\n  mload\n    /* \"#utility.yul\":4594:4600   */\n  dup3\n    /* \"#utility.yul\":4587:4629   */\n  sstore\n    /* \"#utility.yul\":4668:4669   */\n  0x01\n    /* \"#utility.yul\":4660:4666   */\n  dup3\n    /* \"#utility.yul\":4656:4670   */\n  add\n    /* \"#utility.yul\":4646:4670   */\n  swap2\n  pop\n    /* \"#utility.yul\":4715:4717   */\n  0x20\n    /* \"#utility.yul\":4704:4713   */\n  dup6\n    /* \"#utility.yul\":4700:4718   */\n  add\n    /* \"#utility.yul\":4687:4718   */\n  swap5\n  pop\n    /* \"#utility.yul\":4561:4565   */\n  0x20\n    /* \"#utility.yul\":4558:4559   */\n  dup2\n    /* \"#utility.yul\":4554:4566   */\n  add\n    /* \"#utility.yul\":4549:4566   */\n  swap1\n  pop\n    /* \"#utility.yul\":4524:4732   */\n  jump(tag_93)\ntag_95:\n    /* \"#utility.yul\":4760:4766   */\n  dup7\n    /* \"#utility.yul\":4751:4758   */\n  dup4\n    /* \"#utility.yul\":4748:4767   */\n  lt\n    /* \"#utility.yul\":4745:4924   */\n  iszero\n  tag_96\n  jumpi\n    /* \"#utility.yul\":4818:4827   */\n  dup5\n    /* \"#utility.yul\":4813:4816   */\n  dup10\n    /* \"#utility.yul\":4809:4828   */\n  add\n    /* \"#utility.yul\":4803:4829   */\n  mload\n    /* \"#utility.yul\":4861:4909   */\n  tag_97\n    /* \"#utility.yul\":4903:4907   */\n  0x1f\n    /* \"#utility.yul\":4895:4901   */\n  dup10\n    /* \"#utility.yul\":4891:4908   */\n  and\n    /* \"#utility.yul\":4880:4889   */\n  dup3\n    /* \"#utility.yul\":4861:4909   */\n  tag_31\n  jump\t// in\ntag_97:\n    /* \"#utility.yul\":4853:4859   */\n  dup4\n    /* \"#utility.yul\":4846:4910   */\n  sstore\n    /* \"#utility.yul\":4768:4924   */\n  pop\n    /* \"#utility.yul\":4745:4924   */\ntag_96:\n    /* \"#utility.yul\":4970:4971   */\n  0x01\n    /* \"#utility.yul\":4966:4967   */\n  0x02\n    /* \"#utility.yul\":4958:4964   */\n  dup9\n    /* \"#utility.yul\":4954:4968   */\n  mul\n    /* \"#utility.yul\":4950:4972   */\n  add\n    /* \"#utility.yul\":4944:4948   */\n  dup9\n    /* \"#utility.yul\":4937:4973   */\n  sstore\n    /* \"#utility.yul\":4372:4983   */\n  pop\n  pop\n  pop\n    /* \"#utility.yul\":4335:5222   */\ntag_88:\n  pop\n    /* \"#utility.yul\":3925:5228   */\n  pop\n  pop\n  pop\n    /* \"#utility.yul\":3833:5228   */\n  pop\n  pop\n  jump\t// out\n    /* \"#utility.yul\":5234:5360   */\ntag_33:\n    /* \"#utility.yul\":5271:5278   */\n  0x00\n    /* \"#utility.yul\":5311:5353   */\n  0xffffffffffffffffffffffffffffffffffffffff\n    /* \"#utility.yul\":5304:5309   */\n  dup3\n    /* \"#utility.yul\":5300:5354   */\n  and\n    /* \"#utility.yul\":5289:5354   */\n  swap1\n  pop\n    /* \"#utility.yul\":5234:5360   */\n  swap2\n  swap1\n  pop\n  jump\t// out\n    /* \"#utility.yul\":5366:5462   */\ntag_34:\n    /* \"#utility.yul\":5403:5410   */\n  0x00\n    /* \"#utility.yul\":5432:5456   */\n  tag_100\n    /* \"#utility.yul\":5450:5455   */\n  dup3\n    /* \"#utility.yul\":5432:5456   */\n  tag_33\n  jump\t// in\ntag_100:\n    /* \"#utility.yul\":5421:5456   */\n  swap1\n  pop\n    /* \"#utility.yul\":5366:5462   */\n  swap2\n  swap1\n  pop\n  jump\t// out\n    /* \"#utility.yul\":5468:5586   */\ntag_35:\n    /* \"#utility.yul\":5555:5579   */\n  tag_102\n    /* \"#utility.yul\":5573:5578   */\n  dup2\n    /* \"#utility.yul\":5555:5579   */\n  tag_34\n  jump\t// in\ntag_102:\n    /* \"#utility.yul\":5550:5553   */\n  dup3\n    /* \"#utility.yul\":5543:5580   */\n  mstore\n    /* \"#utility.yul\":5468:5586   */\n  pop\n  pop\n  jump\t// out\n    /* \"#utility.yul\":5592:5814   */\ntag_8:\n    /* \"#utility.yul\":5685:5689   */\n  0x00\n    /* \"#utility.yul\":5723:5725   */\n  0x20\n    /* \"#utility.yul\":5712:5721   */\n  dup3\n    /* \"#utility.yul\":5708:5726   */\n  add\n    /* \"#utility.yul\":5700:5726   */\n  swap1\n  pop\n    /* \"#utility.yul\":5736:5807   */\n  tag_104\n    /* \"#utility.yul\":5804:5805   */\n  0x00\n    /* \"#utility.yul\":5793:5802   */\n  dup4\n    /* \"#utility.yul\":5789:5806   */\n  add\n    /* \"#utility.yul\":5780:5786   */\n  dup5\n    /* \"#utility.yul\":5736:5807   */\n  tag_35\n  jump\t// in\ntag_104:\n    /* \"#utility.yul\":5592:5814   */\n  swap3\n  swap2\n  pop\n  pop\n  jump\t// out\n    /* \"AddressBook.sol\":116:2978  contract AddressBook is Ownable(msg.sender) {... */\ntag_11:\n  dataSize(sub_0)\n  dup1\n  dataOffset(sub_0)\n  0x00\n  codecopy\n  0x00\n  return\nstop\n\nsub_0: assembly {\n        /* \"AddressBook.sol\":116:2978  contract AddressBook is Ownable(msg.sender) {... */\n      mstore(0x40, 0x80)\n      callvalue\n      dup1\n      iszero\n      tag_1\n      jumpi\n      0x00\n      dup1\n      revert\n    tag_1:\n      pop\n      jumpi(tag_2, lt(calldatasize, 0x04))\n      shr(0xe0, calldataload(0x00))\n      dup1\n      0xb9ed6fca\n      gt\n      tag_10\n      jumpi\n      dup1\n      0xb9ed6fca\n      eq\n      tag_6\n      jumpi\n      dup1\n      0xe6505e1e\n      eq\n      tag_7\n      jumpi\n      dup1\n      0xef1d6ddd\n      eq\n      tag_8\n      jumpi\n      dup1\n      0xf2fde38b\n      eq\n      tag_9\n      jumpi\n      jump(tag_2)\n    tag_10:\n      dup1\n      0x3f06f6e8\n      eq\n      tag_3\n      jumpi\n      dup1\n      0x715018a6\n      eq\n      tag_4\n      jumpi\n      dup1\n      0x8da5cb5b\n      eq\n      tag_5\n      jumpi\n    tag_2:\n      0x00\n      dup1\n      revert\n        /* \"AddressBook.sol\":1018:1507  function addContact(string calldata firstName, string calldata lastName, uint[] calldata phoneNumbers) external onlyOwner {... */\n    tag_3:\n      tag_11\n      0x04\n      dup1\n      calldatasize\n      sub\n      dup2\n      add\n      swap1\n      tag_12\n      swap2\n      swap1\n      tag_13\n      jump\t// in\n    tag_12:\n      tag_14\n      jump\t// in\n    tag_11:\n      stop\n        /* \"@openzeppelin/contracts/access/Ownable.sol\":2293:2394  function renounceOwnership() public virtual onlyOwner {... */\n    tag_4:\n      tag_15\n      tag_16\n      jump\t// in\n    tag_15:\n      stop\n        /* \"@openzeppelin/contracts/access/Ownable.sol\":1638:1723  function owner() public view virtual returns (address) {... */\n    tag_5:\n      tag_17\n      tag_18\n      jump\t// in\n    tag_17:\n      mload(0x40)\n      tag_19\n      swap2\n      swap1\n      tag_20\n      jump\t// in\n    tag_19:\n      mload(0x40)\n      dup1\n      swap2\n      sub\n      swap1\n      return\n        /* \"AddressBook.sol\":1562:2314  function deleteContact(uint id) external onlyOwner {... */\n    tag_6:\n      tag_21\n      0x04\n      dup1\n      calldatasize\n      sub\n      dup2\n      add\n      swap1\n      tag_22\n      swap2\n      swap1\n      tag_23\n      jump\t// in\n    tag_22:\n      tag_24\n      jump\t// in\n    tag_21:\n      stop\n        /* \"AddressBook.sol\":2371:2779  function getContact(uint id) external view returns (Contact memory) {... */\n    tag_7:\n      tag_25\n      0x04\n      dup1\n      calldatasize\n      sub\n      dup2\n      add\n      swap1\n      tag_26\n      swap2\n      swap1\n      tag_23\n      jump\t// in\n    tag_26:\n      tag_27\n      jump\t// in\n    tag_25:\n      mload(0x40)\n      tag_28\n      swap2\n      swap1\n      tag_29\n      jump\t// in\n    tag_28:\n      mload(0x40)\n      dup1\n      swap2\n      sub\n      swap1\n      return\n        /* \"AddressBook.sol\":2829:2975  function getAllContacts() external view returns (Contact[] memory) {... */\n    tag_8:\n      tag_30\n      tag_31\n      jump\t// in\n    tag_30:\n      mload(0x40)\n      tag_32\n      swap2\n      swap1\n      tag_33\n      jump\t// in\n    tag_32:\n      mload(0x40)\n      dup1\n      swap2\n      sub\n      swap1\n      return\n        /* \"@openzeppelin/contracts/access/Ownable.sol\":2543:2758  function transferOwnership(address newOwner) public virtual onlyOwner {... */\n    tag_9:\n      tag_34\n      0x04\n      dup1\n      calldatasize\n      sub\n      dup2\n      add\n      swap1\n      tag_35\n      swap2\n      swap1\n      tag_36\n      jump\t// in\n    tag_35:\n      tag_37\n      jump\t// in\n    tag_34:\n      stop\n        /* \"AddressBook.sol\":1018:1507  function addContact(string calldata firstName, string calldata lastName, uint[] calldata phoneNumbers) external onlyOwner {... */\n    tag_14:\n        /* \"@openzeppelin/contracts/access/Ownable.sol\":1531:1544  _checkOwner() */\n      tag_39\n        /* \"@openzeppelin/contracts/access/Ownable.sol\":1531:1542  _checkOwner */\n      tag_40\n        /* \"@openzeppelin/contracts/access/Ownable.sol\":1531:1544  _checkOwner() */\n      jump\t// in\n    tag_39:\n        /* \"AddressBook.sol\":1243:1251  contacts */\n      0x02\n        /* \"AddressBook.sol\":1257:1307  Contact(nextId, firstName, lastName, phoneNumbers) */\n      mload(0x40)\n      dup1\n      0x80\n      add\n      0x40\n      mstore\n      dup1\n        /* \"AddressBook.sol\":1265:1271  nextId */\n      sload(0x04)\n        /* \"AddressBook.sol\":1257:1307  Contact(nextId, firstName, lastName, phoneNumbers) */\n      dup2\n      mstore\n      0x20\n      add\n        /* \"AddressBook.sol\":1273:1282  firstName */\n      dup9\n      dup9\n        /* \"AddressBook.sol\":1257:1307  Contact(nextId, firstName, lastName, phoneNumbers) */\n      dup1\n      dup1\n      0x1f\n      add\n      0x20\n      dup1\n      swap2\n      div\n      mul\n      0x20\n      add\n      mload(0x40)\n      swap1\n      dup2\n      add\n      0x40\n      mstore\n      dup1\n      swap4\n      swap3\n      swap2\n      swap1\n      dup2\n      dup2\n      mstore\n      0x20\n      add\n      dup4\n      dup4\n      dup1\n      dup3\n      dup5\n      calldatacopy\n      0x00\n      dup2\n      dup5\n      add\n      mstore\n      not(0x1f)\n      0x1f\n      dup3\n      add\n      and\n      swap1\n      pop\n      dup1\n      dup4\n      add\n      swap3\n      pop\n      pop\n      pop\n      pop\n      pop\n      pop\n      pop\n      dup2\n      mstore\n      0x20\n      add\n        /* \"AddressBook.sol\":1284:1292  lastName */\n      dup7\n      dup7\n        /* \"AddressBook.sol\":1257:1307  Contact(nextId, firstName, lastName, phoneNumbers) */\n      dup1\n      dup1\n      0x1f\n      add\n      0x20\n      dup1\n      swap2\n      div\n      mul\n      0x20\n      add\n      mload(0x40)\n      swap1\n      dup2\n      add\n      0x40\n      mstore\n      dup1\n      swap4\n      swap3\n      swap2\n      swap1\n      dup2\n      dup2\n      mstore\n      0x20\n      add\n      dup4\n      dup4\n      dup1\n      dup3\n      dup5\n      calldatacopy\n      0x00\n      dup2\n      dup5\n      add\n      mstore\n      not(0x1f)\n      0x1f\n      dup3\n      add\n      and\n      swap1\n      pop\n      dup1\n      dup4\n      add\n      swap3\n      pop\n      pop\n      pop\n      pop\n      pop\n      pop\n      pop\n      dup2\n      mstore\n      0x20\n      add\n        /* \"AddressBook.sol\":1294:1306  phoneNumbers */\n      dup5\n      dup5\n        /* \"AddressBook.sol\":1257:1307  Contact(nextId, firstName, lastName, phoneNumbers) */\n      dup1\n      dup1\n      0x20\n      mul\n      0x20\n      add\n      mload(0x40)\n      swap1\n      dup2\n      add\n      0x40\n      mstore\n      dup1\n      swap4\n      swap3\n      swap2\n      swap1\n      dup2\n      dup2\n      mstore\n      0x20\n      add\n      dup4\n      dup4\n      0x20\n      mul\n      dup1\n      dup3\n      dup5\n      calldatacopy\n      0x00\n      dup2\n      dup5\n      add\n      mstore\n      not(0x1f)\n      0x1f\n      dup3\n      add\n      and\n      swap1\n      pop\n      dup1\n      dup4\n      add\n      swap3\n      pop\n      pop\n      pop\n      pop\n      pop\n      pop\n      pop\n      dup2\n      mstore\n      pop\n        /* \"AddressBook.sol\":1243:1308  contacts.push(Contact(nextId, firstName, lastName, phoneNumbers)) */\n      swap1\n      dup1\n      0x01\n      dup2\n      sload\n      add\n      dup1\n      dup3\n      sstore\n      dup1\n      swap2\n      pop\n      pop\n      0x01\n      swap1\n      sub\n      swap1\n      0x00\n      mstore\n      keccak256(0x00, 0x20)\n      swap1\n      0x04\n      mul\n      add\n      0x00\n      swap1\n      swap2\n      swap1\n      swap2\n      swap1\n      swap2\n      pop\n      0x00\n      dup3\n      add\n      mload\n      dup2\n      0x00\n      add\n      sstore\n      0x20\n      dup3\n      add\n      mload\n      dup2\n      0x01\n      add\n      swap1\n      dup2\n      tag_43\n      swap2\n      swap1\n      tag_44\n      jump\t// in\n    tag_43:\n      pop\n      0x40\n      dup3\n      add\n      mload\n      dup2\n      0x02\n      add\n      swap1\n      dup2\n      tag_45\n      swap2\n      swap1\n      tag_44\n      jump\t// in\n    tag_45:\n      pop\n      0x60\n      dup3\n      add\n      mload\n      dup2\n      0x03\n      add\n      swap1\n      dup1\n      mload\n      swap1\n      0x20\n      add\n      swap1\n      tag_46\n      swap3\n      swap2\n      swap1\n      tag_47\n      jump\t// in\n    tag_46:\n      pop\n      pop\n      pop\n        /* \"AddressBook.sol\":1425:1426  1 */\n      0x01\n        /* \"AddressBook.sol\":1407:1415  contacts */\n      0x02\n        /* \"AddressBook.sol\":1407:1422  contacts.length */\n      dup1\n      sload\n      swap1\n      pop\n        /* \"AddressBook.sol\":1407:1426  contacts.length - 1 */\n      tag_48\n      swap2\n      swap1\n      tag_49\n      jump\t// in\n    tag_48:\n        /* \"AddressBook.sol\":1387:1396  idToIndex */\n      0x03\n        /* \"AddressBook.sol\":1387:1404  idToIndex[nextId] */\n      0x00\n        /* \"AddressBook.sol\":1397:1403  nextId */\n      sload(0x04)\n        /* \"AddressBook.sol\":1387:1404  idToIndex[nextId] */\n      dup2\n      mstore\n      0x20\n      add\n      swap1\n      dup2\n      mstore\n      0x20\n      add\n      0x00\n      keccak256\n        /* \"AddressBook.sol\":1387:1426  idToIndex[nextId] = contacts.length - 1 */\n      dup2\n      swap1\n      sstore\n      pop\n        /* \"AddressBook.sol\":1491:1497  nextId */\n      0x04\n      0x00\n        /* \"AddressBook.sol\":1491:1499  nextId++ */\n      dup2\n      sload\n      dup1\n      swap3\n      swap2\n      swap1\n      tag_50\n      swap1\n      tag_51\n      jump\t// in\n    tag_50:\n      swap2\n      swap1\n      pop\n      sstore\n      pop\n        /* \"AddressBook.sol\":1018:1507  function addContact(string calldata firstName, string calldata lastName, uint[] calldata phoneNumbers) external onlyOwner {... */\n      pop\n      pop\n      pop\n      pop\n      pop\n      pop\n      jump\t// out\n        /* \"@openzeppelin/contracts/access/Ownable.sol\":2293:2394  function renounceOwnership() public virtual onlyOwner {... */\n    tag_16:\n        /* \"@openzeppelin/contracts/access/Ownable.sol\":1531:1544  _checkOwner() */\n      tag_53\n        /* \"@openzeppelin/contracts/access/Ownable.sol\":1531:1542  _checkOwner */\n      tag_40\n        /* \"@openzeppelin/contracts/access/Ownable.sol\":1531:1544  _checkOwner() */\n      jump\t// in\n    tag_53:\n        /* \"@openzeppelin/contracts/access/Ownable.sol\":2357:2387  _transferOwnership(address(0)) */\n      tag_55\n        /* \"@openzeppelin/contracts/access/Ownable.sol\":2384:2385  0 */\n      0x00\n        /* \"@openzeppelin/contracts/access/Ownable.sol\":2357:2375  _transferOwnership */\n      tag_56\n        /* \"@openzeppelin/contracts/access/Ownable.sol\":2357:2387  _transferOwnership(address(0)) */\n      jump\t// in\n    tag_55:\n        /* \"@openzeppelin/contracts/access/Ownable.sol\":2293:2394  function renounceOwnership() public virtual onlyOwner {... */\n      jump\t// out\n        /* \"@openzeppelin/contracts/access/Ownable.sol\":1638:1723  function owner() public view virtual returns (address) {... */\n    tag_18:\n        /* \"@openzeppelin/contracts/access/Ownable.sol\":1684:1691  address */\n      0x00\n        /* \"@openzeppelin/contracts/access/Ownable.sol\":1710:1716  _owner */\n      dup1\n      0x00\n      swap1\n      sload\n      swap1\n      0x0100\n      exp\n      swap1\n      div\n      0xffffffffffffffffffffffffffffffffffffffff\n      and\n        /* \"@openzeppelin/contracts/access/Ownable.sol\":1703:1716  return _owner */\n      swap1\n      pop\n        /* \"@openzeppelin/contracts/access/Ownable.sol\":1638:1723  function owner() public view virtual returns (address) {... */\n      swap1\n      jump\t// out\n        /* \"AddressBook.sol\":1562:2314  function deleteContact(uint id) external onlyOwner {... */\n    tag_24:\n        /* \"@openzeppelin/contracts/access/Ownable.sol\":1531:1544  _checkOwner() */\n      tag_59\n        /* \"@openzeppelin/contracts/access/Ownable.sol\":1531:1542  _checkOwner */\n      tag_40\n        /* \"@openzeppelin/contracts/access/Ownable.sol\":1531:1544  _checkOwner() */\n      jump\t// in\n    tag_59:\n        /* \"AddressBook.sol\":1679:1689  uint index */\n      0x00\n        /* \"AddressBook.sol\":1692:1701  idToIndex */\n      0x03\n        /* \"AddressBook.sol\":1692:1705  idToIndex[id] */\n      0x00\n        /* \"AddressBook.sol\":1702:1704  id */\n      dup4\n        /* \"AddressBook.sol\":1692:1705  idToIndex[id] */\n      dup2\n      mstore\n      0x20\n      add\n      swap1\n      dup2\n      mstore\n      0x20\n      add\n      0x00\n      keccak256\n      sload\n        /* \"AddressBook.sol\":1679:1705  uint index = idToIndex[id] */\n      swap1\n      pop\n        /* \"AddressBook.sol\":1816:1824  contacts */\n      0x02\n        /* \"AddressBook.sol\":1816:1831  contacts.length */\n      dup1\n      sload\n      swap1\n      pop\n        /* \"AddressBook.sol\":1807:1812  index */\n      dup2\n        /* \"AddressBook.sol\":1807:1831  index >= contacts.length */\n      lt\n      iszero\n        /* \"AddressBook.sol\":1807:1859  index >= contacts.length || contacts[index].id != id */\n      dup1\n      tag_61\n      jumpi\n      pop\n        /* \"AddressBook.sol\":1857:1859  id */\n      dup2\n        /* \"AddressBook.sol\":1835:1843  contacts */\n      0x02\n        /* \"AddressBook.sol\":1844:1849  index */\n      dup3\n        /* \"AddressBook.sol\":1835:1850  contacts[index] */\n      dup2\n      sload\n      dup2\n      lt\n      tag_62\n      jumpi\n      tag_63\n      tag_64\n      jump\t// in\n    tag_63:\n    tag_62:\n      swap1\n      0x00\n      mstore\n      keccak256(0x00, 0x20)\n      swap1\n      0x04\n      mul\n      add\n        /* \"AddressBook.sol\":1835:1853  contacts[index].id */\n      0x00\n      add\n      sload\n        /* \"AddressBook.sol\":1835:1859  contacts[index].id != id */\n      eq\n      iszero\n        /* \"AddressBook.sol\":1807:1859  index >= contacts.length || contacts[index].id != id */\n    tag_61:\n        /* \"AddressBook.sol\":1803:1887  if (index >= contacts.length || contacts[index].id != id) revert ContactNotFound(id) */\n      iszero\n      tag_66\n      jumpi\n        /* \"AddressBook.sol\":1884:1886  id */\n      dup2\n        /* \"AddressBook.sol\":1868:1887  ContactNotFound(id) */\n      mload(0x40)\n      0xf55dec0000000000000000000000000000000000000000000000000000000000\n      dup2\n      mstore\n      0x04\n      add\n      tag_67\n      swap2\n      swap1\n      tag_68\n      jump\t// in\n    tag_67:\n      mload(0x40)\n      dup1\n      swap2\n      sub\n      swap1\n      revert\n        /* \"AddressBook.sol\":1803:1887  if (index >= contacts.length || contacts[index].id != id) revert ContactNotFound(id) */\n    tag_66:\n        /* \"AddressBook.sol\":1999:2007  contacts */\n      0x02\n        /* \"AddressBook.sol\":2026:2027  1 */\n      0x01\n        /* \"AddressBook.sol\":2008:2016  contacts */\n      0x02\n        /* \"AddressBook.sol\":2008:2023  contacts.length */\n      dup1\n      sload\n      swap1\n      pop\n        /* \"AddressBook.sol\":2008:2027  contacts.length - 1 */\n      tag_69\n      swap2\n      swap1\n      tag_49\n      jump\t// in\n    tag_69:\n        /* \"AddressBook.sol\":1999:2028  contacts[contacts.length - 1] */\n      dup2\n      sload\n      dup2\n      lt\n      tag_70\n      jumpi\n      tag_71\n      tag_64\n      jump\t// in\n    tag_71:\n    tag_70:\n      swap1\n      0x00\n      mstore\n      keccak256(0x00, 0x20)\n      swap1\n      0x04\n      mul\n      add\n        /* \"AddressBook.sol\":1981:1989  contacts */\n      0x02\n        /* \"AddressBook.sol\":1990:1995  index */\n      dup3\n        /* \"AddressBook.sol\":1981:1996  contacts[index] */\n      dup2\n      sload\n      dup2\n      lt\n      tag_73\n      jumpi\n      tag_74\n      tag_64\n      jump\t// in\n    tag_74:\n    tag_73:\n      swap1\n      0x00\n      mstore\n      keccak256(0x00, 0x20)\n      swap1\n      0x04\n      mul\n      add\n        /* \"AddressBook.sol\":1981:2028  contacts[index] = contacts[contacts.length - 1] */\n      0x00\n      dup3\n      add\n      sload\n      dup2\n      0x00\n      add\n      sstore\n      0x01\n      dup3\n      add\n      dup2\n      0x01\n      add\n      swap1\n      dup2\n      tag_76\n      swap2\n      swap1\n      tag_77\n      jump\t// in\n    tag_76:\n      pop\n      0x02\n      dup3\n      add\n      dup2\n      0x02\n      add\n      swap1\n      dup2\n      tag_78\n      swap2\n      swap1\n      tag_77\n      jump\t// in\n    tag_78:\n      pop\n      0x03\n      dup3\n      add\n      dup2\n      0x03\n      add\n      swap1\n      dup1\n      sload\n      tag_79\n      swap3\n      swap2\n      swap1\n      tag_80\n      jump\t// in\n    tag_79:\n      pop\n      swap1\n      pop\n      pop\n        /* \"AddressBook.sol\":2130:2135  index */\n      dup1\n        /* \"AddressBook.sol\":2098:2107  idToIndex */\n      0x03\n        /* \"AddressBook.sol\":2098:2127  idToIndex[contacts[index].id] */\n      0x00\n        /* \"AddressBook.sol\":2108:2116  contacts */\n      0x02\n        /* \"AddressBook.sol\":2117:2122  index */\n      dup5\n        /* \"AddressBook.sol\":2108:2123  contacts[index] */\n      dup2\n      sload\n      dup2\n      lt\n      tag_81\n      jumpi\n      tag_82\n      tag_64\n      jump\t// in\n    tag_82:\n    tag_81:\n      swap1\n      0x00\n      mstore\n      keccak256(0x00, 0x20)\n      swap1\n      0x04\n      mul\n      add\n        /* \"AddressBook.sol\":2108:2126  contacts[index].id */\n      0x00\n      add\n      sload\n        /* \"AddressBook.sol\":2098:2127  idToIndex[contacts[index].id] */\n      dup2\n      mstore\n      0x20\n      add\n      swap1\n      dup2\n      mstore\n      0x20\n      add\n      0x00\n      keccak256\n        /* \"AddressBook.sol\":2098:2135  idToIndex[contacts[index].id] = index */\n      dup2\n      swap1\n      sstore\n      pop\n        /* \"AddressBook.sol\":2197:2205  contacts */\n      0x02\n        /* \"AddressBook.sol\":2197:2211  contacts.pop() */\n      dup1\n      sload\n      dup1\n      tag_84\n      jumpi\n      tag_85\n      tag_86\n      jump\t// in\n    tag_85:\n    tag_84:\n      0x01\n      swap1\n      sub\n      dup2\n      dup2\n      swap1\n      0x00\n      mstore\n      keccak256(0x00, 0x20)\n      swap1\n      0x04\n      mul\n      add\n      0x00\n      dup1\n      dup3\n      add\n      0x00\n      swap1\n      sstore\n      0x01\n      dup3\n      add\n      0x00\n      tag_88\n      swap2\n      swap1\n      tag_89\n      jump\t// in\n    tag_88:\n      0x02\n      dup3\n      add\n      0x00\n      tag_90\n      swap2\n      swap1\n      tag_89\n      jump\t// in\n    tag_90:\n      0x03\n      dup3\n      add\n      0x00\n      tag_91\n      swap2\n      swap1\n      tag_92\n      jump\t// in\n    tag_91:\n      pop\n      pop\n      swap1\n      sstore\n        /* \"AddressBook.sol\":2293:2302  idToIndex */\n      0x03\n        /* \"AddressBook.sol\":2293:2306  idToIndex[id] */\n      0x00\n        /* \"AddressBook.sol\":2303:2305  id */\n      dup4\n        /* \"AddressBook.sol\":2293:2306  idToIndex[id] */\n      dup2\n      mstore\n      0x20\n      add\n      swap1\n      dup2\n      mstore\n      0x20\n      add\n      0x00\n      keccak256\n        /* \"AddressBook.sol\":2286:2306  delete idToIndex[id] */\n      0x00\n      swap1\n      sstore\n        /* \"AddressBook.sol\":1613:2314  {... */\n      pop\n        /* \"AddressBook.sol\":1562:2314  function deleteContact(uint id) external onlyOwner {... */\n      pop\n      jump\t// out\n        /* \"AddressBook.sol\":2371:2779  function getContact(uint id) external view returns (Contact memory) {... */\n    tag_27:\n        /* \"AddressBook.sol\":2423:2437  Contact memory */\n      tag_93\n      tag_94\n      jump\t// in\n    tag_93:\n        /* \"AddressBook.sol\":2491:2501  uint index */\n      0x00\n        /* \"AddressBook.sol\":2504:2513  idToIndex */\n      0x03\n        /* \"AddressBook.sol\":2504:2517  idToIndex[id] */\n      0x00\n        /* \"AddressBook.sol\":2514:2516  id */\n      dup5\n        /* \"AddressBook.sol\":2504:2517  idToIndex[id] */\n      dup2\n      mstore\n      0x20\n      add\n      swap1\n      dup2\n      mstore\n      0x20\n      add\n      0x00\n      keccak256\n      sload\n        /* \"AddressBook.sol\":2491:2517  uint index = idToIndex[id] */\n      swap1\n      pop\n        /* \"AddressBook.sol\":2628:2636  contacts */\n      0x02\n        /* \"AddressBook.sol\":2628:2643  contacts.length */\n      dup1\n      sload\n      swap1\n      pop\n        /* \"AddressBook.sol\":2619:2624  index */\n      dup2\n        /* \"AddressBook.sol\":2619:2643  index >= contacts.length */\n      lt\n      iszero\n        /* \"AddressBook.sol\":2619:2671  index >= contacts.length || contacts[index].id != id */\n      dup1\n      tag_96\n      jumpi\n      pop\n        /* \"AddressBook.sol\":2669:2671  id */\n      dup3\n        /* \"AddressBook.sol\":2647:2655  contacts */\n      0x02\n        /* \"AddressBook.sol\":2656:2661  index */\n      dup3\n        /* \"AddressBook.sol\":2647:2662  contacts[index] */\n      dup2\n      sload\n      dup2\n      lt\n      tag_97\n      jumpi\n      tag_98\n      tag_64\n      jump\t// in\n    tag_98:\n    tag_97:\n      swap1\n      0x00\n      mstore\n      keccak256(0x00, 0x20)\n      swap1\n      0x04\n      mul\n      add\n        /* \"AddressBook.sol\":2647:2665  contacts[index].id */\n      0x00\n      add\n      sload\n        /* \"AddressBook.sol\":2647:2671  contacts[index].id != id */\n      eq\n      iszero\n        /* \"AddressBook.sol\":2619:2671  index >= contacts.length || contacts[index].id != id */\n    tag_96:\n        /* \"AddressBook.sol\":2615:2699  if (index >= contacts.length || contacts[index].id != id) revert ContactNotFound(id) */\n      iszero\n      tag_100\n      jumpi\n        /* \"AddressBook.sol\":2696:2698  id */\n      dup3\n        /* \"AddressBook.sol\":2680:2699  ContactNotFound(id) */\n      mload(0x40)\n      0xf55dec0000000000000000000000000000000000000000000000000000000000\n      dup2\n      mstore\n      0x04\n      add\n      tag_101\n      swap2\n      swap1\n      tag_68\n      jump\t// in\n    tag_101:\n      mload(0x40)\n      dup1\n      swap2\n      sub\n      swap1\n      revert\n        /* \"AddressBook.sol\":2615:2699  if (index >= contacts.length || contacts[index].id != id) revert ContactNotFound(id) */\n    tag_100:\n        /* \"AddressBook.sol\":2756:2764  contacts */\n      0x02\n        /* \"AddressBook.sol\":2765:2770  index */\n      dup2\n        /* \"AddressBook.sol\":2756:2771  contacts[index] */\n      dup2\n      sload\n      dup2\n      lt\n      tag_102\n      jumpi\n      tag_103\n      tag_64\n      jump\t// in\n    tag_103:\n    tag_102:\n      swap1\n      0x00\n      mstore\n      keccak256(0x00, 0x20)\n      swap1\n      0x04\n      mul\n      add\n        /* \"AddressBook.sol\":2749:2771  return contacts[index] */\n      mload(0x40)\n      dup1\n      0x80\n      add\n      0x40\n      mstore\n      swap1\n      dup2\n      0x00\n      dup3\n      add\n      sload\n      dup2\n      mstore\n      0x20\n      add\n      0x01\n      dup3\n      add\n      dup1\n      sload\n      tag_105\n      swap1\n      tag_106\n      jump\t// in\n    tag_105:\n      dup1\n      0x1f\n      add\n      0x20\n      dup1\n      swap2\n      div\n      mul\n      0x20\n      add\n      mload(0x40)\n      swap1\n      dup2\n      add\n      0x40\n      mstore\n      dup1\n      swap3\n      swap2\n      swap1\n      dup2\n      dup2\n      mstore\n      0x20\n      add\n      dup3\n      dup1\n      sload\n      tag_107\n      swap1\n      tag_106\n      jump\t// in\n    tag_107:\n      dup1\n      iszero\n      tag_108\n      jumpi\n      dup1\n      0x1f\n      lt\n      tag_109\n      jumpi\n      0x0100\n      dup1\n      dup4\n      sload\n      div\n      mul\n      dup4\n      mstore\n      swap2\n      0x20\n      add\n      swap2\n      jump(tag_108)\n    tag_109:\n      dup3\n      add\n      swap2\n      swap1\n      0x00\n      mstore\n      keccak256(0x00, 0x20)\n      swap1\n    tag_110:\n      dup2\n      sload\n      dup2\n      mstore\n      swap1\n      0x01\n      add\n      swap1\n      0x20\n      add\n      dup1\n      dup4\n      gt\n      tag_110\n      jumpi\n      dup3\n      swap1\n      sub\n      0x1f\n      and\n      dup3\n      add\n      swap2\n    tag_108:\n      pop\n      pop\n      pop\n      pop\n      pop\n      dup2\n      mstore\n      0x20\n      add\n      0x02\n      dup3\n      add\n      dup1\n      sload\n      tag_111\n      swap1\n      tag_106\n      jump\t// in\n    tag_111:\n      dup1\n      0x1f\n      add\n      0x20\n      dup1\n      swap2\n      div\n      mul\n      0x20\n      add\n      mload(0x40)\n      swap1\n      dup2\n      add\n      0x40\n      mstore\n      dup1\n      swap3\n      swap2\n      swap1\n      dup2\n      dup2\n      mstore\n      0x20\n      add\n      dup3\n      dup1\n      sload\n      tag_112\n      swap1\n      tag_106\n      jump\t// in\n    tag_112:\n      dup1\n      iszero\n      tag_113\n      jumpi\n      dup1\n      0x1f\n      lt\n      tag_114\n      jumpi\n      0x0100\n      dup1\n      dup4\n      sload\n      div\n      mul\n      dup4\n      mstore\n      swap2\n      0x20\n      add\n      swap2\n      jump(tag_113)\n    tag_114:\n      dup3\n      add\n      swap2\n      swap1\n      0x00\n      mstore\n      keccak256(0x00, 0x20)\n      swap1\n    tag_115:\n      dup2\n      sload\n      dup2\n      mstore\n      swap1\n      0x01\n      add\n      swap1\n      0x20\n      add\n      dup1\n      dup4\n      gt\n      tag_115\n      jumpi\n      dup3\n      swap1\n      sub\n      0x1f\n      and\n      dup3\n      add\n      swap2\n    tag_113:\n      pop\n      pop\n      pop\n      pop\n      pop\n      dup2\n      mstore\n      0x20\n      add\n      0x03\n      dup3\n      add\n      dup1\n      sload\n      dup1\n      0x20\n      mul\n      0x20\n      add\n      mload(0x40)\n      swap1\n      dup2\n      add\n      0x40\n      mstore\n      dup1\n      swap3\n      swap2\n      swap1\n      dup2\n      dup2\n      mstore\n      0x20\n      add\n      dup3\n      dup1\n      sload\n      dup1\n      iszero\n      tag_116\n      jumpi\n      0x20\n      mul\n      dup3\n      add\n      swap2\n      swap1\n      0x00\n      mstore\n      keccak256(0x00, 0x20)\n      swap1\n    tag_117:\n      dup2\n      sload\n      dup2\n      mstore\n      0x20\n      add\n      swap1\n      0x01\n      add\n      swap1\n      dup1\n      dup4\n      gt\n      tag_117\n      jumpi\n    tag_116:\n      pop\n      pop\n      pop\n      pop\n      pop\n      dup2\n      mstore\n      pop\n      pop\n      swap2\n      pop\n      pop\n        /* \"AddressBook.sol\":2371:2779  function getContact(uint id) external view returns (Contact memory) {... */\n      swap2\n      swap1\n      pop\n      jump\t// out\n        /* \"AddressBook.sol\":2829:2975  function getAllContacts() external view returns (Contact[] memory) {... */\n    tag_31:\n        /* \"AddressBook.sol\":2878:2894  Contact[] memory */\n      0x60\n        /* \"AddressBook.sol\":2959:2967  contacts */\n      0x02\n        /* \"AddressBook.sol\":2952:2967  return contacts */\n      dup1\n      sload\n      dup1\n      0x20\n      mul\n      0x20\n      add\n      mload(0x40)\n      swap1\n      dup2\n      add\n      0x40\n      mstore\n      dup1\n      swap3\n      swap2\n      swap1\n      dup2\n      dup2\n      mstore\n      0x20\n      add\n      0x00\n      swap1\n    tag_119:\n      dup3\n      dup3\n      lt\n      iszero\n      tag_120\n      jumpi\n      dup4\n      dup3\n      swap1\n      0x00\n      mstore\n      keccak256(0x00, 0x20)\n      swap1\n      0x04\n      mul\n      add\n      mload(0x40)\n      dup1\n      0x80\n      add\n      0x40\n      mstore\n      swap1\n      dup2\n      0x00\n      dup3\n      add\n      sload\n      dup2\n      mstore\n      0x20\n      add\n      0x01\n      dup3\n      add\n      dup1\n      sload\n      tag_122\n      swap1\n      tag_106\n      jump\t// in\n    tag_122:\n      dup1\n      0x1f\n      add\n      0x20\n      dup1\n      swap2\n      div\n      mul\n      0x20\n      add\n      mload(0x40)\n      swap1\n      dup2\n      add\n      0x40\n      mstore\n      dup1\n      swap3\n      swap2\n      swap1\n      dup2\n      dup2\n      mstore\n      0x20\n      add\n      dup3\n      dup1\n      sload\n      tag_123\n      swap1\n      tag_106\n      jump\t// in\n    tag_123:\n      dup1\n      iszero\n      tag_124\n      jumpi\n      dup1\n      0x1f\n      lt\n      tag_125\n      jumpi\n      0x0100\n      dup1\n      dup4\n      sload\n      div\n      mul\n      dup4\n      mstore\n      swap2\n      0x20\n      add\n      swap2\n      jump(tag_124)\n    tag_125:\n      dup3\n      add\n      swap2\n      swap1\n      0x00\n      mstore\n      keccak256(0x00, 0x20)\n      swap1\n    tag_126:\n      dup2\n      sload\n      dup2\n      mstore\n      swap1\n      0x01\n      add\n      swap1\n      0x20\n      add\n      dup1\n      dup4\n      gt\n      tag_126\n      jumpi\n      dup3\n      swap1\n      sub\n      0x1f\n      and\n      dup3\n      add\n      swap2\n    tag_124:\n      pop\n      pop\n      pop\n      pop\n      pop\n      dup2\n      mstore\n      0x20\n      add\n      0x02\n      dup3\n      add\n      dup1\n      sload\n      tag_127\n      swap1\n      tag_106\n      jump\t// in\n    tag_127:\n      dup1\n      0x1f\n      add\n      0x20\n      dup1\n      swap2\n      div\n      mul\n      0x20\n      add\n      mload(0x40)\n      swap1\n      dup2\n      add\n      0x40\n      mstore\n      dup1\n      swap3\n      swap2\n      swap1\n      dup2\n      dup2\n      mstore\n      0x20\n      add\n      dup3\n      dup1\n      sload\n      tag_128\n      swap1\n      tag_106\n      jump\t// in\n    tag_128:\n      dup1\n      iszero\n      tag_129\n      jumpi\n      dup1\n      0x1f\n      lt\n      tag_130\n      jumpi\n      0x0100\n      dup1\n      dup4\n      sload\n      div\n      mul\n      dup4\n      mstore\n      swap2\n      0x20\n      add\n      swap2\n      jump(tag_129)\n    tag_130:\n      dup3\n      add\n      swap2\n      swap1\n      0x00\n      mstore\n      keccak256(0x00, 0x20)\n      swap1\n    tag_131:\n      dup2\n      sload\n      dup2\n      mstore\n      swap1\n      0x01\n      add\n      swap1\n      0x20\n      add\n      dup1\n      dup4\n      gt\n      tag_131\n      jumpi\n      dup3\n      swap1\n      sub\n      0x1f\n      and\n      dup3\n      add\n      swap2\n    tag_129:\n      pop\n      pop\n      pop\n      pop\n      pop\n      dup2\n      mstore\n      0x20\n      add\n      0x03\n      dup3\n      add\n      dup1\n      sload\n      dup1\n      0x20\n      mul\n      0x20\n      add\n      mload(0x40)\n      swap1\n      dup2\n      add\n      0x40\n      mstore\n      dup1\n      swap3\n      swap2\n      swap1\n      dup2\n      dup2\n      mstore\n      0x20\n      add\n      dup3\n      dup1\n      sload\n      dup1\n      iszero\n      tag_132\n      jumpi\n      0x20\n      mul\n      dup3\n      add\n      swap2\n      swap1\n      0x00\n      mstore\n      keccak256(0x00, 0x20)\n      swap1\n    tag_133:\n      dup2\n      sload\n      dup2\n      mstore\n      0x20\n      add\n      swap1\n      0x01\n      add\n      swap1\n      dup1\n      dup4\n      gt\n      tag_133\n      jumpi\n    tag_132:\n      pop\n      pop\n      pop\n      pop\n      pop\n      dup2\n      mstore\n      pop\n      pop\n      dup2\n      mstore\n      0x20\n      add\n      swap1\n      0x01\n      add\n      swap1\n      jump(tag_119)\n    tag_120:\n      pop\n      pop\n      pop\n      pop\n      swap1\n      pop\n        /* \"AddressBook.sol\":2829:2975  function getAllContacts() external view returns (Contact[] memory) {... */\n      swap1\n      jump\t// out\n        /* \"@openzeppelin/contracts/access/Ownable.sol\":2543:2758  function transferOwnership(address newOwner) public virtual onlyOwner {... */\n    tag_37:\n        /* \"@openzeppelin/contracts/access/Ownable.sol\":1531:1544  _checkOwner() */\n      tag_135\n        /* \"@openzeppelin/contracts/access/Ownable.sol\":1531:1542  _checkOwner */\n      tag_40\n        /* \"@openzeppelin/contracts/access/Ownable.sol\":1531:1544  _checkOwner() */\n      jump\t// in\n    tag_135:\n        /* \"@openzeppelin/contracts/access/Ownable.sol\":2647:2648  0 */\n      0x00\n        /* \"@openzeppelin/contracts/access/Ownable.sol\":2627:2649  newOwner == address(0) */\n      0xffffffffffffffffffffffffffffffffffffffff\n      and\n        /* \"@openzeppelin/contracts/access/Ownable.sol\":2627:2635  newOwner */\n      dup2\n        /* \"@openzeppelin/contracts/access/Ownable.sol\":2627:2649  newOwner == address(0) */\n      0xffffffffffffffffffffffffffffffffffffffff\n      and\n      sub\n        /* \"@openzeppelin/contracts/access/Ownable.sol\":2623:2714  if (newOwner == address(0)) {... */\n      tag_137\n      jumpi\n        /* \"@openzeppelin/contracts/access/Ownable.sol\":2700:2701  0 */\n      0x00\n        /* \"@openzeppelin/contracts/access/Ownable.sol\":2672:2703  OwnableInvalidOwner(address(0)) */\n      mload(0x40)\n      0x1e4fbdf700000000000000000000000000000000000000000000000000000000\n      dup2\n      mstore\n      0x04\n      add\n      tag_138\n      swap2\n      swap1\n      tag_20\n      jump\t// in\n    tag_138:\n      mload(0x40)\n      dup1\n      swap2\n      sub\n      swap1\n      revert\n        /* \"@openzeppelin/contracts/access/Ownable.sol\":2623:2714  if (newOwner == address(0)) {... */\n    tag_137:\n        /* \"@openzeppelin/contracts/access/Ownable.sol\":2723:2751  _transferOwnership(newOwner) */\n      tag_139\n        /* \"@openzeppelin/contracts/access/Ownable.sol\":2742:2750  newOwner */\n      dup2\n        /* \"@openzeppelin/contracts/access/Ownable.sol\":2723:2741  _transferOwnership */\n      tag_56\n        /* \"@openzeppelin/contracts/access/Ownable.sol\":2723:2751  _transferOwnership(newOwner) */\n      jump\t// in\n    tag_139:\n        /* \"@openzeppelin/contracts/access/Ownable.sol\":2543:2758  function transferOwnership(address newOwner) public virtual onlyOwner {... */\n      pop\n      jump\t// out\n        /* \"@openzeppelin/contracts/access/Ownable.sol\":1796:1958  function _checkOwner() internal view virtual {... */\n    tag_40:\n        /* \"@openzeppelin/contracts/access/Ownable.sol\":1866:1878  _msgSender() */\n      tag_141\n        /* \"@openzeppelin/contracts/access/Ownable.sol\":1866:1876  _msgSender */\n      tag_142\n        /* \"@openzeppelin/contracts/access/Ownable.sol\":1866:1878  _msgSender() */\n      jump\t// in\n    tag_141:\n        /* \"@openzeppelin/contracts/access/Ownable.sol\":1855:1878  owner() != _msgSender() */\n      0xffffffffffffffffffffffffffffffffffffffff\n      and\n        /* \"@openzeppelin/contracts/access/Ownable.sol\":1855:1862  owner() */\n      tag_143\n        /* \"@openzeppelin/contracts/access/Ownable.sol\":1855:1860  owner */\n      tag_18\n        /* \"@openzeppelin/contracts/access/Ownable.sol\":1855:1862  owner() */\n      jump\t// in\n    tag_143:\n        /* \"@openzeppelin/contracts/access/Ownable.sol\":1855:1878  owner() != _msgSender() */\n      0xffffffffffffffffffffffffffffffffffffffff\n      and\n      eq\n        /* \"@openzeppelin/contracts/access/Ownable.sol\":1851:1952  if (owner() != _msgSender()) {... */\n      tag_144\n      jumpi\n        /* \"@openzeppelin/contracts/access/Ownable.sol\":1928:1940  _msgSender() */\n      tag_145\n        /* \"@openzeppelin/contracts/access/Ownable.sol\":1928:1938  _msgSender */\n      tag_142\n        /* \"@openzeppelin/contracts/access/Ownable.sol\":1928:1940  _msgSender() */\n      jump\t// in\n    tag_145:\n        /* \"@openzeppelin/contracts/access/Ownable.sol\":1901:1941  OwnableUnauthorizedAccount(_msgSender()) */\n      mload(0x40)\n      0x118cdaa700000000000000000000000000000000000000000000000000000000\n      dup2\n      mstore\n      0x04\n      add\n      tag_146\n      swap2\n      swap1\n      tag_20\n      jump\t// in\n    tag_146:\n      mload(0x40)\n      dup1\n      swap2\n      sub\n      swap1\n      revert\n        /* \"@openzeppelin/contracts/access/Ownable.sol\":1851:1952  if (owner() != _msgSender()) {... */\n    tag_144:\n        /* \"@openzeppelin/contracts/access/Ownable.sol\":1796:1958  function _checkOwner() internal view virtual {... */\n      jump\t// out\n        /* \"@openzeppelin/contracts/access/Ownable.sol\":2912:3099  function _transferOwnership(address newOwner) internal virtual {... */\n    tag_56:\n        /* \"@openzeppelin/contracts/access/Ownable.sol\":2985:3001  address oldOwner */\n      0x00\n        /* \"@openzeppelin/contracts/access/Ownable.sol\":3004:3010  _owner */\n      dup1\n      0x00\n      swap1\n      sload\n      swap1\n      0x0100\n      exp\n      swap1\n      div\n      0xffffffffffffffffffffffffffffffffffffffff\n      and\n        /* \"@openzeppelin/contracts/access/Ownable.sol\":2985:3010  address oldOwner = _owner */\n      swap1\n      pop\n        /* \"@openzeppelin/contracts/access/Ownable.sol\":3029:3037  newOwner */\n      dup2\n        /* \"@openzeppelin/contracts/access/Ownable.sol\":3020:3026  _owner */\n      0x00\n      dup1\n        /* \"@openzeppelin/contracts/access/Ownable.sol\":3020:3037  _owner = newOwner */\n      0x0100\n      exp\n      dup2\n      sload\n      dup2\n      0xffffffffffffffffffffffffffffffffffffffff\n      mul\n      not\n      and\n      swap1\n      dup4\n      0xffffffffffffffffffffffffffffffffffffffff\n      and\n      mul\n      or\n      swap1\n      sstore\n      pop\n        /* \"@openzeppelin/contracts/access/Ownable.sol\":3083:3091  newOwner */\n      dup2\n        /* \"@openzeppelin/contracts/access/Ownable.sol\":3052:3092  OwnershipTransferred(oldOwner, newOwner) */\n      0xffffffffffffffffffffffffffffffffffffffff\n      and\n        /* \"@openzeppelin/contracts/access/Ownable.sol\":3073:3081  oldOwner */\n      dup2\n        /* \"@openzeppelin/contracts/access/Ownable.sol\":3052:3092  OwnershipTransferred(oldOwner, newOwner) */\n      0xffffffffffffffffffffffffffffffffffffffff\n      and\n      0x8be0079c531659141344cd1fd0a4f28419497f9722a3daafe3b4186f6b6457e0\n      mload(0x40)\n      mload(0x40)\n      dup1\n      swap2\n      sub\n      swap1\n      log3\n        /* \"@openzeppelin/contracts/access/Ownable.sol\":2975:3099  {... */\n      pop\n        /* \"@openzeppelin/contracts/access/Ownable.sol\":2912:3099  function _transferOwnership(address newOwner) internal virtual {... */\n      pop\n      jump\t// out\n        /* \"@openzeppelin/contracts/utils/Context.sol\":656:752  function _msgSender() internal view virtual returns (address) {... */\n    tag_142:\n        /* \"@openzeppelin/contracts/utils/Context.sol\":709:716  address */\n      0x00\n        /* \"@openzeppelin/contracts/utils/Context.sol\":735:745  msg.sender */\n      caller\n        /* \"@openzeppelin/contracts/utils/Context.sol\":728:745  return msg.sender */\n      swap1\n      pop\n        /* \"@openzeppelin/contracts/utils/Context.sol\":656:752  function _msgSender() internal view virtual returns (address) {... */\n      swap1\n      jump\t// out\n    tag_47:\n      dup3\n      dup1\n      sload\n      dup3\n      dup3\n      sstore\n      swap1\n      0x00\n      mstore\n      keccak256(0x00, 0x20)\n      swap1\n      dup2\n      add\n      swap3\n      dup3\n      iszero\n      tag_149\n      jumpi\n      swap2\n      0x20\n      mul\n      dup3\n      add\n    tag_150:\n      dup3\n      dup2\n      gt\n      iszero\n      tag_151\n      jumpi\n      dup3\n      mload\n      dup3\n      sstore\n      swap2\n      0x20\n      add\n      swap2\n      swap1\n      0x01\n      add\n      swap1\n      jump(tag_150)\n    tag_151:\n    tag_149:\n      pop\n      swap1\n      pop\n      tag_152\n      swap2\n      swap1\n      tag_153\n      jump\t// in\n    tag_152:\n      pop\n      swap1\n      jump\t// out\n    tag_80:\n      dup3\n      dup1\n      sload\n      dup3\n      dup3\n      sstore\n      swap1\n      0x00\n      mstore\n      keccak256(0x00, 0x20)\n      swap1\n      dup2\n      add\n      swap3\n      dup3\n      iszero\n      tag_154\n      jumpi\n      0x00\n      mstore\n      keccak256(0x00, 0x20)\n      swap2\n      dup3\n      add\n    tag_155:\n      dup3\n      dup2\n      gt\n      iszero\n      tag_156\n      jumpi\n      dup3\n      sload\n      dup3\n      sstore\n      swap2\n      0x01\n      add\n      swap2\n      swap1\n      0x01\n      add\n      swap1\n      jump(tag_155)\n    tag_156:\n    tag_154:\n      pop\n      swap1\n      pop\n      tag_157\n      swap2\n      swap1\n      tag_153\n      jump\t// in\n    tag_157:\n      pop\n      swap1\n      jump\t// out\n    tag_89:\n      pop\n      dup1\n      sload\n      tag_158\n      swap1\n      tag_106\n      jump\t// in\n    tag_158:\n      0x00\n      dup3\n      sstore\n      dup1\n      0x1f\n      lt\n      tag_160\n      jumpi\n      pop\n      jump(tag_159)\n    tag_160:\n      0x1f\n      add\n      0x20\n      swap1\n      div\n      swap1\n      0x00\n      mstore\n      keccak256(0x00, 0x20)\n      swap1\n      dup2\n      add\n      swap1\n      tag_161\n      swap2\n      swap1\n      tag_153\n      jump\t// in\n    tag_161:\n    tag_159:\n      pop\n      jump\t// out\n    tag_92:\n      pop\n      dup1\n      sload\n      0x00\n      dup3\n      sstore\n      swap1\n      0x00\n      mstore\n      keccak256(0x00, 0x20)\n      swap1\n      dup2\n      add\n      swap1\n      tag_163\n      swap2\n      swap1\n      tag_153\n      jump\t// in\n    tag_163:\n      pop\n      jump\t// out\n    tag_94:\n      mload(0x40)\n      dup1\n      0x80\n      add\n      0x40\n      mstore\n      dup1\n      0x00\n      dup2\n      mstore\n      0x20\n      add\n      0x60\n      dup2\n      mstore\n      0x20\n      add\n      0x60\n      dup2\n      mstore\n      0x20\n      add\n      0x60\n      dup2\n      mstore\n      pop\n      swap1\n      jump\t// out\n    tag_153:\n    tag_164:\n      dup1\n      dup3\n      gt\n      iszero\n      tag_165\n      jumpi\n      0x00\n      dup2\n      0x00\n      swap1\n      sstore\n      pop\n      0x01\n      add\n      jump(tag_164)\n    tag_165:\n      pop\n      swap1\n      jump\t// out\n        /* \"#utility.yul\":88:205   */\n    tag_167:\n        /* \"#utility.yul\":197:198   */\n      0x00\n        /* \"#utility.yul\":194:195   */\n      dup1\n        /* \"#utility.yul\":187:199   */\n      revert\n        /* \"#utility.yul\":211:328   */\n    tag_168:\n        /* \"#utility.yul\":320:321   */\n      0x00\n        /* \"#utility.yul\":317:318   */\n      dup1\n        /* \"#utility.yul\":310:322   */\n      revert\n        /* \"#utility.yul\":334:451   */\n    tag_169:\n        /* \"#utility.yul\":443:444   */\n      0x00\n        /* \"#utility.yul\":440:441   */\n      dup1\n        /* \"#utility.yul\":433:445   */\n      revert\n        /* \"#utility.yul\":457:574   */\n    tag_170:\n        /* \"#utility.yul\":566:567   */\n      0x00\n        /* \"#utility.yul\":563:564   */\n      dup1\n        /* \"#utility.yul\":556:568   */\n      revert\n        /* \"#utility.yul\":580:697   */\n    tag_171:\n        /* \"#utility.yul\":689:690   */\n      0x00\n        /* \"#utility.yul\":686:687   */\n      dup1\n        /* \"#utility.yul\":679:691   */\n      revert\n        /* \"#utility.yul\":717:1270   */\n    tag_172:\n        /* \"#utility.yul\":775:783   */\n      0x00\n        /* \"#utility.yul\":785:791   */\n      dup1\n        /* \"#utility.yul\":835:838   */\n      dup4\n        /* \"#utility.yul\":828:832   */\n      0x1f\n        /* \"#utility.yul\":820:826   */\n      dup5\n        /* \"#utility.yul\":816:833   */\n      add\n        /* \"#utility.yul\":812:839   */\n      slt\n        /* \"#utility.yul\":802:924   */\n      tag_230\n      jumpi\n        /* \"#utility.yul\":843:922   */\n      tag_231\n      tag_169\n      jump\t// in\n    tag_231:\n        /* \"#utility.yul\":802:924   */\n    tag_230:\n        /* \"#utility.yul\":956:962   */\n      dup3\n        /* \"#utility.yul\":943:963   */\n      calldataload\n        /* \"#utility.yul\":933:963   */\n      swap1\n      pop\n        /* \"#utility.yul\":986:1004   */\n      0xffffffffffffffff\n        /* \"#utility.yul\":978:984   */\n      dup2\n        /* \"#utility.yul\":975:1005   */\n      gt\n        /* \"#utility.yul\":972:1089   */\n      iszero\n      tag_232\n      jumpi\n        /* \"#utility.yul\":1008:1087   */\n      tag_233\n      tag_170\n      jump\t// in\n    tag_233:\n        /* \"#utility.yul\":972:1089   */\n    tag_232:\n        /* \"#utility.yul\":1122:1126   */\n      0x20\n        /* \"#utility.yul\":1114:1120   */\n      dup4\n        /* \"#utility.yul\":1110:1127   */\n      add\n        /* \"#utility.yul\":1098:1127   */\n      swap2\n      pop\n        /* \"#utility.yul\":1176:1179   */\n      dup4\n        /* \"#utility.yul\":1168:1172   */\n      0x01\n        /* \"#utility.yul\":1160:1166   */\n      dup3\n        /* \"#utility.yul\":1156:1173   */\n      mul\n        /* \"#utility.yul\":1146:1154   */\n      dup4\n        /* \"#utility.yul\":1142:1174   */\n      add\n        /* \"#utility.yul\":1139:1180   */\n      gt\n        /* \"#utility.yul\":1136:1264   */\n      iszero\n      tag_234\n      jumpi\n        /* \"#utility.yul\":1183:1262   */\n      tag_235\n      tag_171\n      jump\t// in\n    tag_235:\n        /* \"#utility.yul\":1136:1264   */\n    tag_234:\n        /* \"#utility.yul\":717:1270   */\n      swap3\n      pop\n      swap3\n      swap1\n      pop\n      jump\t// out\n        /* \"#utility.yul\":1293:1861   */\n    tag_173:\n        /* \"#utility.yul\":1366:1374   */\n      0x00\n        /* \"#utility.yul\":1376:1382   */\n      dup1\n        /* \"#utility.yul\":1426:1429   */\n      dup4\n        /* \"#utility.yul\":1419:1423   */\n      0x1f\n        /* \"#utility.yul\":1411:1417   */\n      dup5\n        /* \"#utility.yul\":1407:1424   */\n      add\n        /* \"#utility.yul\":1403:1430   */\n      slt\n        /* \"#utility.yul\":1393:1515   */\n      tag_237\n      jumpi\n        /* \"#utility.yul\":1434:1513   */\n      tag_238\n      tag_169\n      jump\t// in\n    tag_238:\n        /* \"#utility.yul\":1393:1515   */\n    tag_237:\n        /* \"#utility.yul\":1547:1553   */\n      dup3\n        /* \"#utility.yul\":1534:1554   */\n      calldataload\n        /* \"#utility.yul\":1524:1554   */\n      swap1\n      pop\n        /* \"#utility.yul\":1577:1595   */\n      0xffffffffffffffff\n        /* \"#utility.yul\":1569:1575   */\n      dup2\n        /* \"#utility.yul\":1566:1596   */\n      gt\n        /* \"#utility.yul\":1563:1680   */\n      iszero\n      tag_239\n      jumpi\n        /* \"#utility.yul\":1599:1678   */\n      tag_240\n      tag_170\n      jump\t// in\n    tag_240:\n        /* \"#utility.yul\":1563:1680   */\n    tag_239:\n        /* \"#utility.yul\":1713:1717   */\n      0x20\n        /* \"#utility.yul\":1705:1711   */\n      dup4\n        /* \"#utility.yul\":1701:1718   */\n      add\n        /* \"#utility.yul\":1689:1718   */\n      swap2\n      pop\n        /* \"#utility.yul\":1767:1770   */\n      dup4\n        /* \"#utility.yul\":1759:1763   */\n      0x20\n        /* \"#utility.yul\":1751:1757   */\n      dup3\n        /* \"#utility.yul\":1747:1764   */\n      mul\n        /* \"#utility.yul\":1737:1745   */\n      dup4\n        /* \"#utility.yul\":1733:1765   */\n      add\n        /* \"#utility.yul\":1730:1771   */\n      gt\n        /* \"#utility.yul\":1727:1855   */\n      iszero\n      tag_241\n      jumpi\n        /* \"#utility.yul\":1774:1853   */\n      tag_242\n      tag_171\n      jump\t// in\n    tag_242:\n        /* \"#utility.yul\":1727:1855   */\n    tag_241:\n        /* \"#utility.yul\":1293:1861   */\n      swap3\n      pop\n      swap3\n      swap1\n      pop\n      jump\t// out\n        /* \"#utility.yul\":1867:3116   */\n    tag_13:\n        /* \"#utility.yul\":1995:2001   */\n      0x00\n        /* \"#utility.yul\":2003:2009   */\n      dup1\n        /* \"#utility.yul\":2011:2017   */\n      0x00\n        /* \"#utility.yul\":2019:2025   */\n      dup1\n        /* \"#utility.yul\":2027:2033   */\n      0x00\n        /* \"#utility.yul\":2035:2041   */\n      dup1\n        /* \"#utility.yul\":2084:2086   */\n      0x60\n        /* \"#utility.yul\":2072:2081   */\n      dup8\n        /* \"#utility.yul\":2063:2070   */\n      dup10\n        /* \"#utility.yul\":2059:2082   */\n      sub\n        /* \"#utility.yul\":2055:2087   */\n      slt\n        /* \"#utility.yul\":2052:2171   */\n      iszero\n      tag_244\n      jumpi\n        /* \"#utility.yul\":2090:2169   */\n      tag_245\n      tag_167\n      jump\t// in\n    tag_245:\n        /* \"#utility.yul\":2052:2171   */\n    tag_244:\n        /* \"#utility.yul\":2238:2239   */\n      0x00\n        /* \"#utility.yul\":2227:2236   */\n      dup8\n        /* \"#utility.yul\":2223:2240   */\n      add\n        /* \"#utility.yul\":2210:2241   */\n      calldataload\n        /* \"#utility.yul\":2268:2286   */\n      0xffffffffffffffff\n        /* \"#utility.yul\":2260:2266   */\n      dup2\n        /* \"#utility.yul\":2257:2287   */\n      gt\n        /* \"#utility.yul\":2254:2371   */\n      iszero\n      tag_246\n      jumpi\n        /* \"#utility.yul\":2290:2369   */\n      tag_247\n      tag_168\n      jump\t// in\n    tag_247:\n        /* \"#utility.yul\":2254:2371   */\n    tag_246:\n        /* \"#utility.yul\":2403:2468   */\n      tag_248\n        /* \"#utility.yul\":2460:2467   */\n      dup10\n        /* \"#utility.yul\":2451:2457   */\n      dup3\n        /* \"#utility.yul\":2440:2449   */\n      dup11\n        /* \"#utility.yul\":2436:2458   */\n      add\n        /* \"#utility.yul\":2403:2468   */\n      tag_172\n      jump\t// in\n    tag_248:\n        /* \"#utility.yul\":2385:2468   */\n      swap7\n      pop\n      swap7\n      pop\n        /* \"#utility.yul\":2181:2478   */\n      pop\n        /* \"#utility.yul\":2545:2547   */\n      0x20\n        /* \"#utility.yul\":2534:2543   */\n      dup8\n        /* \"#utility.yul\":2530:2548   */\n      add\n        /* \"#utility.yul\":2517:2549   */\n      calldataload\n        /* \"#utility.yul\":2576:2594   */\n      0xffffffffffffffff\n        /* \"#utility.yul\":2568:2574   */\n      dup2\n        /* \"#utility.yul\":2565:2595   */\n      gt\n        /* \"#utility.yul\":2562:2679   */\n      iszero\n      tag_249\n      jumpi\n        /* \"#utility.yul\":2598:2677   */\n      tag_250\n      tag_168\n      jump\t// in\n    tag_250:\n        /* \"#utility.yul\":2562:2679   */\n    tag_249:\n        /* \"#utility.yul\":2711:2776   */\n      tag_251\n        /* \"#utility.yul\":2768:2775   */\n      dup10\n        /* \"#utility.yul\":2759:2765   */\n      dup3\n        /* \"#utility.yul\":2748:2757   */\n      dup11\n        /* \"#utility.yul\":2744:2766   */\n      add\n        /* \"#utility.yul\":2711:2776   */\n      tag_172\n      jump\t// in\n    tag_251:\n        /* \"#utility.yul\":2693:2776   */\n      swap5\n      pop\n      swap5\n      pop\n        /* \"#utility.yul\":2488:2786   */\n      pop\n        /* \"#utility.yul\":2853:2855   */\n      0x40\n        /* \"#utility.yul\":2842:2851   */\n      dup8\n        /* \"#utility.yul\":2838:2856   */\n      add\n        /* \"#utility.yul\":2825:2857   */\n      calldataload\n        /* \"#utility.yul\":2884:2902   */\n      0xffffffffffffffff\n        /* \"#utility.yul\":2876:2882   */\n      dup2\n        /* \"#utility.yul\":2873:2903   */\n      gt\n        /* \"#utility.yul\":2870:2987   */\n      iszero\n      tag_252\n      jumpi\n        /* \"#utility.yul\":2906:2985   */\n      tag_253\n      tag_168\n      jump\t// in\n    tag_253:\n        /* \"#utility.yul\":2870:2987   */\n    tag_252:\n        /* \"#utility.yul\":3019:3099   */\n      tag_254\n        /* \"#utility.yul\":3091:3098   */\n      dup10\n        /* \"#utility.yul\":3082:3088   */\n      dup3\n        /* \"#utility.yul\":3071:3080   */\n      dup11\n        /* \"#utility.yul\":3067:3089   */\n      add\n        /* \"#utility.yul\":3019:3099   */\n      tag_173\n      jump\t// in\n    tag_254:\n        /* \"#utility.yul\":3001:3099   */\n      swap3\n      pop\n      swap3\n      pop\n        /* \"#utility.yul\":2796:3109   */\n      pop\n        /* \"#utility.yul\":1867:3116   */\n      swap3\n      swap6\n      pop\n      swap3\n      swap6\n      pop\n      swap3\n      swap6\n      jump\t// out\n        /* \"#utility.yul\":3122:3248   */\n    tag_174:\n        /* \"#utility.yul\":3159:3166   */\n      0x00\n        /* \"#utility.yul\":3199:3241   */\n      0xffffffffffffffffffffffffffffffffffffffff\n        /* \"#utility.yul\":3192:3197   */\n      dup3\n        /* \"#utility.yul\":3188:3242   */\n      and\n        /* \"#utility.yul\":3177:3242   */\n      swap1\n      pop\n        /* \"#utility.yul\":3122:3248   */\n      swap2\n      swap1\n      pop\n      jump\t// out\n        /* \"#utility.yul\":3254:3350   */\n    tag_175:\n        /* \"#utility.yul\":3291:3298   */\n      0x00\n        /* \"#utility.yul\":3320:3344   */\n      tag_257\n        /* \"#utility.yul\":3338:3343   */\n      dup3\n        /* \"#utility.yul\":3320:3344   */\n      tag_174\n      jump\t// in\n    tag_257:\n        /* \"#utility.yul\":3309:3344   */\n      swap1\n      pop\n        /* \"#utility.yul\":3254:3350   */\n      swap2\n      swap1\n      pop\n      jump\t// out\n        /* \"#utility.yul\":3356:3474   */\n    tag_176:\n        /* \"#utility.yul\":3443:3467   */\n      tag_259\n        /* \"#utility.yul\":3461:3466   */\n      dup2\n        /* \"#utility.yul\":3443:3467   */\n      tag_175\n      jump\t// in\n    tag_259:\n        /* \"#utility.yul\":3438:3441   */\n      dup3\n        /* \"#utility.yul\":3431:3468   */\n      mstore\n        /* \"#utility.yul\":3356:3474   */\n      pop\n      pop\n      jump\t// out\n        /* \"#utility.yul\":3480:3702   */\n    tag_20:\n        /* \"#utility.yul\":3573:3577   */\n      0x00\n        /* \"#utility.yul\":3611:3613   */\n      0x20\n        /* \"#utility.yul\":3600:3609   */\n      dup3\n        /* \"#utility.yul\":3596:3614   */\n      add\n        /* \"#utility.yul\":3588:3614   */\n      swap1\n      pop\n        /* \"#utility.yul\":3624:3695   */\n      tag_261\n        /* \"#utility.yul\":3692:3693   */\n      0x00\n        /* \"#utility.yul\":3681:3690   */\n      dup4\n        /* \"#utility.yul\":3677:3694   */\n      add\n        /* \"#utility.yul\":3668:3674   */\n      dup5\n        /* \"#utility.yul\":3624:3695   */\n      tag_176\n      jump\t// in\n    tag_261:\n        /* \"#utility.yul\":3480:3702   */\n      swap3\n      swap2\n      pop\n      pop\n      jump\t// out\n        /* \"#utility.yul\":3708:3785   */\n    tag_177:\n        /* \"#utility.yul\":3745:3752   */\n      0x00\n        /* \"#utility.yul\":3774:3779   */\n      dup2\n        /* \"#utility.yul\":3763:3779   */\n      swap1\n      pop\n        /* \"#utility.yul\":3708:3785   */\n      swap2\n      swap1\n      pop\n      jump\t// out\n        /* \"#utility.yul\":3791:3913   */\n    tag_178:\n        /* \"#utility.yul\":3864:3888   */\n      tag_264\n        /* \"#utility.yul\":3882:3887   */\n      dup2\n        /* \"#utility.yul\":3864:3888   */\n      tag_177\n      jump\t// in\n    tag_264:\n        /* \"#utility.yul\":3857:3862   */\n      dup2\n        /* \"#utility.yul\":3854:3889   */\n      eq\n        /* \"#utility.yul\":3844:3907   */\n      tag_265\n      jumpi\n        /* \"#utility.yul\":3903:3904   */\n      0x00\n        /* \"#utility.yul\":3900:3901   */\n      dup1\n        /* \"#utility.yul\":3893:3905   */\n      revert\n        /* \"#utility.yul\":3844:3907   */\n    tag_265:\n        /* \"#utility.yul\":3791:3913   */\n      pop\n      jump\t// out\n        /* \"#utility.yul\":3919:4058   */\n    tag_179:\n        /* \"#utility.yul\":3965:3970   */\n      0x00\n        /* \"#utility.yul\":4003:4009   */\n      dup2\n        /* \"#utility.yul\":3990:4010   */\n      calldataload\n        /* \"#utility.yul\":3981:4010   */\n      swap1\n      pop\n        /* \"#utility.yul\":4019:4052   */\n      tag_267\n        /* \"#utility.yul\":4046:4051   */\n      dup2\n        /* \"#utility.yul\":4019:4052   */\n      tag_178\n      jump\t// in\n    tag_267:\n        /* \"#utility.yul\":3919:4058   */\n      swap3\n      swap2\n      pop\n      pop\n      jump\t// out\n        /* \"#utility.yul\":4064:4393   */\n    tag_23:\n        /* \"#utility.yul\":4123:4129   */\n      0x00\n        /* \"#utility.yul\":4172:4174   */\n      0x20\n        /* \"#utility.yul\":4160:4169   */\n      dup3\n        /* \"#utility.yul\":4151:4158   */\n      dup5\n        /* \"#utility.yul\":4147:4170   */\n      sub\n        /* \"#utility.yul\":4143:4175   */\n      slt\n        /* \"#utility.yul\":4140:4259   */\n      iszero\n      tag_269\n      jumpi\n        /* \"#utility.yul\":4178:4257   */\n      tag_270\n      tag_167\n      jump\t// in\n    tag_270:\n        /* \"#utility.yul\":4140:4259   */\n    tag_269:\n        /* \"#utility.yul\":4298:4299   */\n      0x00\n        /* \"#utility.yul\":4323:4376   */\n      tag_271\n        /* \"#utility.yul\":4368:4375   */\n      dup5\n        /* \"#utility.yul\":4359:4365   */\n      dup3\n        /* \"#utility.yul\":4348:4357   */\n      dup6\n        /* \"#utility.yul\":4344:4366   */\n      add\n        /* \"#utility.yul\":4323:4376   */\n      tag_179\n      jump\t// in\n    tag_271:\n        /* \"#utility.yul\":4313:4376   */\n      swap2\n      pop\n        /* \"#utility.yul\":4269:4386   */\n      pop\n        /* \"#utility.yul\":4064:4393   */\n      swap3\n      swap2\n      pop\n      pop\n      jump\t// out\n        /* \"#utility.yul\":4399:4507   */\n    tag_180:\n        /* \"#utility.yul\":4476:4500   */\n      tag_273\n        /* \"#utility.yul\":4494:4499   */\n      dup2\n        /* \"#utility.yul\":4476:4500   */\n      tag_177\n      jump\t// in\n    tag_273:\n        /* \"#utility.yul\":4471:4474   */\n      dup3\n        /* \"#utility.yul\":4464:4501   */\n      mstore\n        /* \"#utility.yul\":4399:4507   */\n      pop\n      pop\n      jump\t// out\n        /* \"#utility.yul\":4513:4612   */\n    tag_181:\n        /* \"#utility.yul\":4565:4571   */\n      0x00\n        /* \"#utility.yul\":4599:4604   */\n      dup2\n        /* \"#utility.yul\":4593:4605   */\n      mload\n        /* \"#utility.yul\":4583:4605   */\n      swap1\n      pop\n        /* \"#utility.yul\":4513:4612   */\n      swap2\n      swap1\n      pop\n      jump\t// out\n        /* \"#utility.yul\":4618:4777   */\n    tag_182:\n        /* \"#utility.yul\":4692:4703   */\n      0x00\n        /* \"#utility.yul\":4726:4732   */\n      dup3\n        /* \"#utility.yul\":4721:4724   */\n      dup3\n        /* \"#utility.yul\":4714:4733   */\n      mstore\n        /* \"#utility.yul\":4766:4770   */\n      0x20\n        /* \"#utility.yul\":4761:4764   */\n      dup3\n        /* \"#utility.yul\":4757:4771   */\n      add\n        /* \"#utility.yul\":4742:4771   */\n      swap1\n      pop\n        /* \"#utility.yul\":4618:4777   */\n      swap3\n      swap2\n      pop\n      pop\n      jump\t// out\n        /* \"#utility.yul\":4783:4922   */\n    tag_183:\n        /* \"#utility.yul\":4872:4878   */\n      dup3\n        /* \"#utility.yul\":4867:4870   */\n      dup2\n        /* \"#utility.yul\":4862:4865   */\n      dup4\n        /* \"#utility.yul\":4856:4879   */\n      mcopy\n        /* \"#utility.yul\":4913:4914   */\n      0x00\n        /* \"#utility.yul\":4904:4910   */\n      dup4\n        /* \"#utility.yul\":4899:4902   */\n      dup4\n        /* \"#utility.yul\":4895:4911   */\n      add\n        /* \"#utility.yul\":4888:4915   */\n      mstore\n        /* \"#utility.yul\":4783:4922   */\n      pop\n      pop\n      pop\n      jump\t// out\n        /* \"#utility.yul\":4928:5030   */\n    tag_184:\n        /* \"#utility.yul\":4969:4975   */\n      0x00\n        /* \"#utility.yul\":5020:5022   */\n      0x1f\n        /* \"#utility.yul\":5016:5023   */\n      not\n        /* \"#utility.yul\":5011:5013   */\n      0x1f\n        /* \"#utility.yul\":5004:5009   */\n      dup4\n        /* \"#utility.yul\":5000:5014   */\n      add\n        /* \"#utility.yul\":4996:5024   */\n      and\n        /* \"#utility.yul\":4986:5024   */\n      swap1\n      pop\n        /* \"#utility.yul\":4928:5030   */\n      swap2\n      swap1\n      pop\n      jump\t// out\n        /* \"#utility.yul\":5036:5393   */\n    tag_185:\n        /* \"#utility.yul\":5114:5117   */\n      0x00\n        /* \"#utility.yul\":5142:5181   */\n      tag_279\n        /* \"#utility.yul\":5175:5180   */\n      dup3\n        /* \"#utility.yul\":5142:5181   */\n      tag_181\n      jump\t// in\n    tag_279:\n        /* \"#utility.yul\":5197:5258   */\n      tag_280\n        /* \"#utility.yul\":5251:5257   */\n      dup2\n        /* \"#utility.yul\":5246:5249   */\n      dup6\n        /* \"#utility.yul\":5197:5258   */\n      tag_182\n      jump\t// in\n    tag_280:\n        /* \"#utility.yul\":5190:5258   */\n      swap4\n      pop\n        /* \"#utility.yul\":5267:5332   */\n      tag_281\n        /* \"#utility.yul\":5325:5331   */\n      dup2\n        /* \"#utility.yul\":5320:5323   */\n      dup6\n        /* \"#utility.yul\":5313:5317   */\n      0x20\n        /* \"#utility.yul\":5306:5311   */\n      dup7\n        /* \"#utility.yul\":5302:5318   */\n      add\n        /* \"#utility.yul\":5267:5332   */\n      tag_183\n      jump\t// in\n    tag_281:\n        /* \"#utility.yul\":5357:5386   */\n      tag_282\n        /* \"#utility.yul\":5379:5385   */\n      dup2\n        /* \"#utility.yul\":5357:5386   */\n      tag_184\n      jump\t// in\n    tag_282:\n        /* \"#utility.yul\":5352:5355   */\n      dup5\n        /* \"#utility.yul\":5348:5387   */\n      add\n        /* \"#utility.yul\":5341:5387   */\n      swap2\n      pop\n        /* \"#utility.yul\":5118:5393   */\n      pop\n        /* \"#utility.yul\":5036:5393   */\n      swap3\n      swap2\n      pop\n      pop\n      jump\t// out\n        /* \"#utility.yul\":5399:5513   */\n    tag_186:\n        /* \"#utility.yul\":5466:5472   */\n      0x00\n        /* \"#utility.yul\":5500:5505   */\n      dup2\n        /* \"#utility.yul\":5494:5506   */\n      mload\n        /* \"#utility.yul\":5484:5506   */\n      swap1\n      pop\n        /* \"#utility.yul\":5399:5513   */\n      swap2\n      swap1\n      pop\n      jump\t// out\n        /* \"#utility.yul\":5519:5693   */\n    tag_187:\n        /* \"#utility.yul\":5608:5619   */\n      0x00\n        /* \"#utility.yul\":5642:5648   */\n      dup3\n        /* \"#utility.yul\":5637:5640   */\n      dup3\n        /* \"#utility.yul\":5630:5649   */\n      mstore\n        /* \"#utility.yul\":5682:5686   */\n      0x20\n        /* \"#utility.yul\":5677:5680   */\n      dup3\n        /* \"#utility.yul\":5673:5687   */\n      add\n        /* \"#utility.yul\":5658:5687   */\n      swap1\n      pop\n        /* \"#utility.yul\":5519:5693   */\n      swap3\n      swap2\n      pop\n      pop\n      jump\t// out\n        /* \"#utility.yul\":5699:5831   */\n    tag_188:\n        /* \"#utility.yul\":5766:5770   */\n      0x00\n        /* \"#utility.yul\":5789:5792   */\n      dup2\n        /* \"#utility.yul\":5781:5792   */\n      swap1\n      pop\n        /* \"#utility.yul\":5819:5823   */\n      0x20\n        /* \"#utility.yul\":5814:5817   */\n      dup3\n        /* \"#utility.yul\":5810:5824   */\n      add\n        /* \"#utility.yul\":5802:5824   */\n      swap1\n      pop\n        /* \"#utility.yul\":5699:5831   */\n      swap2\n      swap1\n      pop\n      jump\t// out\n        /* \"#utility.yul\":5837:6016   */\n    tag_189:\n        /* \"#utility.yul\":5906:5916   */\n      0x00\n        /* \"#utility.yul\":5927:5973   */\n      tag_287\n        /* \"#utility.yul\":5969:5972   */\n      dup4\n        /* \"#utility.yul\":5961:5967   */\n      dup4\n        /* \"#utility.yul\":5927:5973   */\n      tag_180\n      jump\t// in\n    tag_287:\n        /* \"#utility.yul\":6005:6009   */\n      0x20\n        /* \"#utility.yul\":6000:6003   */\n      dup4\n        /* \"#utility.yul\":5996:6010   */\n      add\n        /* \"#utility.yul\":5982:6010   */\n      swap1\n      pop\n        /* \"#utility.yul\":5837:6016   */\n      swap3\n      swap2\n      pop\n      pop\n      jump\t// out\n        /* \"#utility.yul\":6022:6135   */\n    tag_190:\n        /* \"#utility.yul\":6092:6096   */\n      0x00\n        /* \"#utility.yul\":6124:6128   */\n      0x20\n        /* \"#utility.yul\":6119:6122   */\n      dup3\n        /* \"#utility.yul\":6115:6129   */\n      add\n        /* \"#utility.yul\":6107:6129   */\n      swap1\n      pop\n        /* \"#utility.yul\":6022:6135   */\n      swap2\n      swap1\n      pop\n      jump\t// out\n        /* \"#utility.yul\":6171:6883   */\n    tag_191:\n        /* \"#utility.yul\":6280:6283   */\n      0x00\n        /* \"#utility.yul\":6309:6363   */\n      tag_290\n        /* \"#utility.yul\":6357:6362   */\n      dup3\n        /* \"#utility.yul\":6309:6363   */\n      tag_186\n      jump\t// in\n    tag_290:\n        /* \"#utility.yul\":6379:6455   */\n      tag_291\n        /* \"#utility.yul\":6448:6454   */\n      dup2\n        /* \"#utility.yul\":6443:6446   */\n      dup6\n        /* \"#utility.yul\":6379:6455   */\n      tag_187\n      jump\t// in\n    tag_291:\n        /* \"#utility.yul\":6372:6455   */\n      swap4\n      pop\n        /* \"#utility.yul\":6479:6535   */\n      tag_292\n        /* \"#utility.yul\":6529:6534   */\n      dup4\n        /* \"#utility.yul\":6479:6535   */\n      tag_188\n      jump\t// in\n    tag_292:\n        /* \"#utility.yul\":6558:6565   */\n      dup1\n        /* \"#utility.yul\":6589:6590   */\n      0x00\n        /* \"#utility.yul\":6574:6858   */\n    tag_293:\n        /* \"#utility.yul\":6599:6605   */\n      dup4\n        /* \"#utility.yul\":6596:6597   */\n      dup2\n        /* \"#utility.yul\":6593:6606   */\n      lt\n        /* \"#utility.yul\":6574:6858   */\n      iszero\n      tag_295\n      jumpi\n        /* \"#utility.yul\":6675:6681   */\n      dup2\n        /* \"#utility.yul\":6669:6682   */\n      mload\n        /* \"#utility.yul\":6702:6765   */\n      tag_296\n        /* \"#utility.yul\":6761:6764   */\n      dup9\n        /* \"#utility.yul\":6746:6759   */\n      dup3\n        /* \"#utility.yul\":6702:6765   */\n      tag_189\n      jump\t// in\n    tag_296:\n        /* \"#utility.yul\":6695:6765   */\n      swap8\n      pop\n        /* \"#utility.yul\":6788:6848   */\n      tag_297\n        /* \"#utility.yul\":6841:6847   */\n      dup4\n        /* \"#utility.yul\":6788:6848   */\n      tag_190\n      jump\t// in\n    tag_297:\n        /* \"#utility.yul\":6778:6848   */\n      swap3\n      pop\n        /* \"#utility.yul\":6634:6858   */\n      pop\n        /* \"#utility.yul\":6621:6622   */\n      0x01\n        /* \"#utility.yul\":6618:6619   */\n      dup2\n        /* \"#utility.yul\":6614:6623   */\n      add\n        /* \"#utility.yul\":6609:6623   */\n      swap1\n      pop\n        /* \"#utility.yul\":6574:6858   */\n      jump(tag_293)\n    tag_295:\n        /* \"#utility.yul\":6578:6592   */\n      pop\n        /* \"#utility.yul\":6874:6877   */\n      dup6\n        /* \"#utility.yul\":6867:6877   */\n      swap4\n      pop\n        /* \"#utility.yul\":6285:6883   */\n      pop\n      pop\n      pop\n        /* \"#utility.yul\":6171:6883   */\n      swap3\n      swap2\n      pop\n      pop\n      jump\t// out\n        /* \"#utility.yul\":6953:8092   */\n    tag_192:\n        /* \"#utility.yul\":7070:7073   */\n      0x00\n        /* \"#utility.yul\":7106:7110   */\n      0x80\n        /* \"#utility.yul\":7101:7104   */\n      dup4\n        /* \"#utility.yul\":7097:7111   */\n      add\n        /* \"#utility.yul\":7191:7195   */\n      0x00\n        /* \"#utility.yul\":7184:7189   */\n      dup4\n        /* \"#utility.yul\":7180:7196   */\n      add\n        /* \"#utility.yul\":7174:7197   */\n      mload\n        /* \"#utility.yul\":7210:7273   */\n      tag_299\n        /* \"#utility.yul\":7267:7271   */\n      0x00\n        /* \"#utility.yul\":7262:7265   */\n      dup7\n        /* \"#utility.yul\":7258:7272   */\n      add\n        /* \"#utility.yul\":7244:7256   */\n      dup3\n        /* \"#utility.yul\":7210:7273   */\n      tag_180\n      jump\t// in\n    tag_299:\n        /* \"#utility.yul\":7121:7283   */\n      pop\n        /* \"#utility.yul\":7370:7374   */\n      0x20\n        /* \"#utility.yul\":7363:7368   */\n      dup4\n        /* \"#utility.yul\":7359:7375   */\n      add\n        /* \"#utility.yul\":7353:7376   */\n      mload\n        /* \"#utility.yul\":7423:7426   */\n      dup5\n        /* \"#utility.yul\":7417:7421   */\n      dup3\n        /* \"#utility.yul\":7413:7427   */\n      sub\n        /* \"#utility.yul\":7406:7410   */\n      0x20\n        /* \"#utility.yul\":7401:7404   */\n      dup7\n        /* \"#utility.yul\":7397:7411   */\n      add\n        /* \"#utility.yul\":7390:7428   */\n      mstore\n        /* \"#utility.yul\":7449:7522   */\n      tag_300\n        /* \"#utility.yul\":7517:7521   */\n      dup3\n        /* \"#utility.yul\":7503:7515   */\n      dup3\n        /* \"#utility.yul\":7449:7522   */\n      tag_185\n      jump\t// in\n    tag_300:\n        /* \"#utility.yul\":7441:7522   */\n      swap2\n      pop\n        /* \"#utility.yul\":7293:7533   */\n      pop\n        /* \"#utility.yul\":7619:7623   */\n      0x40\n        /* \"#utility.yul\":7612:7617   */\n      dup4\n        /* \"#utility.yul\":7608:7624   */\n      add\n        /* \"#utility.yul\":7602:7625   */\n      mload\n        /* \"#utility.yul\":7672:7675   */\n      dup5\n        /* \"#utility.yul\":7666:7670   */\n      dup3\n        /* \"#utility.yul\":7662:7676   */\n      sub\n        /* \"#utility.yul\":7655:7659   */\n      0x40\n        /* \"#utility.yul\":7650:7653   */\n      dup7\n        /* \"#utility.yul\":7646:7660   */\n      add\n        /* \"#utility.yul\":7639:7677   */\n      mstore\n        /* \"#utility.yul\":7698:7771   */\n      tag_301\n        /* \"#utility.yul\":7766:7770   */\n      dup3\n        /* \"#utility.yul\":7752:7764   */\n      dup3\n        /* \"#utility.yul\":7698:7771   */\n      tag_185\n      jump\t// in\n    tag_301:\n        /* \"#utility.yul\":7690:7771   */\n      swap2\n      pop\n        /* \"#utility.yul\":7543:7782   */\n      pop\n        /* \"#utility.yul\":7872:7876   */\n      0x60\n        /* \"#utility.yul\":7865:7870   */\n      dup4\n        /* \"#utility.yul\":7861:7877   */\n      add\n        /* \"#utility.yul\":7855:7878   */\n      mload\n        /* \"#utility.yul\":7925:7928   */\n      dup5\n        /* \"#utility.yul\":7919:7923   */\n      dup3\n        /* \"#utility.yul\":7915:7929   */\n      sub\n        /* \"#utility.yul\":7908:7912   */\n      0x60\n        /* \"#utility.yul\":7903:7906   */\n      dup7\n        /* \"#utility.yul\":7899:7913   */\n      add\n        /* \"#utility.yul\":7892:7930   */\n      mstore\n        /* \"#utility.yul\":7951:8054   */\n      tag_302\n        /* \"#utility.yul\":8049:8053   */\n      dup3\n        /* \"#utility.yul\":8035:8047   */\n      dup3\n        /* \"#utility.yul\":7951:8054   */\n      tag_191\n      jump\t// in\n    tag_302:\n        /* \"#utility.yul\":7943:8054   */\n      swap2\n      pop\n        /* \"#utility.yul\":7792:8065   */\n      pop\n        /* \"#utility.yul\":8082:8086   */\n      dup1\n        /* \"#utility.yul\":8075:8086   */\n      swap2\n      pop\n        /* \"#utility.yul\":7075:8092   */\n      pop\n        /* \"#utility.yul\":6953:8092   */\n      swap3\n      swap2\n      pop\n      pop\n      jump\t// out\n        /* \"#utility.yul\":8098:8467   */\n    tag_29:\n        /* \"#utility.yul\":8239:8243   */\n      0x00\n        /* \"#utility.yul\":8277:8279   */\n      0x20\n        /* \"#utility.yul\":8266:8275   */\n      dup3\n        /* \"#utility.yul\":8262:8280   */\n      add\n        /* \"#utility.yul\":8254:8280   */\n      swap1\n      pop\n        /* \"#utility.yul\":8326:8335   */\n      dup2\n        /* \"#utility.yul\":8320:8324   */\n      dup2\n        /* \"#utility.yul\":8316:8336   */\n      sub\n        /* \"#utility.yul\":8312:8313   */\n      0x00\n        /* \"#utility.yul\":8301:8310   */\n      dup4\n        /* \"#utility.yul\":8297:8314   */\n      add\n        /* \"#utility.yul\":8290:8337   */\n      mstore\n        /* \"#utility.yul\":8354:8460   */\n      tag_304\n        /* \"#utility.yul\":8455:8459   */\n      dup2\n        /* \"#utility.yul\":8446:8452   */\n      dup5\n        /* \"#utility.yul\":8354:8460   */\n      tag_192\n      jump\t// in\n    tag_304:\n        /* \"#utility.yul\":8346:8460   */\n      swap1\n      pop\n        /* \"#utility.yul\":8098:8467   */\n      swap3\n      swap2\n      pop\n      pop\n      jump\t// out\n        /* \"#utility.yul\":8473:8611   */\n    tag_193:\n        /* \"#utility.yul\":8564:8570   */\n      0x00\n        /* \"#utility.yul\":8598:8603   */\n      dup2\n        /* \"#utility.yul\":8592:8604   */\n      mload\n        /* \"#utility.yul\":8582:8604   */\n      swap1\n      pop\n        /* \"#utility.yul\":8473:8611   */\n      swap2\n      swap1\n      pop\n      jump\t// out\n        /* \"#utility.yul\":8617:8825   */\n    tag_194:\n        /* \"#utility.yul\":8740:8751   */\n      0x00\n        /* \"#utility.yul\":8774:8780   */\n      dup3\n        /* \"#utility.yul\":8769:8772   */\n      dup3\n        /* \"#utility.yul\":8762:8781   */\n      mstore\n        /* \"#utility.yul\":8814:8818   */\n      0x20\n        /* \"#utility.yul\":8809:8812   */\n      dup3\n        /* \"#utility.yul\":8805:8819   */\n      add\n        /* \"#utility.yul\":8790:8819   */\n      swap1\n      pop\n        /* \"#utility.yul\":8617:8825   */\n      swap3\n      swap2\n      pop\n      pop\n      jump\t// out\n        /* \"#utility.yul\":8831:8987   */\n    tag_195:\n        /* \"#utility.yul\":8922:8926   */\n      0x00\n        /* \"#utility.yul\":8945:8948   */\n      dup2\n        /* \"#utility.yul\":8937:8948   */\n      swap1\n      pop\n        /* \"#utility.yul\":8975:8979   */\n      0x20\n        /* \"#utility.yul\":8970:8973   */\n      dup3\n        /* \"#utility.yul\":8966:8980   */\n      add\n        /* \"#utility.yul\":8958:8980   */\n      swap1\n      pop\n        /* \"#utility.yul\":8831:8987   */\n      swap2\n      swap1\n      pop\n      jump\t// out\n        /* \"#utility.yul\":9057:10186   */\n    tag_196:\n        /* \"#utility.yul\":9164:9167   */\n      0x00\n        /* \"#utility.yul\":9200:9204   */\n      0x80\n        /* \"#utility.yul\":9195:9198   */\n      dup4\n        /* \"#utility.yul\":9191:9205   */\n      add\n        /* \"#utility.yul\":9285:9289   */\n      0x00\n        /* \"#utility.yul\":9278:9283   */\n      dup4\n        /* \"#utility.yul\":9274:9290   */\n      add\n        /* \"#utility.yul\":9268:9291   */\n      mload\n        /* \"#utility.yul\":9304:9367   */\n      tag_309\n        /* \"#utility.yul\":9361:9365   */\n      0x00\n        /* \"#utility.yul\":9356:9359   */\n      dup7\n        /* \"#utility.yul\":9352:9366   */\n      add\n        /* \"#utility.yul\":9338:9350   */\n      dup3\n        /* \"#utility.yul\":9304:9367   */\n      tag_180\n      jump\t// in\n    tag_309:\n        /* \"#utility.yul\":9215:9377   */\n      pop\n        /* \"#utility.yul\":9464:9468   */\n      0x20\n        /* \"#utility.yul\":9457:9462   */\n      dup4\n        /* \"#utility.yul\":9453:9469   */\n      add\n        /* \"#utility.yul\":9447:9470   */\n      mload\n        /* \"#utility.yul\":9517:9520   */\n      dup5\n        /* \"#utility.yul\":9511:9515   */\n      dup3\n        /* \"#utility.yul\":9507:9521   */\n      sub\n        /* \"#utility.yul\":9500:9504   */\n      0x20\n        /* \"#utility.yul\":9495:9498   */\n      dup7\n        /* \"#utility.yul\":9491:9505   */\n      add\n        /* \"#utility.yul\":9484:9522   */\n      mstore\n        /* \"#utility.yul\":9543:9616   */\n      tag_310\n        /* \"#utility.yul\":9611:9615   */\n      dup3\n        /* \"#utility.yul\":9597:9609   */\n      dup3\n        /* \"#utility.yul\":9543:9616   */\n      tag_185\n      jump\t// in\n    tag_310:\n        /* \"#utility.yul\":9535:9616   */\n      swap2\n      pop\n        /* \"#utility.yul\":9387:9627   */\n      pop\n        /* \"#utility.yul\":9713:9717   */\n      0x40\n        /* \"#utility.yul\":9706:9711   */\n      dup4\n        /* \"#utility.yul\":9702:9718   */\n      add\n        /* \"#utility.yul\":9696:9719   */\n      mload\n        /* \"#utility.yul\":9766:9769   */\n      dup5\n        /* \"#utility.yul\":9760:9764   */\n      dup3\n        /* \"#utility.yul\":9756:9770   */\n      sub\n        /* \"#utility.yul\":9749:9753   */\n      0x40\n        /* \"#utility.yul\":9744:9747   */\n      dup7\n        /* \"#utility.yul\":9740:9754   */\n      add\n        /* \"#utility.yul\":9733:9771   */\n      mstore\n        /* \"#utility.yul\":9792:9865   */\n      tag_311\n        /* \"#utility.yul\":9860:9864   */\n      dup3\n        /* \"#utility.yul\":9846:9858   */\n      dup3\n        /* \"#utility.yul\":9792:9865   */\n      tag_185\n      jump\t// in\n    tag_311:\n        /* \"#utility.yul\":9784:9865   */\n      swap2\n      pop\n        /* \"#utility.yul\":9637:9876   */\n      pop\n        /* \"#utility.yul\":9966:9970   */\n      0x60\n        /* \"#utility.yul\":9959:9964   */\n      dup4\n        /* \"#utility.yul\":9955:9971   */\n      add\n        /* \"#utility.yul\":9949:9972   */\n      mload\n        /* \"#utility.yul\":10019:10022   */\n      dup5\n        /* \"#utility.yul\":10013:10017   */\n      dup3\n        /* \"#utility.yul\":10009:10023   */\n      sub\n        /* \"#utility.yul\":10002:10006   */\n      0x60\n        /* \"#utility.yul\":9997:10000   */\n      dup7\n        /* \"#utility.yul\":9993:10007   */\n      add\n        /* \"#utility.yul\":9986:10024   */\n      mstore\n        /* \"#utility.yul\":10045:10148   */\n      tag_312\n        /* \"#utility.yul\":10143:10147   */\n      dup3\n        /* \"#utility.yul\":10129:10141   */\n      dup3\n        /* \"#utility.yul\":10045:10148   */\n      tag_191\n      jump\t// in\n    tag_312:\n        /* \"#utility.yul\":10037:10148   */\n      swap2\n      pop\n        /* \"#utility.yul\":9886:10159   */\n      pop\n        /* \"#utility.yul\":10176:10180   */\n      dup1\n        /* \"#utility.yul\":10169:10180   */\n      swap2\n      pop\n        /* \"#utility.yul\":9169:10186   */\n      pop\n        /* \"#utility.yul\":9057:10186   */\n      swap3\n      swap2\n      pop\n      pop\n      jump\t// out\n        /* \"#utility.yul\":10192:10444   */\n    tag_197:\n        /* \"#utility.yul\":10309:10319   */\n      0x00\n        /* \"#utility.yul\":10344:10438   */\n      tag_314\n        /* \"#utility.yul\":10434:10437   */\n      dup4\n        /* \"#utility.yul\":10426:10432   */\n      dup4\n        /* \"#utility.yul\":10344:10438   */\n      tag_196\n      jump\t// in\n    tag_314:\n        /* \"#utility.yul\":10330:10438   */\n      swap1\n      pop\n        /* \"#utility.yul\":10192:10444   */\n      swap3\n      swap2\n      pop\n      pop\n      jump\t// out\n        /* \"#utility.yul\":10450:10587   */\n    tag_198:\n        /* \"#utility.yul\":10544:10548   */\n      0x00\n        /* \"#utility.yul\":10576:10580   */\n      0x20\n        /* \"#utility.yul\":10571:10574   */\n      dup3\n        /* \"#utility.yul\":10567:10581   */\n      add\n        /* \"#utility.yul\":10559:10581   */\n      swap1\n      pop\n        /* \"#utility.yul\":10450:10587   */\n      swap2\n      swap1\n      pop\n      jump\t// out\n        /* \"#utility.yul\":10661:11764   */\n    tag_199:\n        /* \"#utility.yul\":10828:10831   */\n      0x00\n        /* \"#utility.yul\":10857:10935   */\n      tag_317\n        /* \"#utility.yul\":10929:10934   */\n      dup3\n        /* \"#utility.yul\":10857:10935   */\n      tag_193\n      jump\t// in\n    tag_317:\n        /* \"#utility.yul\":10951:11061   */\n      tag_318\n        /* \"#utility.yul\":11054:11060   */\n      dup2\n        /* \"#utility.yul\":11049:11052   */\n      dup6\n        /* \"#utility.yul\":10951:11061   */\n      tag_194\n      jump\t// in\n    tag_318:\n        /* \"#utility.yul\":10944:11061   */\n      swap4\n      pop\n        /* \"#utility.yul\":11087:11090   */\n      dup4\n        /* \"#utility.yul\":11132:11136   */\n      0x20\n        /* \"#utility.yul\":11124:11130   */\n      dup3\n        /* \"#utility.yul\":11120:11137   */\n      mul\n        /* \"#utility.yul\":11115:11118   */\n      dup6\n        /* \"#utility.yul\":11111:11138   */\n      add\n        /* \"#utility.yul\":11162:11242   */\n      tag_319\n        /* \"#utility.yul\":11236:11241   */\n      dup6\n        /* \"#utility.yul\":11162:11242   */\n      tag_195\n      jump\t// in\n    tag_319:\n        /* \"#utility.yul\":11265:11272   */\n      dup1\n        /* \"#utility.yul\":11296:11297   */\n      0x00\n        /* \"#utility.yul\":11281:11719   */\n    tag_320:\n        /* \"#utility.yul\":11306:11312   */\n      dup6\n        /* \"#utility.yul\":11303:11304   */\n      dup2\n        /* \"#utility.yul\":11300:11313   */\n      lt\n        /* \"#utility.yul\":11281:11719   */\n      iszero\n      tag_322\n      jumpi\n        /* \"#utility.yul\":11377:11386   */\n      dup5\n        /* \"#utility.yul\":11371:11375   */\n      dup5\n        /* \"#utility.yul\":11367:11387   */\n      sub\n        /* \"#utility.yul\":11362:11365   */\n      dup10\n        /* \"#utility.yul\":11355:11388   */\n      mstore\n        /* \"#utility.yul\":11428:11434   */\n      dup2\n        /* \"#utility.yul\":11422:11435   */\n      mload\n        /* \"#utility.yul\":11456:11568   */\n      tag_323\n        /* \"#utility.yul\":11563:11567   */\n      dup6\n        /* \"#utility.yul\":11548:11561   */\n      dup3\n        /* \"#utility.yul\":11456:11568   */\n      tag_197\n      jump\t// in\n    tag_323:\n        /* \"#utility.yul\":11448:11568   */\n      swap5\n      pop\n        /* \"#utility.yul\":11591:11675   */\n      tag_324\n        /* \"#utility.yul\":11668:11674   */\n      dup4\n        /* \"#utility.yul\":11591:11675   */\n      tag_198\n      jump\t// in\n    tag_324:\n        /* \"#utility.yul\":11581:11675   */\n      swap3\n      pop\n        /* \"#utility.yul\":11704:11708   */\n      0x20\n        /* \"#utility.yul\":11699:11702   */\n      dup11\n        /* \"#utility.yul\":11695:11709   */\n      add\n        /* \"#utility.yul\":11688:11709   */\n      swap10\n      pop\n        /* \"#utility.yul\":11341:11719   */\n      pop\n        /* \"#utility.yul\":11328:11329   */\n      0x01\n        /* \"#utility.yul\":11325:11326   */\n      dup2\n        /* \"#utility.yul\":11321:11330   */\n      add\n        /* \"#utility.yul\":11316:11330   */\n      swap1\n      pop\n        /* \"#utility.yul\":11281:11719   */\n      jump(tag_320)\n    tag_322:\n        /* \"#utility.yul\":11285:11299   */\n      pop\n        /* \"#utility.yul\":11735:11739   */\n      dup3\n        /* \"#utility.yul\":11728:11739   */\n      swap8\n      pop\n        /* \"#utility.yul\":11755:11758   */\n      dup8\n        /* \"#utility.yul\":11748:11758   */\n      swap6\n      pop\n        /* \"#utility.yul\":10833:11764   */\n      pop\n      pop\n      pop\n      pop\n      pop\n        /* \"#utility.yul\":10661:11764   */\n      swap3\n      swap2\n      pop\n      pop\n      jump\t// out\n        /* \"#utility.yul\":11770:12239   */\n    tag_33:\n        /* \"#utility.yul\":11961:11965   */\n      0x00\n        /* \"#utility.yul\":11999:12001   */\n      0x20\n        /* \"#utility.yul\":11988:11997   */\n      dup3\n        /* \"#utility.yul\":11984:12002   */\n      add\n        /* \"#utility.yul\":11976:12002   */\n      swap1\n      pop\n        /* \"#utility.yul\":12048:12057   */\n      dup2\n        /* \"#utility.yul\":12042:12046   */\n      dup2\n        /* \"#utility.yul\":12038:12058   */\n      sub\n        /* \"#utility.yul\":12034:12035   */\n      0x00\n        /* \"#utility.yul\":12023:12032   */\n      dup4\n        /* \"#utility.yul\":12019:12036   */\n      add\n        /* \"#utility.yul\":12012:12059   */\n      mstore\n        /* \"#utility.yul\":12076:12232   */\n      tag_326\n        /* \"#utility.yul\":12227:12231   */\n      dup2\n        /* \"#utility.yul\":12218:12224   */\n      dup5\n        /* \"#utility.yul\":12076:12232   */\n      tag_199\n      jump\t// in\n    tag_326:\n        /* \"#utility.yul\":12068:12232   */\n      swap1\n      pop\n        /* \"#utility.yul\":11770:12239   */\n      swap3\n      swap2\n      pop\n      pop\n      jump\t// out\n        /* \"#utility.yul\":12245:12367   */\n    tag_200:\n        /* \"#utility.yul\":12318:12342   */\n      tag_328\n        /* \"#utility.yul\":12336:12341   */\n      dup2\n        /* \"#utility.yul\":12318:12342   */\n      tag_175\n      jump\t// in\n    tag_328:\n        /* \"#utility.yul\":12311:12316   */\n      dup2\n        /* \"#utility.yul\":12308:12343   */\n      eq\n        /* \"#utility.yul\":12298:12361   */\n      tag_329\n      jumpi\n        /* \"#utility.yul\":12357:12358   */\n      0x00\n        /* \"#utility.yul\":12354:12355   */\n      dup1\n        /* \"#utility.yul\":12347:12359   */\n      revert\n        /* \"#utility.yul\":12298:12361   */\n    tag_329:\n        /* \"#utility.yul\":12245:12367   */\n      pop\n      jump\t// out\n        /* \"#utility.yul\":12373:12512   */\n    tag_201:\n        /* \"#utility.yul\":12419:12424   */\n      0x00\n        /* \"#utility.yul\":12457:12463   */\n      dup2\n        /* \"#utility.yul\":12444:12464   */\n      calldataload\n        /* \"#utility.yul\":12435:12464   */\n      swap1\n      pop\n        /* \"#utility.yul\":12473:12506   */\n      tag_331\n        /* \"#utility.yul\":12500:12505   */\n      dup2\n        /* \"#utility.yul\":12473:12506   */\n      tag_200\n      jump\t// in\n    tag_331:\n        /* \"#utility.yul\":12373:12512   */\n      swap3\n      swap2\n      pop\n      pop\n      jump\t// out\n        /* \"#utility.yul\":12518:12847   */\n    tag_36:\n        /* \"#utility.yul\":12577:12583   */\n      0x00\n        /* \"#utility.yul\":12626:12628   */\n      0x20\n        /* \"#utility.yul\":12614:12623   */\n      dup3\n        /* \"#utility.yul\":12605:12612   */\n      dup5\n        /* \"#utility.yul\":12601:12624   */\n      sub\n        /* \"#utility.yul\":12597:12629   */\n      slt\n        /* \"#utility.yul\":12594:12713   */\n      iszero\n      tag_333\n      jumpi\n        /* \"#utility.yul\":12632:12711   */\n      tag_334\n      tag_167\n      jump\t// in\n    tag_334:\n        /* \"#utility.yul\":12594:12713   */\n    tag_333:\n        /* \"#utility.yul\":12752:12753   */\n      0x00\n        /* \"#utility.yul\":12777:12830   */\n      tag_335\n        /* \"#utility.yul\":12822:12829   */\n      dup5\n        /* \"#utility.yul\":12813:12819   */\n      dup3\n        /* \"#utility.yul\":12802:12811   */\n      dup6\n        /* \"#utility.yul\":12798:12820   */\n      add\n        /* \"#utility.yul\":12777:12830   */\n      tag_201\n      jump\t// in\n    tag_335:\n        /* \"#utility.yul\":12767:12830   */\n      swap2\n      pop\n        /* \"#utility.yul\":12723:12840   */\n      pop\n        /* \"#utility.yul\":12518:12847   */\n      swap3\n      swap2\n      pop\n      pop\n      jump\t// out\n        /* \"#utility.yul\":12853:13033   */\n    tag_202:\n        /* \"#utility.yul\":12901:12978   */\n      0x4e487b7100000000000000000000000000000000000000000000000000000000\n        /* \"#utility.yul\":12898:12899   */\n      0x00\n        /* \"#utility.yul\":12891:12979   */\n      mstore\n        /* \"#utility.yul\":12998:13002   */\n      0x41\n        /* \"#utility.yul\":12995:12996   */\n      0x04\n        /* \"#utility.yul\":12988:13003   */\n      mstore\n        /* \"#utility.yul\":13022:13026   */\n      0x24\n        /* \"#utility.yul\":13019:13020   */\n      0x00\n        /* \"#utility.yul\":13012:13027   */\n      revert\n        /* \"#utility.yul\":13039:13219   */\n    tag_203:\n        /* \"#utility.yul\":13087:13164   */\n      0x4e487b7100000000000000000000000000000000000000000000000000000000\n        /* \"#utility.yul\":13084:13085   */\n      0x00\n        /* \"#utility.yul\":13077:13165   */\n      mstore\n        /* \"#utility.yul\":13184:13188   */\n      0x22\n        /* \"#utility.yul\":13181:13182   */\n      0x04\n        /* \"#utility.yul\":13174:13189   */\n      mstore\n        /* \"#utility.yul\":13208:13212   */\n      0x24\n        /* \"#utility.yul\":13205:13206   */\n      0x00\n        /* \"#utility.yul\":13198:13213   */\n      revert\n        /* \"#utility.yul\":13225:13545   */\n    tag_106:\n        /* \"#utility.yul\":13269:13275   */\n      0x00\n        /* \"#utility.yul\":13306:13307   */\n      0x02\n        /* \"#utility.yul\":13300:13304   */\n      dup3\n        /* \"#utility.yul\":13296:13308   */\n      div\n        /* \"#utility.yul\":13286:13308   */\n      swap1\n      pop\n        /* \"#utility.yul\":13353:13354   */\n      0x01\n        /* \"#utility.yul\":13347:13351   */\n      dup3\n        /* \"#utility.yul\":13343:13355   */\n      and\n        /* \"#utility.yul\":13374:13392   */\n      dup1\n        /* \"#utility.yul\":13364:13445   */\n      tag_339\n      jumpi\n        /* \"#utility.yul\":13430:13434   */\n      0x7f\n        /* \"#utility.yul\":13422:13428   */\n      dup3\n        /* \"#utility.yul\":13418:13435   */\n      and\n        /* \"#utility.yul\":13408:13435   */\n      swap2\n      pop\n        /* \"#utility.yul\":13364:13445   */\n    tag_339:\n        /* \"#utility.yul\":13492:13494   */\n      0x20\n        /* \"#utility.yul\":13484:13490   */\n      dup3\n        /* \"#utility.yul\":13481:13495   */\n      lt\n        /* \"#utility.yul\":13461:13479   */\n      dup2\n        /* \"#utility.yul\":13458:13496   */\n      sub\n        /* \"#utility.yul\":13455:13539   */\n      tag_340\n      jumpi\n        /* \"#utility.yul\":13511:13529   */\n      tag_341\n      tag_203\n      jump\t// in\n    tag_341:\n        /* \"#utility.yul\":13455:13539   */\n    tag_340:\n        /* \"#utility.yul\":13276:13545   */\n      pop\n        /* \"#utility.yul\":13225:13545   */\n      swap2\n      swap1\n      pop\n      jump\t// out\n        /* \"#utility.yul\":13551:13692   */\n    tag_204:\n        /* \"#utility.yul\":13600:13604   */\n      0x00\n        /* \"#utility.yul\":13623:13626   */\n      dup2\n        /* \"#utility.yul\":13615:13626   */\n      swap1\n      pop\n        /* \"#utility.yul\":13646:13649   */\n      dup2\n        /* \"#utility.yul\":13643:13644   */\n      0x00\n        /* \"#utility.yul\":13636:13650   */\n      mstore\n        /* \"#utility.yul\":13680:13684   */\n      0x20\n        /* \"#utility.yul\":13677:13678   */\n      0x00\n        /* \"#utility.yul\":13667:13685   */\n      keccak256\n        /* \"#utility.yul\":13659:13685   */\n      swap1\n      pop\n        /* \"#utility.yul\":13551:13692   */\n      swap2\n      swap1\n      pop\n      jump\t// out\n        /* \"#utility.yul\":13698:13791   */\n    tag_205:\n        /* \"#utility.yul\":13735:13741   */\n      0x00\n        /* \"#utility.yul\":13782:13784   */\n      0x20\n        /* \"#utility.yul\":13777:13779   */\n      0x1f\n        /* \"#utility.yul\":13770:13775   */\n      dup4\n        /* \"#utility.yul\":13766:13780   */\n      add\n        /* \"#utility.yul\":13762:13785   */\n      div\n        /* \"#utility.yul\":13752:13785   */\n      swap1\n      pop\n        /* \"#utility.yul\":13698:13791   */\n      swap2\n      swap1\n      pop\n      jump\t// out\n        /* \"#utility.yul\":13797:13904   */\n    tag_206:\n        /* \"#utility.yul\":13841:13849   */\n      0x00\n        /* \"#utility.yul\":13891:13896   */\n      dup3\n        /* \"#utility.yul\":13885:13889   */\n      dup3\n        /* \"#utility.yul\":13881:13897   */\n      shl\n        /* \"#utility.yul\":13860:13897   */\n      swap1\n      pop\n        /* \"#utility.yul\":13797:13904   */\n      swap3\n      swap2\n      pop\n      pop\n      jump\t// out\n        /* \"#utility.yul\":13910:14303   */\n    tag_207:\n        /* \"#utility.yul\":13979:13985   */\n      0x00\n        /* \"#utility.yul\":14029:14030   */\n      0x08\n        /* \"#utility.yul\":14017:14027   */\n      dup4\n        /* \"#utility.yul\":14013:14031   */\n      mul\n        /* \"#utility.yul\":14052:14149   */\n      tag_346\n        /* \"#utility.yul\":14082:14148   */\n      0xffffffffffffffffffffffffffffffffffffffffffffffffffffffffffffffff\n        /* \"#utility.yul\":14071:14080   */\n      dup3\n        /* \"#utility.yul\":14052:14149   */\n      tag_206\n      jump\t// in\n    tag_346:\n        /* \"#utility.yul\":14170:14209   */\n      tag_347\n        /* \"#utility.yul\":14200:14208   */\n      dup7\n        /* \"#utility.yul\":14189:14198   */\n      dup4\n        /* \"#utility.yul\":14170:14209   */\n      tag_206\n      jump\t// in\n    tag_347:\n        /* \"#utility.yul\":14158:14209   */\n      swap6\n      pop\n        /* \"#utility.yul\":14242:14246   */\n      dup1\n        /* \"#utility.yul\":14238:14247   */\n      not\n        /* \"#utility.yul\":14231:14236   */\n      dup5\n        /* \"#utility.yul\":14227:14248   */\n      and\n        /* \"#utility.yul\":14218:14248   */\n      swap4\n      pop\n        /* \"#utility.yul\":14291:14295   */\n      dup1\n        /* \"#utility.yul\":14281:14289   */\n      dup7\n        /* \"#utility.yul\":14277:14296   */\n      and\n        /* \"#utility.yul\":14270:14275   */\n      dup5\n        /* \"#utility.yul\":14267:14297   */\n      or\n        /* \"#utility.yul\":14257:14297   */\n      swap3\n      pop\n        /* \"#utility.yul\":13986:14303   */\n      pop\n      pop\n        /* \"#utility.yul\":13910:14303   */\n      swap4\n      swap3\n      pop\n      pop\n      pop\n      jump\t// out\n        /* \"#utility.yul\":14309:14369   */\n    tag_208:\n        /* \"#utility.yul\":14337:14340   */\n      0x00\n        /* \"#utility.yul\":14358:14363   */\n      dup2\n        /* \"#utility.yul\":14351:14363   */\n      swap1\n      pop\n        /* \"#utility.yul\":14309:14369   */\n      swap2\n      swap1\n      pop\n      jump\t// out\n        /* \"#utility.yul\":14375:14517   */\n    tag_209:\n        /* \"#utility.yul\":14425:14434   */\n      0x00\n        /* \"#utility.yul\":14458:14511   */\n      tag_350\n        /* \"#utility.yul\":14476:14510   */\n      tag_351\n        /* \"#utility.yul\":14485:14509   */\n      tag_352\n        /* \"#utility.yul\":14503:14508   */\n      dup5\n        /* \"#utility.yul\":14485:14509   */\n      tag_177\n      jump\t// in\n    tag_352:\n        /* \"#utility.yul\":14476:14510   */\n      tag_208\n      jump\t// in\n    tag_351:\n        /* \"#utility.yul\":14458:14511   */\n      tag_177\n      jump\t// in\n    tag_350:\n        /* \"#utility.yul\":14445:14511   */\n      swap1\n      pop\n        /* \"#utility.yul\":14375:14517   */\n      swap2\n      swap1\n      pop\n      jump\t// out\n        /* \"#utility.yul\":14523:14598   */\n    tag_210:\n        /* \"#utility.yul\":14566:14569   */\n      0x00\n        /* \"#utility.yul\":14587:14592   */\n      dup2\n        /* \"#utility.yul\":14580:14592   */\n      swap1\n      pop\n        /* \"#utility.yul\":14523:14598   */\n      swap2\n      swap1\n      pop\n      jump\t// out\n        /* \"#utility.yul\":14604:14873   */\n    tag_211:\n        /* \"#utility.yul\":14714:14753   */\n      tag_355\n        /* \"#utility.yul\":14745:14752   */\n      dup4\n        /* \"#utility.yul\":14714:14753   */\n      tag_209\n      jump\t// in\n    tag_355:\n        /* \"#utility.yul\":14775:14866   */\n      tag_356\n        /* \"#utility.yul\":14824:14865   */\n      tag_357\n        /* \"#utility.yul\":14848:14864   */\n      dup3\n        /* \"#utility.yul\":14824:14865   */\n      tag_210\n      jump\t// in\n    tag_357:\n        /* \"#utility.yul\":14816:14822   */\n      dup5\n        /* \"#utility.yul\":14809:14813   */\n      dup5\n        /* \"#utility.yul\":14803:14814   */\n      sload\n        /* \"#utility.yul\":14775:14866   */\n      tag_207\n      jump\t// in\n    tag_356:\n        /* \"#utility.yul\":14769:14773   */\n      dup3\n        /* \"#utility.yul\":14762:14867   */\n      sstore\n        /* \"#utility.yul\":14680:14873   */\n      pop\n        /* \"#utility.yul\":14604:14873   */\n      pop\n      pop\n      pop\n      jump\t// out\n        /* \"#utility.yul\":14879:14952   */\n    tag_212:\n        /* \"#utility.yul\":14924:14927   */\n      0x00\n        /* \"#utility.yul\":14879:14952   */\n      swap1\n      jump\t// out\n        /* \"#utility.yul\":14958:15147   */\n    tag_213:\n        /* \"#utility.yul\":15035:15067   */\n      tag_360\n      tag_212\n      jump\t// in\n    tag_360:\n        /* \"#utility.yul\":15076:15141   */\n      tag_361\n        /* \"#utility.yul\":15134:15140   */\n      dup2\n        /* \"#utility.yul\":15126:15132   */\n      dup5\n        /* \"#utility.yul\":15120:15124   */\n      dup5\n        /* \"#utility.yul\":15076:15141   */\n      tag_211\n      jump\t// in\n    tag_361:\n        /* \"#utility.yul\":15011:15147   */\n      pop\n        /* \"#utility.yul\":14958:15147   */\n      pop\n      pop\n      jump\t// out\n        /* \"#utility.yul\":15153:15339   */\n    tag_214:\n        /* \"#utility.yul\":15213:15333   */\n    tag_363:\n        /* \"#utility.yul\":15230:15233   */\n      dup2\n        /* \"#utility.yul\":15223:15228   */\n      dup2\n        /* \"#utility.yul\":15220:15234   */\n      lt\n        /* \"#utility.yul\":15213:15333   */\n      iszero\n      tag_365\n      jumpi\n        /* \"#utility.yul\":15284:15323   */\n      tag_366\n        /* \"#utility.yul\":15321:15322   */\n      0x00\n        /* \"#utility.yul\":15314:15319   */\n      dup3\n        /* \"#utility.yul\":15284:15323   */\n      tag_213\n      jump\t// in\n    tag_366:\n        /* \"#utility.yul\":15257:15258   */\n      0x01\n        /* \"#utility.yul\":15250:15255   */\n      dup2\n        /* \"#utility.yul\":15246:15259   */\n      add\n        /* \"#utility.yul\":15237:15259   */\n      swap1\n      pop\n        /* \"#utility.yul\":15213:15333   */\n      jump(tag_363)\n    tag_365:\n        /* \"#utility.yul\":15153:15339   */\n      pop\n      pop\n      jump\t// out\n        /* \"#utility.yul\":15345:15888   */\n    tag_215:\n        /* \"#utility.yul\":15446:15448   */\n      0x1f\n        /* \"#utility.yul\":15441:15444   */\n      dup3\n        /* \"#utility.yul\":15438:15449   */\n      gt\n        /* \"#utility.yul\":15435:15881   */\n      iszero\n      tag_368\n      jumpi\n        /* \"#utility.yul\":15480:15518   */\n      tag_369\n        /* \"#utility.yul\":15512:15517   */\n      dup2\n        /* \"#utility.yul\":15480:15518   */\n      tag_204\n      jump\t// in\n    tag_369:\n        /* \"#utility.yul\":15564:15593   */\n      tag_370\n        /* \"#utility.yul\":15582:15592   */\n      dup5\n        /* \"#utility.yul\":15564:15593   */\n      tag_205\n      jump\t// in\n    tag_370:\n        /* \"#utility.yul\":15554:15562   */\n      dup2\n        /* \"#utility.yul\":15550:15594   */\n      add\n        /* \"#utility.yul\":15747:15749   */\n      0x20\n        /* \"#utility.yul\":15735:15745   */\n      dup6\n        /* \"#utility.yul\":15732:15750   */\n      lt\n        /* \"#utility.yul\":15729:15778   */\n      iszero\n      tag_371\n      jumpi\n        /* \"#utility.yul\":15768:15776   */\n      dup2\n        /* \"#utility.yul\":15753:15776   */\n      swap1\n      pop\n        /* \"#utility.yul\":15729:15778   */\n    tag_371:\n        /* \"#utility.yul\":15791:15871   */\n      tag_372\n        /* \"#utility.yul\":15847:15869   */\n      tag_373\n        /* \"#utility.yul\":15865:15868   */\n      dup6\n        /* \"#utility.yul\":15847:15869   */\n      tag_205\n      jump\t// in\n    tag_373:\n        /* \"#utility.yul\":15837:15845   */\n      dup4\n        /* \"#utility.yul\":15833:15870   */\n      add\n        /* \"#utility.yul\":15820:15831   */\n      dup3\n        /* \"#utility.yul\":15791:15871   */\n      tag_214\n      jump\t// in\n    tag_372:\n        /* \"#utility.yul\":15450:15881   */\n      pop\n      pop\n        /* \"#utility.yul\":15435:15881   */\n    tag_368:\n        /* \"#utility.yul\":15345:15888   */\n      pop\n      pop\n      pop\n      jump\t// out\n        /* \"#utility.yul\":15894:16011   */\n    tag_216:\n        /* \"#utility.yul\":15948:15956   */\n      0x00\n        /* \"#utility.yul\":15998:16003   */\n      dup3\n        /* \"#utility.yul\":15992:15996   */\n      dup3\n        /* \"#utility.yul\":15988:16004   */\n      shr\n        /* \"#utility.yul\":15967:16004   */\n      swap1\n      pop\n        /* \"#utility.yul\":15894:16011   */\n      swap3\n      swap2\n      pop\n      pop\n      jump\t// out\n        /* \"#utility.yul\":16017:16186   */\n    tag_217:\n        /* \"#utility.yul\":16061:16067   */\n      0x00\n        /* \"#utility.yul\":16094:16145   */\n      tag_376\n        /* \"#utility.yul\":16142:16143   */\n      0x00\n        /* \"#utility.yul\":16138:16144   */\n      not\n        /* \"#utility.yul\":16130:16135   */\n      dup5\n        /* \"#utility.yul\":16127:16128   */\n      0x08\n        /* \"#utility.yul\":16123:16136   */\n      mul\n        /* \"#utility.yul\":16094:16145   */\n      tag_216\n      jump\t// in\n    tag_376:\n        /* \"#utility.yul\":16090:16146   */\n      not\n        /* \"#utility.yul\":16175:16179   */\n      dup1\n        /* \"#utility.yul\":16169:16173   */\n      dup4\n        /* \"#utility.yul\":16165:16180   */\n      and\n        /* \"#utility.yul\":16155:16180   */\n      swap2\n      pop\n        /* \"#utility.yul\":16068:16186   */\n      pop\n        /* \"#utility.yul\":16017:16186   */\n      swap3\n      swap2\n      pop\n      pop\n      jump\t// out\n        /* \"#utility.yul\":16191:16486   */\n    tag_218:\n        /* \"#utility.yul\":16267:16271   */\n      0x00\n        /* \"#utility.yul\":16413:16442   */\n      tag_378\n        /* \"#utility.yul\":16438:16441   */\n      dup4\n        /* \"#utility.yul\":16432:16436   */\n      dup4\n        /* \"#utility.yul\":16413:16442   */\n      tag_217\n      jump\t// in\n    tag_378:\n        /* \"#utility.yul\":16405:16442   */\n      swap2\n      pop\n        /* \"#utility.yul\":16475:16478   */\n      dup3\n        /* \"#utility.yul\":16472:16473   */\n      0x02\n        /* \"#utility.yul\":16468:16479   */\n      mul\n        /* \"#utility.yul\":16462:16466   */\n      dup3\n        /* \"#utility.yul\":16459:16480   */\n      or\n        /* \"#utility.yul\":16451:16480   */\n      swap1\n      pop\n        /* \"#utility.yul\":16191:16486   */\n      swap3\n      swap2\n      pop\n      pop\n      jump\t// out\n        /* \"#utility.yul\":16491:17886   */\n    tag_44:\n        /* \"#utility.yul\":16608:16645   */\n      tag_380\n        /* \"#utility.yul\":16641:16644   */\n      dup3\n        /* \"#utility.yul\":16608:16645   */\n      tag_181\n      jump\t// in\n    tag_380:\n        /* \"#utility.yul\":16710:16728   */\n      0xffffffffffffffff\n        /* \"#utility.yul\":16702:16708   */\n      dup2\n        /* \"#utility.yul\":16699:16729   */\n      gt\n        /* \"#utility.yul\":16696:16752   */\n      iszero\n      tag_381\n      jumpi\n        /* \"#utility.yul\":16732:16750   */\n      tag_382\n      tag_202\n      jump\t// in\n    tag_382:\n        /* \"#utility.yul\":16696:16752   */\n    tag_381:\n        /* \"#utility.yul\":16776:16814   */\n      tag_383\n        /* \"#utility.yul\":16808:16812   */\n      dup3\n        /* \"#utility.yul\":16802:16813   */\n      sload\n        /* \"#utility.yul\":16776:16814   */\n      tag_106\n      jump\t// in\n    tag_383:\n        /* \"#utility.yul\":16861:16928   */\n      tag_384\n        /* \"#utility.yul\":16921:16927   */\n      dup3\n        /* \"#utility.yul\":16913:16919   */\n      dup3\n        /* \"#utility.yul\":16907:16911   */\n      dup6\n        /* \"#utility.yul\":16861:16928   */\n      tag_215\n      jump\t// in\n    tag_384:\n        /* \"#utility.yul\":16955:16956   */\n      0x00\n        /* \"#utility.yul\":16979:16983   */\n      0x20\n        /* \"#utility.yul\":16966:16983   */\n      swap1\n      pop\n        /* \"#utility.yul\":17011:17013   */\n      0x1f\n        /* \"#utility.yul\":17003:17009   */\n      dup4\n        /* \"#utility.yul\":17000:17014   */\n      gt\n        /* \"#utility.yul\":17028:17029   */\n      0x01\n        /* \"#utility.yul\":17023:17641   */\n      dup2\n      eq\n      tag_386\n      jumpi\n        /* \"#utility.yul\":17685:17686   */\n      0x00\n        /* \"#utility.yul\":17702:17708   */\n      dup5\n        /* \"#utility.yul\":17699:17776   */\n      iszero\n      tag_387\n      jumpi\n        /* \"#utility.yul\":17751:17760   */\n      dup3\n        /* \"#utility.yul\":17746:17749   */\n      dup8\n        /* \"#utility.yul\":17742:17761   */\n      add\n        /* \"#utility.yul\":17736:17762   */\n      mload\n        /* \"#utility.yul\":17727:17762   */\n      swap1\n      pop\n        /* \"#utility.yul\":17699:17776   */\n    tag_387:\n        /* \"#utility.yul\":17802:17869   */\n      tag_388\n        /* \"#utility.yul\":17862:17868   */\n      dup6\n        /* \"#utility.yul\":17855:17860   */\n      dup3\n        /* \"#utility.yul\":17802:17869   */\n      tag_218\n      jump\t// in\n    tag_388:\n        /* \"#utility.yul\":17796:17800   */\n      dup7\n        /* \"#utility.yul\":17789:17870   */\n      sstore\n        /* \"#utility.yul\":17658:17880   */\n      pop\n        /* \"#utility.yul\":16993:17880   */\n      jump(tag_385)\n        /* \"#utility.yul\":17023:17641   */\n    tag_386:\n        /* \"#utility.yul\":17075:17079   */\n      0x1f\n        /* \"#utility.yul\":17071:17080   */\n      not\n        /* \"#utility.yul\":17063:17069   */\n      dup5\n        /* \"#utility.yul\":17059:17081   */\n      and\n        /* \"#utility.yul\":17109:17146   */\n      tag_389\n        /* \"#utility.yul\":17141:17145   */\n      dup7\n        /* \"#utility.yul\":17109:17146   */\n      tag_204\n      jump\t// in\n    tag_389:\n        /* \"#utility.yul\":17168:17169   */\n      0x00\n        /* \"#utility.yul\":17182:17390   */\n    tag_390:\n        /* \"#utility.yul\":17196:17203   */\n      dup3\n        /* \"#utility.yul\":17193:17194   */\n      dup2\n        /* \"#utility.yul\":17190:17204   */\n      lt\n        /* \"#utility.yul\":17182:17390   */\n      iszero\n      tag_392\n      jumpi\n        /* \"#utility.yul\":17275:17284   */\n      dup5\n        /* \"#utility.yul\":17270:17273   */\n      dup10\n        /* \"#utility.yul\":17266:17285   */\n      add\n        /* \"#utility.yul\":17260:17286   */\n      mload\n        /* \"#utility.yul\":17252:17258   */\n      dup3\n        /* \"#utility.yul\":17245:17287   */\n      sstore\n        /* \"#utility.yul\":17326:17327   */\n      0x01\n        /* \"#utility.yul\":17318:17324   */\n      dup3\n        /* \"#utility.yul\":17314:17328   */\n      add\n        /* \"#utility.yul\":17304:17328   */\n      swap2\n      pop\n        /* \"#utility.yul\":17373:17375   */\n      0x20\n        /* \"#utility.yul\":17362:17371   */\n      dup6\n        /* \"#utility.yul\":17358:17376   */\n      add\n        /* \"#utility.yul\":17345:17376   */\n      swap5\n      pop\n        /* \"#utility.yul\":17219:17223   */\n      0x20\n        /* \"#utility.yul\":17216:17217   */\n      dup2\n        /* \"#utility.yul\":17212:17224   */\n      add\n        /* \"#utility.yul\":17207:17224   */\n      swap1\n      pop\n        /* \"#utility.yul\":17182:17390   */\n      jump(tag_390)\n    tag_392:\n        /* \"#utility.yul\":17418:17424   */\n      dup7\n        /* \"#utility.yul\":17409:17416   */\n      dup4\n        /* \"#utility.yul\":17406:17425   */\n      lt\n        /* \"#utility.yul\":17403:17582   */\n      iszero\n      tag_393\n      jumpi\n        /* \"#utility.yul\":17476:17485   */\n      dup5\n        /* \"#utility.yul\":17471:17474   */\n      dup10\n        /* \"#utility.yul\":17467:17486   */\n      add\n        /* \"#utility.yul\":17461:17487   */\n      mload\n        /* \"#utility.yul\":17519:17567   */\n      tag_394\n        /* \"#utility.yul\":17561:17565   */\n      0x1f\n        /* \"#utility.yul\":17553:17559   */\n      dup10\n        /* \"#utility.yul\":17549:17566   */\n      and\n        /* \"#utility.yul\":17538:17547   */\n      dup3\n        /* \"#utility.yul\":17519:17567   */\n      tag_217\n      jump\t// in\n    tag_394:\n        /* \"#utility.yul\":17511:17517   */\n      dup4\n        /* \"#utility.yul\":17504:17568   */\n      sstore\n        /* \"#utility.yul\":17426:17582   */\n      pop\n        /* \"#utility.yul\":17403:17582   */\n    tag_393:\n        /* \"#utility.yul\":17628:17629   */\n      0x01\n        /* \"#utility.yul\":17624:17625   */\n      0x02\n        /* \"#utility.yul\":17616:17622   */\n      dup9\n        /* \"#utility.yul\":17612:17626   */\n      mul\n        /* \"#utility.yul\":17608:17630   */\n      add\n        /* \"#utility.yul\":17602:17606   */\n      dup9\n        /* \"#utility.yul\":17595:17631   */\n      sstore\n        /* \"#utility.yul\":17030:17641   */\n      pop\n      pop\n      pop\n        /* \"#utility.yul\":16993:17880   */\n    tag_385:\n      pop\n        /* \"#utility.yul\":16583:17886   */\n      pop\n      pop\n      pop\n        /* \"#utility.yul\":16491:17886   */\n      pop\n      pop\n      jump\t// out\n        /* \"#utility.yul\":17892:18072   */\n    tag_219:\n        /* \"#utility.yul\":17940:18017   */\n      0x4e487b7100000000000000000000000000000000000000000000000000000000\n        /* \"#utility.yul\":17937:17938   */\n      0x00\n        /* \"#utility.yul\":17930:18018   */\n      mstore\n        /* \"#utility.yul\":18037:18041   */\n      0x11\n        /* \"#utility.yul\":18034:18035   */\n      0x04\n        /* \"#utility.yul\":18027:18042   */\n      mstore\n        /* \"#utility.yul\":18061:18065   */\n      0x24\n        /* \"#utility.yul\":18058:18059   */\n      0x00\n        /* \"#utility.yul\":18051:18066   */\n      revert\n        /* \"#utility.yul\":18078:18272   */\n    tag_49:\n        /* \"#utility.yul\":18118:18122   */\n      0x00\n        /* \"#utility.yul\":18138:18158   */\n      tag_397\n        /* \"#utility.yul\":18156:18157   */\n      dup3\n        /* \"#utility.yul\":18138:18158   */\n      tag_177\n      jump\t// in\n    tag_397:\n        /* \"#utility.yul\":18133:18158   */\n      swap2\n      pop\n        /* \"#utility.yul\":18172:18192   */\n      tag_398\n        /* \"#utility.yul\":18190:18191   */\n      dup4\n        /* \"#utility.yul\":18172:18192   */\n      tag_177\n      jump\t// in\n    tag_398:\n        /* \"#utility.yul\":18167:18192   */\n      swap3\n      pop\n        /* \"#utility.yul\":18216:18217   */\n      dup3\n        /* \"#utility.yul\":18213:18214   */\n      dup3\n        /* \"#utility.yul\":18209:18218   */\n      sub\n        /* \"#utility.yul\":18201:18218   */\n      swap1\n      pop\n        /* \"#utility.yul\":18240:18241   */\n      dup2\n        /* \"#utility.yul\":18234:18238   */\n      dup2\n        /* \"#utility.yul\":18231:18242   */\n      gt\n        /* \"#utility.yul\":18228:18265   */\n      iszero\n      tag_399\n      jumpi\n        /* \"#utility.yul\":18245:18263   */\n      tag_400\n      tag_219\n      jump\t// in\n    tag_400:\n        /* \"#utility.yul\":18228:18265   */\n    tag_399:\n        /* \"#utility.yul\":18078:18272   */\n      swap3\n      swap2\n      pop\n      pop\n      jump\t// out\n        /* \"#utility.yul\":18278:18511   */\n    tag_51:\n        /* \"#utility.yul\":18317:18320   */\n      0x00\n        /* \"#utility.yul\":18340:18364   */\n      tag_402\n        /* \"#utility.yul\":18358:18363   */\n      dup3\n        /* \"#utility.yul\":18340:18364   */\n      tag_177\n      jump\t// in\n    tag_402:\n        /* \"#utility.yul\":18331:18364   */\n      swap2\n      pop\n        /* \"#utility.yul\":18386:18452   */\n      0xffffffffffffffffffffffffffffffffffffffffffffffffffffffffffffffff\n        /* \"#utility.yul\":18379:18384   */\n      dup3\n        /* \"#utility.yul\":18376:18453   */\n      sub\n        /* \"#utility.yul\":18373:18476   */\n      tag_403\n      jumpi\n        /* \"#utility.yul\":18456:18474   */\n      tag_404\n      tag_219\n      jump\t// in\n    tag_404:\n        /* \"#utility.yul\":18373:18476   */\n    tag_403:\n        /* \"#utility.yul\":18503:18504   */\n      0x01\n        /* \"#utility.yul\":18496:18501   */\n      dup3\n        /* \"#utility.yul\":18492:18505   */\n      add\n        /* \"#utility.yul\":18485:18505   */\n      swap1\n      pop\n        /* \"#utility.yul\":18278:18511   */\n      swap2\n      swap1\n      pop\n      jump\t// out\n        /* \"#utility.yul\":18517:18697   */\n    tag_64:\n        /* \"#utility.yul\":18565:18642   */\n      0x4e487b7100000000000000000000000000000000000000000000000000000000\n        /* \"#utility.yul\":18562:18563   */\n      0x00\n        /* \"#utility.yul\":18555:18643   */\n      mstore\n        /* \"#utility.yul\":18662:18666   */\n      0x32\n        /* \"#utility.yul\":18659:18660   */\n      0x04\n        /* \"#utility.yul\":18652:18667   */\n      mstore\n        /* \"#utility.yul\":18686:18690   */\n      0x24\n        /* \"#utility.yul\":18683:18684   */\n      0x00\n        /* \"#utility.yul\":18676:18691   */\n      revert\n        /* \"#utility.yul\":18703:18821   */\n    tag_220:\n        /* \"#utility.yul\":18790:18814   */\n      tag_407\n        /* \"#utility.yul\":18808:18813   */\n      dup2\n        /* \"#utility.yul\":18790:18814   */\n      tag_177\n      jump\t// in\n    tag_407:\n        /* \"#utility.yul\":18785:18788   */\n      dup3\n        /* \"#utility.yul\":18778:18815   */\n      mstore\n        /* \"#utility.yul\":18703:18821   */\n      pop\n      pop\n      jump\t// out\n        /* \"#utility.yul\":18827:19049   */\n    tag_68:\n        /* \"#utility.yul\":18920:18924   */\n      0x00\n        /* \"#utility.yul\":18958:18960   */\n      0x20\n        /* \"#utility.yul\":18947:18956   */\n      dup3\n        /* \"#utility.yul\":18943:18961   */\n      add\n        /* \"#utility.yul\":18935:18961   */\n      swap1\n      pop\n        /* \"#utility.yul\":18971:19042   */\n      tag_409\n        /* \"#utility.yul\":19039:19040   */\n      0x00\n        /* \"#utility.yul\":19028:19037   */\n      dup4\n        /* \"#utility.yul\":19024:19041   */\n      add\n        /* \"#utility.yul\":19015:19021   */\n      dup5\n        /* \"#utility.yul\":18971:19042   */\n      tag_220\n      jump\t// in\n    tag_409:\n        /* \"#utility.yul\":18827:19049   */\n      swap3\n      swap2\n      pop\n      pop\n      jump\t// out\n        /* \"#utility.yul\":19055:19204   */\n    tag_221:\n        /* \"#utility.yul\":19104:19110   */\n      0x00\n        /* \"#utility.yul\":19138:19143   */\n      dup2\n        /* \"#utility.yul\":19132:19144   */\n      sload\n        /* \"#utility.yul\":19122:19144   */\n      swap1\n      pop\n        /* \"#utility.yul\":19164:19197   */\n      tag_411\n        /* \"#utility.yul\":19190:19196   */\n      dup2\n        /* \"#utility.yul\":19164:19197   */\n      tag_106\n      jump\t// in\n    tag_411:\n        /* \"#utility.yul\":19154:19197   */\n      swap1\n      pop\n        /* \"#utility.yul\":19055:19204   */\n      swap2\n      swap1\n      pop\n      jump\t// out\n        /* \"#utility.yul\":19210:20661   */\n    tag_77:\n        /* \"#utility.yul\":19321:19324   */\n      dup2\n        /* \"#utility.yul\":19315:19319   */\n      dup2\n        /* \"#utility.yul\":19312:19325   */\n      sub\n        /* \"#utility.yul\":19309:19335   */\n      tag_413\n      jumpi\n        /* \"#utility.yul\":19328:19333   */\n      pop\n      pop\n      jump(tag_412)\n        /* \"#utility.yul\":19309:19335   */\n    tag_413:\n        /* \"#utility.yul\":19359:19393   */\n      tag_414\n        /* \"#utility.yul\":19389:19392   */\n      dup3\n        /* \"#utility.yul\":19359:19393   */\n      tag_221\n      jump\t// in\n    tag_414:\n        /* \"#utility.yul\":19458:19476   */\n      0xffffffffffffffff\n        /* \"#utility.yul\":19450:19456   */\n      dup2\n        /* \"#utility.yul\":19447:19477   */\n      gt\n        /* \"#utility.yul\":19444:19500   */\n      iszero\n      tag_415\n      jumpi\n        /* \"#utility.yul\":19480:19498   */\n      tag_416\n      tag_202\n      jump\t// in\n    tag_416:\n        /* \"#utility.yul\":19444:19500   */\n    tag_415:\n        /* \"#utility.yul\":19524:19562   */\n      tag_417\n        /* \"#utility.yul\":19556:19560   */\n      dup3\n        /* \"#utility.yul\":19550:19561   */\n      sload\n        /* \"#utility.yul\":19524:19562   */\n      tag_106\n      jump\t// in\n    tag_417:\n        /* \"#utility.yul\":19609:19676   */\n      tag_418\n        /* \"#utility.yul\":19669:19675   */\n      dup3\n        /* \"#utility.yul\":19661:19667   */\n      dup3\n        /* \"#utility.yul\":19655:19659   */\n      dup6\n        /* \"#utility.yul\":19609:19676   */\n      tag_215\n      jump\t// in\n    tag_418:\n        /* \"#utility.yul\":19703:19704   */\n      0x00\n        /* \"#utility.yul\":19732:19734   */\n      0x1f\n        /* \"#utility.yul\":19724:19730   */\n      dup4\n        /* \"#utility.yul\":19721:19735   */\n      gt\n        /* \"#utility.yul\":19749:19750   */\n      0x01\n        /* \"#utility.yul\":19744:20416   */\n      dup2\n      eq\n      tag_420\n      jumpi\n        /* \"#utility.yul\":20460:20461   */\n      0x00\n        /* \"#utility.yul\":20477:20483   */\n      dup5\n        /* \"#utility.yul\":20474:20551   */\n      iszero\n      tag_421\n      jumpi\n        /* \"#utility.yul\":20526:20535   */\n      dup3\n        /* \"#utility.yul\":20521:20524   */\n      dup8\n        /* \"#utility.yul\":20517:20536   */\n      add\n        /* \"#utility.yul\":20511:20537   */\n      sload\n        /* \"#utility.yul\":20502:20537   */\n      swap1\n      pop\n        /* \"#utility.yul\":20474:20551   */\n    tag_421:\n        /* \"#utility.yul\":20577:20644   */\n      tag_422\n        /* \"#utility.yul\":20637:20643   */\n      dup6\n        /* \"#utility.yul\":20630:20635   */\n      dup3\n        /* \"#utility.yul\":20577:20644   */\n      tag_218\n      jump\t// in\n    tag_422:\n        /* \"#utility.yul\":20571:20575   */\n      dup7\n        /* \"#utility.yul\":20564:20645   */\n      sstore\n        /* \"#utility.yul\":20433:20655   */\n      pop\n        /* \"#utility.yul\":19714:20655   */\n      jump(tag_419)\n        /* \"#utility.yul\":19744:20416   */\n    tag_420:\n        /* \"#utility.yul\":19796:19800   */\n      0x1f\n        /* \"#utility.yul\":19792:19801   */\n      not\n        /* \"#utility.yul\":19784:19790   */\n      dup5\n        /* \"#utility.yul\":19780:19802   */\n      and\n        /* \"#utility.yul\":19822:19858   */\n      tag_423\n        /* \"#utility.yul\":19854:19857   */\n      dup8\n        /* \"#utility.yul\":19822:19858   */\n      tag_204\n      jump\t// in\n    tag_423:\n        /* \"#utility.yul\":19815:19858   */\n      swap7\n      pop\n        /* \"#utility.yul\":19885:19922   */\n      tag_424\n        /* \"#utility.yul\":19917:19921   */\n      dup7\n        /* \"#utility.yul\":19885:19922   */\n      tag_204\n      jump\t// in\n    tag_424:\n        /* \"#utility.yul\":19944:19945   */\n      0x00\n        /* \"#utility.yul\":19958:20165   */\n    tag_425:\n        /* \"#utility.yul\":19972:19979   */\n      dup3\n        /* \"#utility.yul\":19969:19970   */\n      dup2\n        /* \"#utility.yul\":19966:19980   */\n      lt\n        /* \"#utility.yul\":19958:20165   */\n      iszero\n      tag_427\n      jumpi\n        /* \"#utility.yul\":20051:20060   */\n      dup5\n        /* \"#utility.yul\":20046:20049   */\n      dup10\n        /* \"#utility.yul\":20042:20061   */\n      add\n        /* \"#utility.yul\":20036:20062   */\n      sload\n        /* \"#utility.yul\":20028:20034   */\n      dup3\n        /* \"#utility.yul\":20021:20063   */\n      sstore\n        /* \"#utility.yul\":20102:20103   */\n      0x01\n        /* \"#utility.yul\":20094:20100   */\n      dup3\n        /* \"#utility.yul\":20090:20104   */\n      add\n        /* \"#utility.yul\":20080:20104   */\n      swap2\n      pop\n        /* \"#utility.yul\":20149:20150   */\n      0x01\n        /* \"#utility.yul\":20138:20147   */\n      dup6\n        /* \"#utility.yul\":20134:20151   */\n      add\n        /* \"#utility.yul\":20121:20151   */\n      swap5\n      pop\n        /* \"#utility.yul\":19995:19999   */\n      0x20\n        /* \"#utility.yul\":19992:19993   */\n      dup2\n        /* \"#utility.yul\":19988:20000   */\n      add\n        /* \"#utility.yul\":19983:20000   */\n      swap1\n      pop\n        /* \"#utility.yul\":19958:20165   */\n      jump(tag_425)\n    tag_427:\n        /* \"#utility.yul\":20193:20199   */\n      dup7\n        /* \"#utility.yul\":20184:20191   */\n      dup4\n        /* \"#utility.yul\":20181:20200   */\n      lt\n        /* \"#utility.yul\":20178:20357   */\n      iszero\n      tag_428\n      jumpi\n        /* \"#utility.yul\":20251:20260   */\n      dup5\n        /* \"#utility.yul\":20246:20249   */\n      dup10\n        /* \"#utility.yul\":20242:20261   */\n      add\n        /* \"#utility.yul\":20236:20262   */\n      sload\n        /* \"#utility.yul\":20294:20342   */\n      tag_429\n        /* \"#utility.yul\":20336:20340   */\n      0x1f\n        /* \"#utility.yul\":20328:20334   */\n      dup10\n        /* \"#utility.yul\":20324:20341   */\n      and\n        /* \"#utility.yul\":20313:20322   */\n      dup3\n        /* \"#utility.yul\":20294:20342   */\n      tag_217\n      jump\t// in\n    tag_429:\n        /* \"#utility.yul\":20286:20292   */\n      dup4\n        /* \"#utility.yul\":20279:20343   */\n      sstore\n        /* \"#utility.yul\":20201:20357   */\n      pop\n        /* \"#utility.yul\":20178:20357   */\n    tag_428:\n        /* \"#utility.yul\":20403:20404   */\n      0x01\n        /* \"#utility.yul\":20399:20400   */\n      0x02\n        /* \"#utility.yul\":20391:20397   */\n      dup9\n        /* \"#utility.yul\":20387:20401   */\n      mul\n        /* \"#utility.yul\":20383:20405   */\n      add\n        /* \"#utility.yul\":20377:20381   */\n      dup9\n        /* \"#utility.yul\":20370:20406   */\n      sstore\n        /* \"#utility.yul\":19751:20416   */\n      pop\n      pop\n      pop\n        /* \"#utility.yul\":19714:20655   */\n    tag_419:\n      pop\n        /* \"#utility.yul\":19299:20661   */\n      pop\n      pop\n      pop\n        /* \"#utility.yul\":19210:20661   */\n      pop\n      pop\n    tag_412:\n      jump\t// out\n        /* \"#utility.yul\":20667:20847   */\n    tag_86:\n        /* \"#utility.yul\":20715:20792   */\n      0x4e487b7100000000000000000000000000000000000000000000000000000000\n        /* \"#utility.yul\":20712:20713   */\n      0x00\n        /* \"#utility.yul\":20705:20793   */\n      mstore\n        /* \"#utility.yul\":20812:20816   */\n      0x31\n        /* \"#utility.yul\":20809:20810   */\n      0x04\n        /* \"#utility.yul\":20802:20817   */\n      mstore\n        /* \"#utility.yul\":20836:20840   */\n      0x24\n        /* \"#utility.yul\":20833:20834   */\n      0x00\n        /* \"#utility.yul\":20826:20841   */\n      revert\n\n    auxdata: 0xa26469706673582212205289def48884af894bec4fef4a58fc6b04ca078a9eddb7a55fdbfc396555eaf164736f6c63430008190033\n}\n",
				"bytecode": {
					"linkReferences": {},
					"object": "60806040526040518060400160405280600581526020017f76616c75650000000000000000000000000000000000000000000000000000008152506001908161004891906103db565b506001600455348015610059575f80fd5b50335f73ffffffffffffffffffffffffffffffffffffffff168173ffffffffffffffffffffffffffffffffffffffff16036100cb575f6040517f1e4fbdf70000000000000000000000000000000000000000000000000000000081526004016100c291906104e9565b60405180910390fd5b6100da816100e060201b60201c565b50610502565b5f805f9054906101000a900473ffffffffffffffffffffffffffffffffffffffff169050815f806101000a81548173ffffffffffffffffffffffffffffffffffffffff021916908373ffffffffffffffffffffffffffffffffffffffff1602179055508173ffffffffffffffffffffffffffffffffffffffff168173ffffffffffffffffffffffffffffffffffffffff167f8be0079c531659141344cd1fd0a4f28419497f9722a3daafe3b4186f6b6457e060405160405180910390a35050565b5f81519050919050565b7f4e487b71000000000000000000000000000000000000000000000000000000005f52604160045260245ffd5b7f4e487b71000000000000000000000000000000000000000000000000000000005f52602260045260245ffd5b5f600282049050600182168061021c57607f821691505b60208210810361022f5761022e6101d8565b5b50919050565b5f819050815f5260205f209050919050565b5f6020601f8301049050919050565b5f82821b905092915050565b5f600883026102917fffffffffffffffffffffffffffffffffffffffffffffffffffffffffffffffff82610256565b61029b8683610256565b95508019841693508086168417925050509392505050565b5f819050919050565b5f819050919050565b5f6102df6102da6102d5846102b3565b6102bc565b6102b3565b9050919050565b5f819050919050565b6102f8836102c5565b61030c610304826102e6565b848454610262565b825550505050565b5f90565b610320610314565b61032b8184846102ef565b505050565b5b8181101561034e576103435f82610318565b600181019050610331565b5050565b601f8211156103935761036481610235565b61036d84610247565b8101602085101561037c578190505b61039061038885610247565b830182610330565b50505b505050565b5f82821c905092915050565b5f6103b35f1984600802610398565b1980831691505092915050565b5f6103cb83836103a4565b9150826002028217905092915050565b6103e4826101a1565b67ffffffffffffffff8111156103fd576103fc6101ab565b5b6104078254610205565b610412828285610352565b5f60209050601f831160018114610443575f8415610431578287015190505b61043b85826103c0565b8655506104a2565b601f19841661045186610235565b5f5b8281101561047857848901518255600182019150602085019450602081019050610453565b868310156104955784890151610491601f8916826103a4565b8355505b6001600288020188555050505b505050505050565b5f73ffffffffffffffffffffffffffffffffffffffff82169050919050565b5f6104d3826104aa565b9050919050565b6104e3816104c9565b82525050565b5f6020820190506104fc5f8301846104da565b92915050565b6117068061050f5f395ff3fe608060405234801561000f575f80fd5b506004361061007b575f3560e01c8063b9ed6fca11610059578063b9ed6fca146100c3578063e6505e1e146100df578063ef1d6ddd1461010f578063f2fde38b1461012d5761007b565b80633f06f6e81461007f578063715018a61461009b5780638da5cb5b146100a5575b5f80fd5b61009960048036038101906100949190610cfe565b610149565b005b6100a36102fd565b005b6100ad610310565b6040516100ba9190610ded565b60405180910390f35b6100dd60048036038101906100d89190610e39565b610337565b005b6100f960048036038101906100f49190610e39565b610515565b6040516101069190610ff9565b60405180910390f35b61011761075c565b6040516101249190611142565b60405180910390f35b6101476004803603810190610142919061118c565b610937565b005b6101516109bb565b60026040518060800160405280600454815260200188888080601f0160208091040260200160405190810160405280939291908181526020018383808284375f81840152601f19601f82011690508083019250505050505050815260200186868080601f0160208091040260200160405190810160405280939291908181526020018383808284375f81840152601f19601f8201169050808301925050505050505081526020018484808060200260200160405190810160405280939291908181526020018383602002808284375f81840152601f19601f82011690508083019250505050505050815250908060018154018082558091505060019003905f5260205f2090600402015f909190919091505f820151815f0155602082015181600101908161027f91906113de565b50604082015181600201908161029591906113de565b5060608201518160030190805190602001906102b2929190610b0a565b50505060016002805490506102c791906114da565b60035f60045481526020019081526020015f208190555060045f8154809291906102f09061150d565b9190505550505050505050565b6103056109bb565b61030e5f610a42565b565b5f805f9054906101000a900473ffffffffffffffffffffffffffffffffffffffff16905090565b61033f6109bb565b5f60035f8381526020019081526020015f205490506002805490508110158061038a5750816002828154811061037857610377611554565b5b905f5260205f2090600402015f015414155b156103cc57816040517ff55dec000000000000000000000000000000000000000000000000000000000081526004016103c39190611590565b60405180910390fd5b600260016002805490506103e091906114da565b815481106103f1576103f0611554565b5b905f5260205f2090600402016002828154811061041157610410611554565b5b905f5260205f2090600402015f820154815f01556001820181600101908161043991906115be565b506002820181600201908161044e91906115be565b506003820181600301908054610465929190610b55565b509050508060035f6002848154811061048157610480611554565b5b905f5260205f2090600402015f015481526020019081526020015f208190555060028054806104b3576104b26116a3565b5b600190038181905f5260205f2090600402015f8082015f9055600182015f6104db9190610ba3565b600282015f6104ea9190610ba3565b600382015f6104f99190610be0565b5050905560035f8381526020019081526020015f205f90555050565b61051d610bfe565b5f60035f8481526020019081526020015f20549050600280549050811015806105685750826002828154811061055657610555611554565b5b905f5260205f2090600402015f015414155b156105aa57826040517ff55dec000000000000000000000000000000000000000000000000000000000081526004016105a19190611590565b60405180910390fd5b600281815481106105be576105bd611554565b5b905f5260205f2090600402016040518060800160405290815f82015481526020016001820180546105ee90611211565b80601f016020809104026020016040519081016040528092919081815260200182805461061a90611211565b80156106655780601f1061063c57610100808354040283529160200191610665565b820191905f5260205f20905b81548152906001019060200180831161064857829003601f168201915b5050505050815260200160028201805461067e90611211565b80601f01602080910402602001604051908101604052809291908181526020018280546106aa90611211565b80156106f55780601f106106cc576101008083540402835291602001916106f5565b820191905f5260205f20905b8154815290600101906020018083116106d857829003601f168201915b505050505081526020016003820180548060200260200160405190810160405280929190818152602001828054801561074b57602002820191905f5260205f20905b815481526020019060010190808311610737575b505050505081525050915050919050565b60606002805480602002602001604051908101604052809291908181526020015f905b8282101561092e578382905f5260205f2090600402016040518060800160405290815f82015481526020016001820180546107b990611211565b80601f01602080910402602001604051908101604052809291908181526020018280546107e590611211565b80156108305780601f1061080757610100808354040283529160200191610830565b820191905f5260205f20905b81548152906001019060200180831161081357829003601f168201915b5050505050815260200160028201805461084990611211565b80601f016020809104026020016040519081016040528092919081815260200182805461087590611211565b80156108c05780601f10610897576101008083540402835291602001916108c0565b820191905f5260205f20905b8154815290600101906020018083116108a357829003601f168201915b505050505081526020016003820180548060200260200160405190810160405280929190818152602001828054801561091657602002820191905f5260205f20905b815481526020019060010190808311610902575b5050505050815250508152602001906001019061077f565b50505050905090565b61093f6109bb565b5f73ffffffffffffffffffffffffffffffffffffffff168173ffffffffffffffffffffffffffffffffffffffff16036109af575f6040517f1e4fbdf70000000000000000000000000000000000000000000000000000000081526004016109a69190610ded565b60405180910390fd5b6109b881610a42565b50565b6109c3610b03565b73ffffffffffffffffffffffffffffffffffffffff166109e1610310565b73ffffffffffffffffffffffffffffffffffffffff1614610a4057610a04610b03565b6040517f118cdaa7000000000000000000000000000000000000000000000000000000008152600401610a379190610ded565b60405180910390fd5b565b5f805f9054906101000a900473ffffffffffffffffffffffffffffffffffffffff169050815f806101000a81548173ffffffffffffffffffffffffffffffffffffffff021916908373ffffffffffffffffffffffffffffffffffffffff1602179055508173ffffffffffffffffffffffffffffffffffffffff168173ffffffffffffffffffffffffffffffffffffffff167f8be0079c531659141344cd1fd0a4f28419497f9722a3daafe3b4186f6b6457e060405160405180910390a35050565b5f33905090565b828054828255905f5260205f20908101928215610b44579160200282015b82811115610b43578251825591602001919060010190610b28565b5b509050610b519190610c25565b5090565b828054828255905f5260205f20908101928215610b92575f5260205f209182015b82811115610b91578254825591600101919060010190610b76565b5b509050610b9f9190610c25565b5090565b508054610baf90611211565b5f825580601f10610bc05750610bdd565b601f0160209004905f5260205f2090810190610bdc9190610c25565b5b50565b5080545f8255905f5260205f2090810190610bfb9190610c25565b50565b60405180608001604052805f81526020016060815260200160608152602001606081525090565b5b80821115610c3c575f815f905550600101610c26565b5090565b5f80fd5b5f80fd5b5f80fd5b5f80fd5b5f80fd5b5f8083601f840112610c6957610c68610c48565b5b8235905067ffffffffffffffff811115610c8657610c85610c4c565b5b602083019150836001820283011115610ca257610ca1610c50565b5b9250929050565b5f8083601f840112610cbe57610cbd610c48565b5b8235905067ffffffffffffffff811115610cdb57610cda610c4c565b5b602083019150836020820283011115610cf757610cf6610c50565b5b9250929050565b5f805f805f8060608789031215610d1857610d17610c40565b5b5f87013567ffffffffffffffff811115610d3557610d34610c44565b5b610d4189828a01610c54565b9650965050602087013567ffffffffffffffff811115610d6457610d63610c44565b5b610d7089828a01610c54565b9450945050604087013567ffffffffffffffff811115610d9357610d92610c44565b5b610d9f89828a01610ca9565b92509250509295509295509295565b5f73ffffffffffffffffffffffffffffffffffffffff82169050919050565b5f610dd782610dae565b9050919050565b610de781610dcd565b82525050565b5f602082019050610e005f830184610dde565b92915050565b5f819050919050565b610e1881610e06565b8114610e22575f80fd5b50565b5f81359050610e3381610e0f565b92915050565b5f60208284031215610e4e57610e4d610c40565b5b5f610e5b84828501610e25565b91505092915050565b610e6d81610e06565b82525050565b5f81519050919050565b5f82825260208201905092915050565b8281835e5f83830152505050565b5f601f19601f8301169050919050565b5f610eb582610e73565b610ebf8185610e7d565b9350610ecf818560208601610e8d565b610ed881610e9b565b840191505092915050565b5f81519050919050565b5f82825260208201905092915050565b5f819050602082019050919050565b5f610f178383610e64565b60208301905092915050565b5f602082019050919050565b5f610f3982610ee3565b610f438185610eed565b9350610f4e83610efd565b805f5b83811015610f7e578151610f658882610f0c565b9750610f7083610f23565b925050600181019050610f51565b5085935050505092915050565b5f608083015f830151610fa05f860182610e64565b5060208301518482036020860152610fb88282610eab565b91505060408301518482036040860152610fd28282610eab565b91505060608301518482036060860152610fec8282610f2f565b9150508091505092915050565b5f6020820190508181035f8301526110118184610f8b565b905092915050565b5f81519050919050565b5f82825260208201905092915050565b5f819050602082019050919050565b5f608083015f8301516110575f860182610e64565b506020830151848203602086015261106f8282610eab565b915050604083015184820360408601526110898282610eab565b915050606083015184820360608601526110a38282610f2f565b9150508091505092915050565b5f6110bb8383611042565b905092915050565b5f602082019050919050565b5f6110d982611019565b6110e38185611023565b9350836020820285016110f585611033565b805f5b85811015611130578484038952815161111185826110b0565b945061111c836110c3565b925060208a019950506001810190506110f8565b50829750879550505050505092915050565b5f6020820190508181035f83015261115a81846110cf565b905092915050565b61116b81610dcd565b8114611175575f80fd5b50565b5f8135905061118681611162565b92915050565b5f602082840312156111a1576111a0610c40565b5b5f6111ae84828501611178565b91505092915050565b7f4e487b71000000000000000000000000000000000000000000000000000000005f52604160045260245ffd5b7f4e487b71000000000000000000000000000000000000000000000000000000005f52602260045260245ffd5b5f600282049050600182168061122857607f821691505b60208210810361123b5761123a6111e4565b5b50919050565b5f819050815f5260205f209050919050565b5f6020601f8301049050919050565b5f82821b905092915050565b5f6008830261129d7fffffffffffffffffffffffffffffffffffffffffffffffffffffffffffffffff82611262565b6112a78683611262565b95508019841693508086168417925050509392505050565b5f819050919050565b5f6112e26112dd6112d884610e06565b6112bf565b610e06565b9050919050565b5f819050919050565b6112fb836112c8565b61130f611307826112e9565b84845461126e565b825550505050565b5f90565b611323611317565b61132e8184846112f2565b505050565b5b81811015611351576113465f8261131b565b600181019050611334565b5050565b601f8211156113965761136781611241565b61137084611253565b8101602085101561137f578190505b61139361138b85611253565b830182611333565b50505b505050565b5f82821c905092915050565b5f6113b65f198460080261139b565b1980831691505092915050565b5f6113ce83836113a7565b9150826002028217905092915050565b6113e782610e73565b67ffffffffffffffff811115611400576113ff6111b7565b5b61140a8254611211565b611415828285611355565b5f60209050601f831160018114611446575f8415611434578287015190505b61143e85826113c3565b8655506114a5565b601f19841661145486611241565b5f5b8281101561147b57848901518255600182019150602085019450602081019050611456565b868310156114985784890151611494601f8916826113a7565b8355505b6001600288020188555050505b505050505050565b7f4e487b71000000000000000000000000000000000000000000000000000000005f52601160045260245ffd5b5f6114e482610e06565b91506114ef83610e06565b9250828203905081811115611507576115066114ad565b5b92915050565b5f61151782610e06565b91507fffffffffffffffffffffffffffffffffffffffffffffffffffffffffffffffff8203611549576115486114ad565b5b600182019050919050565b7f4e487b71000000000000000000000000000000000000000000000000000000005f52603260045260245ffd5b61158a81610e06565b82525050565b5f6020820190506115a35f830184611581565b92915050565b5f815490506115b781611211565b9050919050565b8181036115cc5750506116a1565b6115d5826115a9565b67ffffffffffffffff8111156115ee576115ed6111b7565b5b6115f88254611211565b611603828285611355565b5f601f831160018114611630575f841561161e578287015490505b61162885826113c3565b86555061169a565b601f19841661163e87611241565b965061164986611241565b5f5b828110156116705784890154825560018201915060018501945060208101905061164b565b8683101561168d5784890154611689601f8916826113a7565b8355505b6001600288020188555050505b5050505050505b565b7f4e487b71000000000000000000000000000000000000000000000000000000005f52603160045260245ffdfea26469706673582212205289def48884af894bec4fef4a58fc6b04ca078a9eddb7a55fdbfc396555eaf164736f6c63430008190033",
					"opcodes": "PUSH1 0x80 PUSH1 0x40 MSTORE PUSH1 0x40 MLOAD DUP1 PUSH1 0x40 ADD PUSH1 0x40 MSTORE DUP1 PUSH1 0x5 DUP2 MSTORE PUSH1 0x20 ADD PUSH32 0x76616C7565000000000000000000000000000000000000000000000000000000 DUP2 MSTORE POP PUSH1 0x1 SWAP1 DUP2 PUSH2 0x48 SWAP2 SWAP1 PUSH2 0x3DB JUMP JUMPDEST POP PUSH1 0x1 PUSH1 0x4 SSTORE CALLVALUE DUP1 ISZERO PUSH2 0x59 JUMPI PUSH0 DUP1 REVERT JUMPDEST POP CALLER PUSH0 PUSH20 0xFFFFFFFFFFFFFFFFFFFFFFFFFFFFFFFFFFFFFFFF AND DUP2 PUSH20 0xFFFFFFFFFFFFFFFFFFFFFFFFFFFFFFFFFFFFFFFF AND SUB PUSH2 0xCB JUMPI PUSH0 PUSH1 0x40 MLOAD PUSH32 0x1E4FBDF700000000000000000000000000000000000000000000000000000000 DUP2 MSTORE PUSH1 0x4 ADD PUSH2 0xC2 SWAP2 SWAP1 PUSH2 0x4E9 JUMP JUMPDEST PUSH1 0x40 MLOAD DUP1 SWAP2 SUB SWAP1 REVERT JUMPDEST PUSH2 0xDA DUP2 PUSH2 0xE0 PUSH1 0x20 SHL PUSH1 0x20 SHR JUMP JUMPDEST POP PUSH2 0x502 JUMP JUMPDEST PUSH0 DUP1 PUSH0 SWAP1 SLOAD SWAP1 PUSH2 0x100 EXP SWAP1 DIV PUSH20 0xFFFFFFFFFFFFFFFFFFFFFFFFFFFFFFFFFFFFFFFF AND SWAP1 POP DUP2 PUSH0 DUP1 PUSH2 0x100 EXP DUP2 SLOAD DUP2 PUSH20 0xFFFFFFFFFFFFFFFFFFFFFFFFFFFFFFFFFFFFFFFF MUL NOT AND SWAP1 DUP4 PUSH20 0xFFFFFFFFFFFFFFFFFFFFFFFFFFFFFFFFFFFFFFFF AND MUL OR SWAP1 SSTORE POP DUP2 PUSH20 0xFFFFFFFFFFFFFFFFFFFFFFFFFFFFFFFFFFFFFFFF AND DUP2 PUSH20 0xFFFFFFFFFFFFFFFFFFFFFFFFFFFFFFFFFFFFFFFF AND PUSH32 0x8BE0079C531659141344CD1FD0A4F28419497F9722A3DAAFE3B4186F6B6457E0 PUSH1 0x40 MLOAD PUSH1 0x40 MLOAD DUP1 SWAP2 SUB SWAP1 LOG3 POP POP JUMP JUMPDEST PUSH0 DUP2 MLOAD SWAP1 POP SWAP2 SWAP1 POP JUMP JUMPDEST PUSH32 0x4E487B7100000000000000000000000000000000000000000000000000000000 PUSH0 MSTORE PUSH1 0x41 PUSH1 0x4 MSTORE PUSH1 0x24 PUSH0 REVERT JUMPDEST PUSH32 0x4E487B7100000000000000000000000000000000000000000000000000000000 PUSH0 MSTORE PUSH1 0x22 PUSH1 0x4 MSTORE PUSH1 0x24 PUSH0 REVERT JUMPDEST PUSH0 PUSH1 0x2 DUP3 DIV SWAP1 POP PUSH1 0x1 DUP3 AND DUP1 PUSH2 0x21C JUMPI PUSH1 0x7F DUP3 AND SWAP2 POP JUMPDEST PUSH1 0x20 DUP3 LT DUP2 SUB PUSH2 0x22F JUMPI PUSH2 0x22E PUSH2 0x1D8 JUMP JUMPDEST JUMPDEST POP SWAP2 SWAP1 POP JUMP JUMPDEST PUSH0 DUP2 SWAP1 POP DUP2 PUSH0 MSTORE PUSH1 0x20 PUSH0 KECCAK256 SWAP1 POP SWAP2 SWAP1 POP JUMP JUMPDEST PUSH0 PUSH1 0x20 PUSH1 0x1F DUP4 ADD DIV SWAP1 POP SWAP2 SWAP1 POP JUMP JUMPDEST PUSH0 DUP3 DUP3 SHL SWAP1 POP SWAP3 SWAP2 POP POP JUMP JUMPDEST PUSH0 PUSH1 0x8 DUP4 MUL PUSH2 0x291 PUSH32 0xFFFFFFFFFFFFFFFFFFFFFFFFFFFFFFFFFFFFFFFFFFFFFFFFFFFFFFFFFFFFFFFF DUP3 PUSH2 0x256 JUMP JUMPDEST PUSH2 0x29B DUP7 DUP4 PUSH2 0x256 JUMP JUMPDEST SWAP6 POP DUP1 NOT DUP5 AND SWAP4 POP DUP1 DUP7 AND DUP5 OR SWAP3 POP POP POP SWAP4 SWAP3 POP POP POP JUMP JUMPDEST PUSH0 DUP2 SWAP1 POP SWAP2 SWAP1 POP JUMP JUMPDEST PUSH0 DUP2 SWAP1 POP SWAP2 SWAP1 POP JUMP JUMPDEST PUSH0 PUSH2 0x2DF PUSH2 0x2DA PUSH2 0x2D5 DUP5 PUSH2 0x2B3 JUMP JUMPDEST PUSH2 0x2BC JUMP JUMPDEST PUSH2 0x2B3 JUMP JUMPDEST SWAP1 POP SWAP2 SWAP1 POP JUMP JUMPDEST PUSH0 DUP2 SWAP1 POP SWAP2 SWAP1 POP JUMP JUMPDEST PUSH2 0x2F8 DUP4 PUSH2 0x2C5 JUMP JUMPDEST PUSH2 0x30C PUSH2 0x304 DUP3 PUSH2 0x2E6 JUMP JUMPDEST DUP5 DUP5 SLOAD PUSH2 0x262 JUMP JUMPDEST DUP3 SSTORE POP POP POP POP JUMP JUMPDEST PUSH0 SWAP1 JUMP JUMPDEST PUSH2 0x320 PUSH2 0x314 JUMP JUMPDEST PUSH2 0x32B DUP2 DUP5 DUP5 PUSH2 0x2EF JUMP JUMPDEST POP POP POP JUMP JUMPDEST JUMPDEST DUP2 DUP2 LT ISZERO PUSH2 0x34E JUMPI PUSH2 0x343 PUSH0 DUP3 PUSH2 0x318 JUMP JUMPDEST PUSH1 0x1 DUP2 ADD SWAP1 POP PUSH2 0x331 JUMP JUMPDEST POP POP JUMP JUMPDEST PUSH1 0x1F DUP3 GT ISZERO PUSH2 0x393 JUMPI PUSH2 0x364 DUP2 PUSH2 0x235 JUMP JUMPDEST PUSH2 0x36D DUP5 PUSH2 0x247 JUMP JUMPDEST DUP2 ADD PUSH1 0x20 DUP6 LT ISZERO PUSH2 0x37C JUMPI DUP2 SWAP1 POP JUMPDEST PUSH2 0x390 PUSH2 0x388 DUP6 PUSH2 0x247 JUMP JUMPDEST DUP4 ADD DUP3 PUSH2 0x330 JUMP JUMPDEST POP POP JUMPDEST POP POP POP JUMP JUMPDEST PUSH0 DUP3 DUP3 SHR SWAP1 POP SWAP3 SWAP2 POP POP JUMP JUMPDEST PUSH0 PUSH2 0x3B3 PUSH0 NOT DUP5 PUSH1 0x8 MUL PUSH2 0x398 JUMP JUMPDEST NOT DUP1 DUP4 AND SWAP2 POP POP SWAP3 SWAP2 POP POP JUMP JUMPDEST PUSH0 PUSH2 0x3CB DUP4 DUP4 PUSH2 0x3A4 JUMP JUMPDEST SWAP2 POP DUP3 PUSH1 0x2 MUL DUP3 OR SWAP1 POP SWAP3 SWAP2 POP POP JUMP JUMPDEST PUSH2 0x3E4 DUP3 PUSH2 0x1A1 JUMP JUMPDEST PUSH8 0xFFFFFFFFFFFFFFFF DUP2 GT ISZERO PUSH2 0x3FD JUMPI PUSH2 0x3FC PUSH2 0x1AB JUMP JUMPDEST JUMPDEST PUSH2 0x407 DUP3 SLOAD PUSH2 0x205 JUMP JUMPDEST PUSH2 0x412 DUP3 DUP3 DUP6 PUSH2 0x352 JUMP JUMPDEST PUSH0 PUSH1 0x20 SWAP1 POP PUSH1 0x1F DUP4 GT PUSH1 0x1 DUP2 EQ PUSH2 0x443 JUMPI PUSH0 DUP5 ISZERO PUSH2 0x431 JUMPI DUP3 DUP8 ADD MLOAD SWAP1 POP JUMPDEST PUSH2 0x43B DUP6 DUP3 PUSH2 0x3C0 JUMP JUMPDEST DUP7 SSTORE POP PUSH2 0x4A2 JUMP JUMPDEST PUSH1 0x1F NOT DUP5 AND PUSH2 0x451 DUP7 PUSH2 0x235 JUMP JUMPDEST PUSH0 JUMPDEST DUP3 DUP2 LT ISZERO PUSH2 0x478 JUMPI DUP5 DUP10 ADD MLOAD DUP3 SSTORE PUSH1 0x1 DUP3 ADD SWAP2 POP PUSH1 0x20 DUP6 ADD SWAP5 POP PUSH1 0x20 DUP2 ADD SWAP1 POP PUSH2 0x453 JUMP JUMPDEST DUP7 DUP4 LT ISZERO PUSH2 0x495 JUMPI DUP5 DUP10 ADD MLOAD PUSH2 0x491 PUSH1 0x1F DUP10 AND DUP3 PUSH2 0x3A4 JUMP JUMPDEST DUP4 SSTORE POP JUMPDEST PUSH1 0x1 PUSH1 0x2 DUP9 MUL ADD DUP9 SSTORE POP POP POP JUMPDEST POP POP POP POP POP POP JUMP JUMPDEST PUSH0 PUSH20 0xFFFFFFFFFFFFFFFFFFFFFFFFFFFFFFFFFFFFFFFF DUP3 AND SWAP1 POP SWAP2 SWAP1 POP JUMP JUMPDEST PUSH0 PUSH2 0x4D3 DUP3 PUSH2 0x4AA JUMP JUMPDEST SWAP1 POP SWAP2 SWAP1 POP JUMP JUMPDEST PUSH2 0x4E3 DUP2 PUSH2 0x4C9 JUMP JUMPDEST DUP3 MSTORE POP POP JUMP JUMPDEST PUSH0 PUSH1 0x20 DUP3 ADD SWAP1 POP PUSH2 0x4FC PUSH0 DUP4 ADD DUP5 PUSH2 0x4DA JUMP JUMPDEST SWAP3 SWAP2 POP POP JUMP JUMPDEST PUSH2 0x1706 DUP1 PUSH2 0x50F PUSH0 CODECOPY PUSH0 RETURN INVALID PUSH1 0x80 PUSH1 0x40 MSTORE CALLVALUE DUP1 ISZERO PUSH2 0xF JUMPI PUSH0 DUP1 REVERT JUMPDEST POP PUSH1 0x4 CALLDATASIZE LT PUSH2 0x7B JUMPI PUSH0 CALLDATALOAD PUSH1 0xE0 SHR DUP1 PUSH4 0xB9ED6FCA GT PUSH2 0x59 JUMPI DUP1 PUSH4 0xB9ED6FCA EQ PUSH2 0xC3 JUMPI DUP1 PUSH4 0xE6505E1E EQ PUSH2 0xDF JUMPI DUP1 PUSH4 0xEF1D6DDD EQ PUSH2 0x10F JUMPI DUP1 PUSH4 0xF2FDE38B EQ PUSH2 0x12D JUMPI PUSH2 0x7B JUMP JUMPDEST DUP1 PUSH4 0x3F06F6E8 EQ PUSH2 0x7F JUMPI DUP1 PUSH4 0x715018A6 EQ PUSH2 0x9B JUMPI DUP1 PUSH4 0x8DA5CB5B EQ PUSH2 0xA5 JUMPI JUMPDEST PUSH0 DUP1 REVERT JUMPDEST PUSH2 0x99 PUSH1 0x4 DUP1 CALLDATASIZE SUB DUP2 ADD SWAP1 PUSH2 0x94 SWAP2 SWAP1 PUSH2 0xCFE JUMP JUMPDEST PUSH2 0x149 JUMP JUMPDEST STOP JUMPDEST PUSH2 0xA3 PUSH2 0x2FD JUMP JUMPDEST STOP JUMPDEST PUSH2 0xAD PUSH2 0x310 JUMP JUMPDEST PUSH1 0x40 MLOAD PUSH2 0xBA SWAP2 SWAP1 PUSH2 0xDED JUMP JUMPDEST PUSH1 0x40 MLOAD DUP1 SWAP2 SUB SWAP1 RETURN JUMPDEST PUSH2 0xDD PUSH1 0x4 DUP1 CALLDATASIZE SUB DUP2 ADD SWAP1 PUSH2 0xD8 SWAP2 SWAP1 PUSH2 0xE39 JUMP JUMPDEST PUSH2 0x337 JUMP JUMPDEST STOP JUMPDEST PUSH2 0xF9 PUSH1 0x4 DUP1 CALLDATASIZE SUB DUP2 ADD SWAP1 PUSH2 0xF4 SWAP2 SWAP1 PUSH2 0xE39 JUMP JUMPDEST PUSH2 0x515 JUMP JUMPDEST PUSH1 0x40 MLOAD PUSH2 0x106 SWAP2 SWAP1 PUSH2 0xFF9 JUMP JUMPDEST PUSH1 0x40 MLOAD DUP1 SWAP2 SUB SWAP1 RETURN JUMPDEST PUSH2 0x117 PUSH2 0x75C JUMP JUMPDEST PUSH1 0x40 MLOAD PUSH2 0x124 SWAP2 SWAP1 PUSH2 0x1142 JUMP JUMPDEST PUSH1 0x40 MLOAD DUP1 SWAP2 SUB SWAP1 RETURN JUMPDEST PUSH2 0x147 PUSH1 0x4 DUP1 CALLDATASIZE SUB DUP2 ADD SWAP1 PUSH2 0x142 SWAP2 SWAP1 PUSH2 0x118C JUMP JUMPDEST PUSH2 0x937 JUMP JUMPDEST STOP JUMPDEST PUSH2 0x151 PUSH2 0x9BB JUMP JUMPDEST PUSH1 0x2 PUSH1 0x40 MLOAD DUP1 PUSH1 0x80 ADD PUSH1 0x40 MSTORE DUP1 PUSH1 0x4 SLOAD DUP2 MSTORE PUSH1 0x20 ADD DUP9 DUP9 DUP1 DUP1 PUSH1 0x1F ADD PUSH1 0x20 DUP1 SWAP2 DIV MUL PUSH1 0x20 ADD PUSH1 0x40 MLOAD SWAP1 DUP2 ADD PUSH1 0x40 MSTORE DUP1 SWAP4 SWAP3 SWAP2 SWAP1 DUP2 DUP2 MSTORE PUSH1 0x20 ADD DUP4 DUP4 DUP1 DUP3 DUP5 CALLDATACOPY PUSH0 DUP2 DUP5 ADD MSTORE PUSH1 0x1F NOT PUSH1 0x1F DUP3 ADD AND SWAP1 POP DUP1 DUP4 ADD SWAP3 POP POP POP POP POP POP POP DUP2 MSTORE PUSH1 0x20 ADD DUP7 DUP7 DUP1 DUP1 PUSH1 0x1F ADD PUSH1 0x20 DUP1 SWAP2 DIV MUL PUSH1 0x20 ADD PUSH1 0x40 MLOAD SWAP1 DUP2 ADD PUSH1 0x40 MSTORE DUP1 SWAP4 SWAP3 SWAP2 SWAP1 DUP2 DUP2 MSTORE PUSH1 0x20 ADD DUP4 DUP4 DUP1 DUP3 DUP5 CALLDATACOPY PUSH0 DUP2 DUP5 ADD MSTORE PUSH1 0x1F NOT PUSH1 0x1F DUP3 ADD AND SWAP1 POP DUP1 DUP4 ADD SWAP3 POP POP POP POP POP POP POP DUP2 MSTORE PUSH1 0x20 ADD DUP5 DUP5 DUP1 DUP1 PUSH1 0x20 MUL PUSH1 0x20 ADD PUSH1 0x40 MLOAD SWAP1 DUP2 ADD PUSH1 0x40 MSTORE DUP1 SWAP4 SWAP3 SWAP2 SWAP1 DUP2 DUP2 MSTORE PUSH1 0x20 ADD DUP4 DUP4 PUSH1 0x20 MUL DUP1 DUP3 DUP5 CALLDATACOPY PUSH0 DUP2 DUP5 ADD MSTORE PUSH1 0x1F NOT PUSH1 0x1F DUP3 ADD AND SWAP1 POP DUP1 DUP4 ADD SWAP3 POP POP POP POP POP POP POP DUP2 MSTORE POP SWAP1 DUP1 PUSH1 0x1 DUP2 SLOAD ADD DUP1 DUP3 SSTORE DUP1 SWAP2 POP POP PUSH1 0x1 SWAP1 SUB SWAP1 PUSH0 MSTORE PUSH1 0x20 PUSH0 KECCAK256 SWAP1 PUSH1 0x4 MUL ADD PUSH0 SWAP1 SWAP2 SWAP1 SWAP2 SWAP1 SWAP2 POP PUSH0 DUP3 ADD MLOAD DUP2 PUSH0 ADD SSTORE PUSH1 0x20 DUP3 ADD MLOAD DUP2 PUSH1 0x1 ADD SWAP1 DUP2 PUSH2 0x27F SWAP2 SWAP1 PUSH2 0x13DE JUMP JUMPDEST POP PUSH1 0x40 DUP3 ADD MLOAD DUP2 PUSH1 0x2 ADD SWAP1 DUP2 PUSH2 0x295 SWAP2 SWAP1 PUSH2 0x13DE JUMP JUMPDEST POP PUSH1 0x60 DUP3 ADD MLOAD DUP2 PUSH1 0x3 ADD SWAP1 DUP1 MLOAD SWAP1 PUSH1 0x20 ADD SWAP1 PUSH2 0x2B2 SWAP3 SWAP2 SWAP1 PUSH2 0xB0A JUMP JUMPDEST POP POP POP PUSH1 0x1 PUSH1 0x2 DUP1 SLOAD SWAP1 POP PUSH2 0x2C7 SWAP2 SWAP1 PUSH2 0x14DA JUMP JUMPDEST PUSH1 0x3 PUSH0 PUSH1 0x4 SLOAD DUP2 MSTORE PUSH1 0x20 ADD SWAP1 DUP2 MSTORE PUSH1 0x20 ADD PUSH0 KECCAK256 DUP2 SWAP1 SSTORE POP PUSH1 0x4 PUSH0 DUP2 SLOAD DUP1 SWAP3 SWAP2 SWAP1 PUSH2 0x2F0 SWAP1 PUSH2 0x150D JUMP JUMPDEST SWAP2 SWAP1 POP SSTORE POP POP POP POP POP POP POP JUMP JUMPDEST PUSH2 0x305 PUSH2 0x9BB JUMP JUMPDEST PUSH2 0x30E PUSH0 PUSH2 0xA42 JUMP JUMPDEST JUMP JUMPDEST PUSH0 DUP1 PUSH0 SWAP1 SLOAD SWAP1 PUSH2 0x100 EXP SWAP1 DIV PUSH20 0xFFFFFFFFFFFFFFFFFFFFFFFFFFFFFFFFFFFFFFFF AND SWAP1 POP SWAP1 JUMP JUMPDEST PUSH2 0x33F PUSH2 0x9BB JUMP JUMPDEST PUSH0 PUSH1 0x3 PUSH0 DUP4 DUP2 MSTORE PUSH1 0x20 ADD SWAP1 DUP2 MSTORE PUSH1 0x20 ADD PUSH0 KECCAK256 SLOAD SWAP1 POP PUSH1 0x2 DUP1 SLOAD SWAP1 POP DUP2 LT ISZERO DUP1 PUSH2 0x38A JUMPI POP DUP2 PUSH1 0x2 DUP3 DUP2 SLOAD DUP2 LT PUSH2 0x378 JUMPI PUSH2 0x377 PUSH2 0x1554 JUMP JUMPDEST JUMPDEST SWAP1 PUSH0 MSTORE PUSH1 0x20 PUSH0 KECCAK256 SWAP1 PUSH1 0x4 MUL ADD PUSH0 ADD SLOAD EQ ISZERO JUMPDEST ISZERO PUSH2 0x3CC JUMPI DUP2 PUSH1 0x40 MLOAD PUSH32 0xF55DEC0000000000000000000000000000000000000000000000000000000000 DUP2 MSTORE PUSH1 0x4 ADD PUSH2 0x3C3 SWAP2 SWAP1 PUSH2 0x1590 JUMP JUMPDEST PUSH1 0x40 MLOAD DUP1 SWAP2 SUB SWAP1 REVERT JUMPDEST PUSH1 0x2 PUSH1 0x1 PUSH1 0x2 DUP1 SLOAD SWAP1 POP PUSH2 0x3E0 SWAP2 SWAP1 PUSH2 0x14DA JUMP JUMPDEST DUP2 SLOAD DUP2 LT PUSH2 0x3F1 JUMPI PUSH2 0x3F0 PUSH2 0x1554 JUMP JUMPDEST JUMPDEST SWAP1 PUSH0 MSTORE PUSH1 0x20 PUSH0 KECCAK256 SWAP1 PUSH1 0x4 MUL ADD PUSH1 0x2 DUP3 DUP2 SLOAD DUP2 LT PUSH2 0x411 JUMPI PUSH2 0x410 PUSH2 0x1554 JUMP JUMPDEST JUMPDEST SWAP1 PUSH0 MSTORE PUSH1 0x20 PUSH0 KECCAK256 SWAP1 PUSH1 0x4 MUL ADD PUSH0 DUP3 ADD SLOAD DUP2 PUSH0 ADD SSTORE PUSH1 0x1 DUP3 ADD DUP2 PUSH1 0x1 ADD SWAP1 DUP2 PUSH2 0x439 SWAP2 SWAP1 PUSH2 0x15BE JUMP JUMPDEST POP PUSH1 0x2 DUP3 ADD DUP2 PUSH1 0x2 ADD SWAP1 DUP2 PUSH2 0x44E SWAP2 SWAP1 PUSH2 0x15BE JUMP JUMPDEST POP PUSH1 0x3 DUP3 ADD DUP2 PUSH1 0x3 ADD SWAP1 DUP1 SLOAD PUSH2 0x465 SWAP3 SWAP2 SWAP1 PUSH2 0xB55 JUMP JUMPDEST POP SWAP1 POP POP DUP1 PUSH1 0x3 PUSH0 PUSH1 0x2 DUP5 DUP2 SLOAD DUP2 LT PUSH2 0x481 JUMPI PUSH2 0x480 PUSH2 0x1554 JUMP JUMPDEST JUMPDEST SWAP1 PUSH0 MSTORE PUSH1 0x20 PUSH0 KECCAK256 SWAP1 PUSH1 0x4 MUL ADD PUSH0 ADD SLOAD DUP2 MSTORE PUSH1 0x20 ADD SWAP1 DUP2 MSTORE PUSH1 0x20 ADD PUSH0 KECCAK256 DUP2 SWAP1 SSTORE POP PUSH1 0x2 DUP1 SLOAD DUP1 PUSH2 0x4B3 JUMPI PUSH2 0x4B2 PUSH2 0x16A3 JUMP JUMPDEST JUMPDEST PUSH1 0x1 SWAP1 SUB DUP2 DUP2 SWAP1 PUSH0 MSTORE PUSH1 0x20 PUSH0 KECCAK256 SWAP1 PUSH1 0x4 MUL ADD PUSH0 DUP1 DUP3 ADD PUSH0 SWAP1 SSTORE PUSH1 0x1 DUP3 ADD PUSH0 PUSH2 0x4DB SWAP2 SWAP1 PUSH2 0xBA3 JUMP JUMPDEST PUSH1 0x2 DUP3 ADD PUSH0 PUSH2 0x4EA SWAP2 SWAP1 PUSH2 0xBA3 JUMP JUMPDEST PUSH1 0x3 DUP3 ADD PUSH0 PUSH2 0x4F9 SWAP2 SWAP1 PUSH2 0xBE0 JUMP JUMPDEST POP POP SWAP1 SSTORE PUSH1 0x3 PUSH0 DUP4 DUP2 MSTORE PUSH1 0x20 ADD SWAP1 DUP2 MSTORE PUSH1 0x20 ADD PUSH0 KECCAK256 PUSH0 SWAP1 SSTORE POP POP JUMP JUMPDEST PUSH2 0x51D PUSH2 0xBFE JUMP JUMPDEST PUSH0 PUSH1 0x3 PUSH0 DUP5 DUP2 MSTORE PUSH1 0x20 ADD SWAP1 DUP2 MSTORE PUSH1 0x20 ADD PUSH0 KECCAK256 SLOAD SWAP1 POP PUSH1 0x2 DUP1 SLOAD SWAP1 POP DUP2 LT ISZERO DUP1 PUSH2 0x568 JUMPI POP DUP3 PUSH1 0x2 DUP3 DUP2 SLOAD DUP2 LT PUSH2 0x556 JUMPI PUSH2 0x555 PUSH2 0x1554 JUMP JUMPDEST JUMPDEST SWAP1 PUSH0 MSTORE PUSH1 0x20 PUSH0 KECCAK256 SWAP1 PUSH1 0x4 MUL ADD PUSH0 ADD SLOAD EQ ISZERO JUMPDEST ISZERO PUSH2 0x5AA JUMPI DUP3 PUSH1 0x40 MLOAD PUSH32 0xF55DEC0000000000000000000000000000000000000000000000000000000000 DUP2 MSTORE PUSH1 0x4 ADD PUSH2 0x5A1 SWAP2 SWAP1 PUSH2 0x1590 JUMP JUMPDEST PUSH1 0x40 MLOAD DUP1 SWAP2 SUB SWAP1 REVERT JUMPDEST PUSH1 0x2 DUP2 DUP2 SLOAD DUP2 LT PUSH2 0x5BE JUMPI PUSH2 0x5BD PUSH2 0x1554 JUMP JUMPDEST JUMPDEST SWAP1 PUSH0 MSTORE PUSH1 0x20 PUSH0 KECCAK256 SWAP1 PUSH1 0x4 MUL ADD PUSH1 0x40 MLOAD DUP1 PUSH1 0x80 ADD PUSH1 0x40 MSTORE SWAP1 DUP2 PUSH0 DUP3 ADD SLOAD DUP2 MSTORE PUSH1 0x20 ADD PUSH1 0x1 DUP3 ADD DUP1 SLOAD PUSH2 0x5EE SWAP1 PUSH2 0x1211 JUMP JUMPDEST DUP1 PUSH1 0x1F ADD PUSH1 0x20 DUP1 SWAP2 DIV MUL PUSH1 0x20 ADD PUSH1 0x40 MLOAD SWAP1 DUP2 ADD PUSH1 0x40 MSTORE DUP1 SWAP3 SWAP2 SWAP1 DUP2 DUP2 MSTORE PUSH1 0x20 ADD DUP3 DUP1 SLOAD PUSH2 0x61A SWAP1 PUSH2 0x1211 JUMP JUMPDEST DUP1 ISZERO PUSH2 0x665 JUMPI DUP1 PUSH1 0x1F LT PUSH2 0x63C JUMPI PUSH2 0x100 DUP1 DUP4 SLOAD DIV MUL DUP4 MSTORE SWAP2 PUSH1 0x20 ADD SWAP2 PUSH2 0x665 JUMP JUMPDEST DUP3 ADD SWAP2 SWAP1 PUSH0 MSTORE PUSH1 0x20 PUSH0 KECCAK256 SWAP1 JUMPDEST DUP2 SLOAD DUP2 MSTORE SWAP1 PUSH1 0x1 ADD SWAP1 PUSH1 0x20 ADD DUP1 DUP4 GT PUSH2 0x648 JUMPI DUP3 SWAP1 SUB PUSH1 0x1F AND DUP3 ADD SWAP2 JUMPDEST POP POP POP POP POP DUP2 MSTORE PUSH1 0x20 ADD PUSH1 0x2 DUP3 ADD DUP1 SLOAD PUSH2 0x67E SWAP1 PUSH2 0x1211 JUMP JUMPDEST DUP1 PUSH1 0x1F ADD PUSH1 0x20 DUP1 SWAP2 DIV MUL PUSH1 0x20 ADD PUSH1 0x40 MLOAD SWAP1 DUP2 ADD PUSH1 0x40 MSTORE DUP1 SWAP3 SWAP2 SWAP1 DUP2 DUP2 MSTORE PUSH1 0x20 ADD DUP3 DUP1 SLOAD PUSH2 0x6AA SWAP1 PUSH2 0x1211 JUMP JUMPDEST DUP1 ISZERO PUSH2 0x6F5 JUMPI DUP1 PUSH1 0x1F LT PUSH2 0x6CC JUMPI PUSH2 0x100 DUP1 DUP4 SLOAD DIV MUL DUP4 MSTORE SWAP2 PUSH1 0x20 ADD SWAP2 PUSH2 0x6F5 JUMP JUMPDEST DUP3 ADD SWAP2 SWAP1 PUSH0 MSTORE PUSH1 0x20 PUSH0 KECCAK256 SWAP1 JUMPDEST DUP2 SLOAD DUP2 MSTORE SWAP1 PUSH1 0x1 ADD SWAP1 PUSH1 0x20 ADD DUP1 DUP4 GT PUSH2 0x6D8 JUMPI DUP3 SWAP1 SUB PUSH1 0x1F AND DUP3 ADD SWAP2 JUMPDEST POP POP POP POP POP DUP2 MSTORE PUSH1 0x20 ADD PUSH1 0x3 DUP3 ADD DUP1 SLOAD DUP1 PUSH1 0x20 MUL PUSH1 0x20 ADD PUSH1 0x40 MLOAD SWAP1 DUP2 ADD PUSH1 0x40 MSTORE DUP1 SWAP3 SWAP2 SWAP1 DUP2 DUP2 MSTORE PUSH1 0x20 ADD DUP3 DUP1 SLOAD DUP1 ISZERO PUSH2 0x74B JUMPI PUSH1 0x20 MUL DUP3 ADD SWAP2 SWAP1 PUSH0 MSTORE PUSH1 0x20 PUSH0 KECCAK256 SWAP1 JUMPDEST DUP2 SLOAD DUP2 MSTORE PUSH1 0x20 ADD SWAP1 PUSH1 0x1 ADD SWAP1 DUP1 DUP4 GT PUSH2 0x737 JUMPI JUMPDEST POP POP POP POP POP DUP2 MSTORE POP POP SWAP2 POP POP SWAP2 SWAP1 POP JUMP JUMPDEST PUSH1 0x60 PUSH1 0x2 DUP1 SLOAD DUP1 PUSH1 0x20 MUL PUSH1 0x20 ADD PUSH1 0x40 MLOAD SWAP1 DUP2 ADD PUSH1 0x40 MSTORE DUP1 SWAP3 SWAP2 SWAP1 DUP2 DUP2 MSTORE PUSH1 0x20 ADD PUSH0 SWAP1 JUMPDEST DUP3 DUP3 LT ISZERO PUSH2 0x92E JUMPI DUP4 DUP3 SWAP1 PUSH0 MSTORE PUSH1 0x20 PUSH0 KECCAK256 SWAP1 PUSH1 0x4 MUL ADD PUSH1 0x40 MLOAD DUP1 PUSH1 0x80 ADD PUSH1 0x40 MSTORE SWAP1 DUP2 PUSH0 DUP3 ADD SLOAD DUP2 MSTORE PUSH1 0x20 ADD PUSH1 0x1 DUP3 ADD DUP1 SLOAD PUSH2 0x7B9 SWAP1 PUSH2 0x1211 JUMP JUMPDEST DUP1 PUSH1 0x1F ADD PUSH1 0x20 DUP1 SWAP2 DIV MUL PUSH1 0x20 ADD PUSH1 0x40 MLOAD SWAP1 DUP2 ADD PUSH1 0x40 MSTORE DUP1 SWAP3 SWAP2 SWAP1 DUP2 DUP2 MSTORE PUSH1 0x20 ADD DUP3 DUP1 SLOAD PUSH2 0x7E5 SWAP1 PUSH2 0x1211 JUMP JUMPDEST DUP1 ISZERO PUSH2 0x830 JUMPI DUP1 PUSH1 0x1F LT PUSH2 0x807 JUMPI PUSH2 0x100 DUP1 DUP4 SLOAD DIV MUL DUP4 MSTORE SWAP2 PUSH1 0x20 ADD SWAP2 PUSH2 0x830 JUMP JUMPDEST DUP3 ADD SWAP2 SWAP1 PUSH0 MSTORE PUSH1 0x20 PUSH0 KECCAK256 SWAP1 JUMPDEST DUP2 SLOAD DUP2 MSTORE SWAP1 PUSH1 0x1 ADD SWAP1 PUSH1 0x20 ADD DUP1 DUP4 GT PUSH2 0x813 JUMPI DUP3 SWAP1 SUB PUSH1 0x1F AND DUP3 ADD SWAP2 JUMPDEST POP POP POP POP POP DUP2 MSTORE PUSH1 0x20 ADD PUSH1 0x2 DUP3 ADD DUP1 SLOAD PUSH2 0x849 SWAP1 PUSH2 0x1211 JUMP JUMPDEST DUP1 PUSH1 0x1F ADD PUSH1 0x20 DUP1 SWAP2 DIV MUL PUSH1 0x20 ADD PUSH1 0x40 MLOAD SWAP1 DUP2 ADD PUSH1 0x40 MSTORE DUP1 SWAP3 SWAP2 SWAP1 DUP2 DUP2 MSTORE PUSH1 0x20 ADD DUP3 DUP1 SLOAD PUSH2 0x875 SWAP1 PUSH2 0x1211 JUMP JUMPDEST DUP1 ISZERO PUSH2 0x8C0 JUMPI DUP1 PUSH1 0x1F LT PUSH2 0x897 JUMPI PUSH2 0x100 DUP1 DUP4 SLOAD DIV MUL DUP4 MSTORE SWAP2 PUSH1 0x20 ADD SWAP2 PUSH2 0x8C0 JUMP JUMPDEST DUP3 ADD SWAP2 SWAP1 PUSH0 MSTORE PUSH1 0x20 PUSH0 KECCAK256 SWAP1 JUMPDEST DUP2 SLOAD DUP2 MSTORE SWAP1 PUSH1 0x1 ADD SWAP1 PUSH1 0x20 ADD DUP1 DUP4 GT PUSH2 0x8A3 JUMPI DUP3 SWAP1 SUB PUSH1 0x1F AND DUP3 ADD SWAP2 JUMPDEST POP POP POP POP POP DUP2 MSTORE PUSH1 0x20 ADD PUSH1 0x3 DUP3 ADD DUP1 SLOAD DUP1 PUSH1 0x20 MUL PUSH1 0x20 ADD PUSH1 0x40 MLOAD SWAP1 DUP2 ADD PUSH1 0x40 MSTORE DUP1 SWAP3 SWAP2 SWAP1 DUP2 DUP2 MSTORE PUSH1 0x20 ADD DUP3 DUP1 SLOAD DUP1 ISZERO PUSH2 0x916 JUMPI PUSH1 0x20 MUL DUP3 ADD SWAP2 SWAP1 PUSH0 MSTORE PUSH1 0x20 PUSH0 KECCAK256 SWAP1 JUMPDEST DUP2 SLOAD DUP2 MSTORE PUSH1 0x20 ADD SWAP1 PUSH1 0x1 ADD SWAP1 DUP1 DUP4 GT PUSH2 0x902 JUMPI JUMPDEST POP POP POP POP POP DUP2 MSTORE POP POP DUP2 MSTORE PUSH1 0x20 ADD SWAP1 PUSH1 0x1 ADD SWAP1 PUSH2 0x77F JUMP JUMPDEST POP POP POP POP SWAP1 POP SWAP1 JUMP JUMPDEST PUSH2 0x93F PUSH2 0x9BB JUMP JUMPDEST PUSH0 PUSH20 0xFFFFFFFFFFFFFFFFFFFFFFFFFFFFFFFFFFFFFFFF AND DUP2 PUSH20 0xFFFFFFFFFFFFFFFFFFFFFFFFFFFFFFFFFFFFFFFF AND SUB PUSH2 0x9AF JUMPI PUSH0 PUSH1 0x40 MLOAD PUSH32 0x1E4FBDF700000000000000000000000000000000000000000000000000000000 DUP2 MSTORE PUSH1 0x4 ADD PUSH2 0x9A6 SWAP2 SWAP1 PUSH2 0xDED JUMP JUMPDEST PUSH1 0x40 MLOAD DUP1 SWAP2 SUB SWAP1 REVERT JUMPDEST PUSH2 0x9B8 DUP2 PUSH2 0xA42 JUMP JUMPDEST POP JUMP JUMPDEST PUSH2 0x9C3 PUSH2 0xB03 JUMP JUMPDEST PUSH20 0xFFFFFFFFFFFFFFFFFFFFFFFFFFFFFFFFFFFFFFFF AND PUSH2 0x9E1 PUSH2 0x310 JUMP JUMPDEST PUSH20 0xFFFFFFFFFFFFFFFFFFFFFFFFFFFFFFFFFFFFFFFF AND EQ PUSH2 0xA40 JUMPI PUSH2 0xA04 PUSH2 0xB03 JUMP JUMPDEST PUSH1 0x40 MLOAD PUSH32 0x118CDAA700000000000000000000000000000000000000000000000000000000 DUP2 MSTORE PUSH1 0x4 ADD PUSH2 0xA37 SWAP2 SWAP1 PUSH2 0xDED JUMP JUMPDEST PUSH1 0x40 MLOAD DUP1 SWAP2 SUB SWAP1 REVERT JUMPDEST JUMP JUMPDEST PUSH0 DUP1 PUSH0 SWAP1 SLOAD SWAP1 PUSH2 0x100 EXP SWAP1 DIV PUSH20 0xFFFFFFFFFFFFFFFFFFFFFFFFFFFFFFFFFFFFFFFF AND SWAP1 POP DUP2 PUSH0 DUP1 PUSH2 0x100 EXP DUP2 SLOAD DUP2 PUSH20 0xFFFFFFFFFFFFFFFFFFFFFFFFFFFFFFFFFFFFFFFF MUL NOT AND SWAP1 DUP4 PUSH20 0xFFFFFFFFFFFFFFFFFFFFFFFFFFFFFFFFFFFFFFFF AND MUL OR SWAP1 SSTORE POP DUP2 PUSH20 0xFFFFFFFFFFFFFFFFFFFFFFFFFFFFFFFFFFFFFFFF AND DUP2 PUSH20 0xFFFFFFFFFFFFFFFFFFFFFFFFFFFFFFFFFFFFFFFF AND PUSH32 0x8BE0079C531659141344CD1FD0A4F28419497F9722A3DAAFE3B4186F6B6457E0 PUSH1 0x40 MLOAD PUSH1 0x40 MLOAD DUP1 SWAP2 SUB SWAP1 LOG3 POP POP JUMP JUMPDEST PUSH0 CALLER SWAP1 POP SWAP1 JUMP JUMPDEST DUP3 DUP1 SLOAD DUP3 DUP3 SSTORE SWAP1 PUSH0 MSTORE PUSH1 0x20 PUSH0 KECCAK256 SWAP1 DUP2 ADD SWAP3 DUP3 ISZERO PUSH2 0xB44 JUMPI SWAP2 PUSH1 0x20 MUL DUP3 ADD JUMPDEST DUP3 DUP2 GT ISZERO PUSH2 0xB43 JUMPI DUP3 MLOAD DUP3 SSTORE SWAP2 PUSH1 0x20 ADD SWAP2 SWAP1 PUSH1 0x1 ADD SWAP1 PUSH2 0xB28 JUMP JUMPDEST JUMPDEST POP SWAP1 POP PUSH2 0xB51 SWAP2 SWAP1 PUSH2 0xC25 JUMP JUMPDEST POP SWAP1 JUMP JUMPDEST DUP3 DUP1 SLOAD DUP3 DUP3 SSTORE SWAP1 PUSH0 MSTORE PUSH1 0x20 PUSH0 KECCAK256 SWAP1 DUP2 ADD SWAP3 DUP3 ISZERO PUSH2 0xB92 JUMPI PUSH0 MSTORE PUSH1 0x20 PUSH0 KECCAK256 SWAP2 DUP3 ADD JUMPDEST DUP3 DUP2 GT ISZERO PUSH2 0xB91 JUMPI DUP3 SLOAD DUP3 SSTORE SWAP2 PUSH1 0x1 ADD SWAP2 SWAP1 PUSH1 0x1 ADD SWAP1 PUSH2 0xB76 JUMP JUMPDEST JUMPDEST POP SWAP1 POP PUSH2 0xB9F SWAP2 SWAP1 PUSH2 0xC25 JUMP JUMPDEST POP SWAP1 JUMP JUMPDEST POP DUP1 SLOAD PUSH2 0xBAF SWAP1 PUSH2 0x1211 JUMP JUMPDEST PUSH0 DUP3 SSTORE DUP1 PUSH1 0x1F LT PUSH2 0xBC0 JUMPI POP PUSH2 0xBDD JUMP JUMPDEST PUSH1 0x1F ADD PUSH1 0x20 SWAP1 DIV SWAP1 PUSH0 MSTORE PUSH1 0x20 PUSH0 KECCAK256 SWAP1 DUP2 ADD SWAP1 PUSH2 0xBDC SWAP2 SWAP1 PUSH2 0xC25 JUMP JUMPDEST JUMPDEST POP JUMP JUMPDEST POP DUP1 SLOAD PUSH0 DUP3 SSTORE SWAP1 PUSH0 MSTORE PUSH1 0x20 PUSH0 KECCAK256 SWAP1 DUP2 ADD SWAP1 PUSH2 0xBFB SWAP2 SWAP1 PUSH2 0xC25 JUMP JUMPDEST POP JUMP JUMPDEST PUSH1 0x40 MLOAD DUP1 PUSH1 0x80 ADD PUSH1 0x40 MSTORE DUP1 PUSH0 DUP2 MSTORE PUSH1 0x20 ADD PUSH1 0x60 DUP2 MSTORE PUSH1 0x20 ADD PUSH1 0x60 DUP2 MSTORE PUSH1 0x20 ADD PUSH1 0x60 DUP2 MSTORE POP SWAP1 JUMP JUMPDEST JUMPDEST DUP1 DUP3 GT ISZERO PUSH2 0xC3C JUMPI PUSH0 DUP2 PUSH0 SWAP1 SSTORE POP PUSH1 0x1 ADD PUSH2 0xC26 JUMP JUMPDEST POP SWAP1 JUMP JUMPDEST PUSH0 DUP1 REVERT JUMPDEST PUSH0 DUP1 REVERT JUMPDEST PUSH0 DUP1 REVERT JUMPDEST PUSH0 DUP1 REVERT JUMPDEST PUSH0 DUP1 REVERT JUMPDEST PUSH0 DUP1 DUP4 PUSH1 0x1F DUP5 ADD SLT PUSH2 0xC69 JUMPI PUSH2 0xC68 PUSH2 0xC48 JUMP JUMPDEST JUMPDEST DUP3 CALLDATALOAD SWAP1 POP PUSH8 0xFFFFFFFFFFFFFFFF DUP2 GT ISZERO PUSH2 0xC86 JUMPI PUSH2 0xC85 PUSH2 0xC4C JUMP JUMPDEST JUMPDEST PUSH1 0x20 DUP4 ADD SWAP2 POP DUP4 PUSH1 0x1 DUP3 MUL DUP4 ADD GT ISZERO PUSH2 0xCA2 JUMPI PUSH2 0xCA1 PUSH2 0xC50 JUMP JUMPDEST JUMPDEST SWAP3 POP SWAP3 SWAP1 POP JUMP JUMPDEST PUSH0 DUP1 DUP4 PUSH1 0x1F DUP5 ADD SLT PUSH2 0xCBE JUMPI PUSH2 0xCBD PUSH2 0xC48 JUMP JUMPDEST JUMPDEST DUP3 CALLDATALOAD SWAP1 POP PUSH8 0xFFFFFFFFFFFFFFFF DUP2 GT ISZERO PUSH2 0xCDB JUMPI PUSH2 0xCDA PUSH2 0xC4C JUMP JUMPDEST JUMPDEST PUSH1 0x20 DUP4 ADD SWAP2 POP DUP4 PUSH1 0x20 DUP3 MUL DUP4 ADD GT ISZERO PUSH2 0xCF7 JUMPI PUSH2 0xCF6 PUSH2 0xC50 JUMP JUMPDEST JUMPDEST SWAP3 POP SWAP3 SWAP1 POP JUMP JUMPDEST PUSH0 DUP1 PUSH0 DUP1 PUSH0 DUP1 PUSH1 0x60 DUP8 DUP10 SUB SLT ISZERO PUSH2 0xD18 JUMPI PUSH2 0xD17 PUSH2 0xC40 JUMP JUMPDEST JUMPDEST PUSH0 DUP8 ADD CALLDATALOAD PUSH8 0xFFFFFFFFFFFFFFFF DUP2 GT ISZERO PUSH2 0xD35 JUMPI PUSH2 0xD34 PUSH2 0xC44 JUMP JUMPDEST JUMPDEST PUSH2 0xD41 DUP10 DUP3 DUP11 ADD PUSH2 0xC54 JUMP JUMPDEST SWAP7 POP SWAP7 POP POP PUSH1 0x20 DUP8 ADD CALLDATALOAD PUSH8 0xFFFFFFFFFFFFFFFF DUP2 GT ISZERO PUSH2 0xD64 JUMPI PUSH2 0xD63 PUSH2 0xC44 JUMP JUMPDEST JUMPDEST PUSH2 0xD70 DUP10 DUP3 DUP11 ADD PUSH2 0xC54 JUMP JUMPDEST SWAP5 POP SWAP5 POP POP PUSH1 0x40 DUP8 ADD CALLDATALOAD PUSH8 0xFFFFFFFFFFFFFFFF DUP2 GT ISZERO PUSH2 0xD93 JUMPI PUSH2 0xD92 PUSH2 0xC44 JUMP JUMPDEST JUMPDEST PUSH2 0xD9F DUP10 DUP3 DUP11 ADD PUSH2 0xCA9 JUMP JUMPDEST SWAP3 POP SWAP3 POP POP SWAP3 SWAP6 POP SWAP3 SWAP6 POP SWAP3 SWAP6 JUMP JUMPDEST PUSH0 PUSH20 0xFFFFFFFFFFFFFFFFFFFFFFFFFFFFFFFFFFFFFFFF DUP3 AND SWAP1 POP SWAP2 SWAP1 POP JUMP JUMPDEST PUSH0 PUSH2 0xDD7 DUP3 PUSH2 0xDAE JUMP JUMPDEST SWAP1 POP SWAP2 SWAP1 POP JUMP JUMPDEST PUSH2 0xDE7 DUP2 PUSH2 0xDCD JUMP JUMPDEST DUP3 MSTORE POP POP JUMP JUMPDEST PUSH0 PUSH1 0x20 DUP3 ADD SWAP1 POP PUSH2 0xE00 PUSH0 DUP4 ADD DUP5 PUSH2 0xDDE JUMP JUMPDEST SWAP3 SWAP2 POP POP JUMP JUMPDEST PUSH0 DUP2 SWAP1 POP SWAP2 SWAP1 POP JUMP JUMPDEST PUSH2 0xE18 DUP2 PUSH2 0xE06 JUMP JUMPDEST DUP2 EQ PUSH2 0xE22 JUMPI PUSH0 DUP1 REVERT JUMPDEST POP JUMP JUMPDEST PUSH0 DUP2 CALLDATALOAD SWAP1 POP PUSH2 0xE33 DUP2 PUSH2 0xE0F JUMP JUMPDEST SWAP3 SWAP2 POP POP JUMP JUMPDEST PUSH0 PUSH1 0x20 DUP3 DUP5 SUB SLT ISZERO PUSH2 0xE4E JUMPI PUSH2 0xE4D PUSH2 0xC40 JUMP JUMPDEST JUMPDEST PUSH0 PUSH2 0xE5B DUP5 DUP3 DUP6 ADD PUSH2 0xE25 JUMP JUMPDEST SWAP2 POP POP SWAP3 SWAP2 POP POP JUMP JUMPDEST PUSH2 0xE6D DUP2 PUSH2 0xE06 JUMP JUMPDEST DUP3 MSTORE POP POP JUMP JUMPDEST PUSH0 DUP2 MLOAD SWAP1 POP SWAP2 SWAP1 POP JUMP JUMPDEST PUSH0 DUP3 DUP3 MSTORE PUSH1 0x20 DUP3 ADD SWAP1 POP SWAP3 SWAP2 POP POP JUMP JUMPDEST DUP3 DUP2 DUP4 MCOPY PUSH0 DUP4 DUP4 ADD MSTORE POP POP POP JUMP JUMPDEST PUSH0 PUSH1 0x1F NOT PUSH1 0x1F DUP4 ADD AND SWAP1 POP SWAP2 SWAP1 POP JUMP JUMPDEST PUSH0 PUSH2 0xEB5 DUP3 PUSH2 0xE73 JUMP JUMPDEST PUSH2 0xEBF DUP2 DUP6 PUSH2 0xE7D JUMP JUMPDEST SWAP4 POP PUSH2 0xECF DUP2 DUP6 PUSH1 0x20 DUP7 ADD PUSH2 0xE8D JUMP JUMPDEST PUSH2 0xED8 DUP2 PUSH2 0xE9B JUMP JUMPDEST DUP5 ADD SWAP2 POP POP SWAP3 SWAP2 POP POP JUMP JUMPDEST PUSH0 DUP2 MLOAD SWAP1 POP SWAP2 SWAP1 POP JUMP JUMPDEST PUSH0 DUP3 DUP3 MSTORE PUSH1 0x20 DUP3 ADD SWAP1 POP SWAP3 SWAP2 POP POP JUMP JUMPDEST PUSH0 DUP2 SWAP1 POP PUSH1 0x20 DUP3 ADD SWAP1 POP SWAP2 SWAP1 POP JUMP JUMPDEST PUSH0 PUSH2 0xF17 DUP4 DUP4 PUSH2 0xE64 JUMP JUMPDEST PUSH1 0x20 DUP4 ADD SWAP1 POP SWAP3 SWAP2 POP POP JUMP JUMPDEST PUSH0 PUSH1 0x20 DUP3 ADD SWAP1 POP SWAP2 SWAP1 POP JUMP JUMPDEST PUSH0 PUSH2 0xF39 DUP3 PUSH2 0xEE3 JUMP JUMPDEST PUSH2 0xF43 DUP2 DUP6 PUSH2 0xEED JUMP JUMPDEST SWAP4 POP PUSH2 0xF4E DUP4 PUSH2 0xEFD JUMP JUMPDEST DUP1 PUSH0 JUMPDEST DUP4 DUP2 LT ISZERO PUSH2 0xF7E JUMPI DUP2 MLOAD PUSH2 0xF65 DUP9 DUP3 PUSH2 0xF0C JUMP JUMPDEST SWAP8 POP PUSH2 0xF70 DUP4 PUSH2 0xF23 JUMP JUMPDEST SWAP3 POP POP PUSH1 0x1 DUP2 ADD SWAP1 POP PUSH2 0xF51 JUMP JUMPDEST POP DUP6 SWAP4 POP POP POP POP SWAP3 SWAP2 POP POP JUMP JUMPDEST PUSH0 PUSH1 0x80 DUP4 ADD PUSH0 DUP4 ADD MLOAD PUSH2 0xFA0 PUSH0 DUP7 ADD DUP3 PUSH2 0xE64 JUMP JUMPDEST POP PUSH1 0x20 DUP4 ADD MLOAD DUP5 DUP3 SUB PUSH1 0x20 DUP7 ADD MSTORE PUSH2 0xFB8 DUP3 DUP3 PUSH2 0xEAB JUMP JUMPDEST SWAP2 POP POP PUSH1 0x40 DUP4 ADD MLOAD DUP5 DUP3 SUB PUSH1 0x40 DUP7 ADD MSTORE PUSH2 0xFD2 DUP3 DUP3 PUSH2 0xEAB JUMP JUMPDEST SWAP2 POP POP PUSH1 0x60 DUP4 ADD MLOAD DUP5 DUP3 SUB PUSH1 0x60 DUP7 ADD MSTORE PUSH2 0xFEC DUP3 DUP3 PUSH2 0xF2F JUMP JUMPDEST SWAP2 POP POP DUP1 SWAP2 POP POP SWAP3 SWAP2 POP POP JUMP JUMPDEST PUSH0 PUSH1 0x20 DUP3 ADD SWAP1 POP DUP2 DUP2 SUB PUSH0 DUP4 ADD MSTORE PUSH2 0x1011 DUP2 DUP5 PUSH2 0xF8B JUMP JUMPDEST SWAP1 POP SWAP3 SWAP2 POP POP JUMP JUMPDEST PUSH0 DUP2 MLOAD SWAP1 POP SWAP2 SWAP1 POP JUMP JUMPDEST PUSH0 DUP3 DUP3 MSTORE PUSH1 0x20 DUP3 ADD SWAP1 POP SWAP3 SWAP2 POP POP JUMP JUMPDEST PUSH0 DUP2 SWAP1 POP PUSH1 0x20 DUP3 ADD SWAP1 POP SWAP2 SWAP1 POP JUMP JUMPDEST PUSH0 PUSH1 0x80 DUP4 ADD PUSH0 DUP4 ADD MLOAD PUSH2 0x1057 PUSH0 DUP7 ADD DUP3 PUSH2 0xE64 JUMP JUMPDEST POP PUSH1 0x20 DUP4 ADD MLOAD DUP5 DUP3 SUB PUSH1 0x20 DUP7 ADD MSTORE PUSH2 0x106F DUP3 DUP3 PUSH2 0xEAB JUMP JUMPDEST SWAP2 POP POP PUSH1 0x40 DUP4 ADD MLOAD DUP5 DUP3 SUB PUSH1 0x40 DUP7 ADD MSTORE PUSH2 0x1089 DUP3 DUP3 PUSH2 0xEAB JUMP JUMPDEST SWAP2 POP POP PUSH1 0x60 DUP4 ADD MLOAD DUP5 DUP3 SUB PUSH1 0x60 DUP7 ADD MSTORE PUSH2 0x10A3 DUP3 DUP3 PUSH2 0xF2F JUMP JUMPDEST SWAP2 POP POP DUP1 SWAP2 POP POP SWAP3 SWAP2 POP POP JUMP JUMPDEST PUSH0 PUSH2 0x10BB DUP4 DUP4 PUSH2 0x1042 JUMP JUMPDEST SWAP1 POP SWAP3 SWAP2 POP POP JUMP JUMPDEST PUSH0 PUSH1 0x20 DUP3 ADD SWAP1 POP SWAP2 SWAP1 POP JUMP JUMPDEST PUSH0 PUSH2 0x10D9 DUP3 PUSH2 0x1019 JUMP JUMPDEST PUSH2 0x10E3 DUP2 DUP6 PUSH2 0x1023 JUMP JUMPDEST SWAP4 POP DUP4 PUSH1 0x20 DUP3 MUL DUP6 ADD PUSH2 0x10F5 DUP6 PUSH2 0x1033 JUMP JUMPDEST DUP1 PUSH0 JUMPDEST DUP6 DUP2 LT ISZERO PUSH2 0x1130 JUMPI DUP5 DUP5 SUB DUP10 MSTORE DUP2 MLOAD PUSH2 0x1111 DUP6 DUP3 PUSH2 0x10B0 JUMP JUMPDEST SWAP5 POP PUSH2 0x111C DUP4 PUSH2 0x10C3 JUMP JUMPDEST SWAP3 POP PUSH1 0x20 DUP11 ADD SWAP10 POP POP PUSH1 0x1 DUP2 ADD SWAP1 POP PUSH2 0x10F8 JUMP JUMPDEST POP DUP3 SWAP8 POP DUP8 SWAP6 POP POP POP POP POP POP SWAP3 SWAP2 POP POP JUMP JUMPDEST PUSH0 PUSH1 0x20 DUP3 ADD SWAP1 POP DUP2 DUP2 SUB PUSH0 DUP4 ADD MSTORE PUSH2 0x115A DUP2 DUP5 PUSH2 0x10CF JUMP JUMPDEST SWAP1 POP SWAP3 SWAP2 POP POP JUMP JUMPDEST PUSH2 0x116B DUP2 PUSH2 0xDCD JUMP JUMPDEST DUP2 EQ PUSH2 0x1175 JUMPI PUSH0 DUP1 REVERT JUMPDEST POP JUMP JUMPDEST PUSH0 DUP2 CALLDATALOAD SWAP1 POP PUSH2 0x1186 DUP2 PUSH2 0x1162 JUMP JUMPDEST SWAP3 SWAP2 POP POP JUMP JUMPDEST PUSH0 PUSH1 0x20 DUP3 DUP5 SUB SLT ISZERO PUSH2 0x11A1 JUMPI PUSH2 0x11A0 PUSH2 0xC40 JUMP JUMPDEST JUMPDEST PUSH0 PUSH2 0x11AE DUP5 DUP3 DUP6 ADD PUSH2 0x1178 JUMP JUMPDEST SWAP2 POP POP SWAP3 SWAP2 POP POP JUMP JUMPDEST PUSH32 0x4E487B7100000000000000000000000000000000000000000000000000000000 PUSH0 MSTORE PUSH1 0x41 PUSH1 0x4 MSTORE PUSH1 0x24 PUSH0 REVERT JUMPDEST PUSH32 0x4E487B7100000000000000000000000000000000000000000000000000000000 PUSH0 MSTORE PUSH1 0x22 PUSH1 0x4 MSTORE PUSH1 0x24 PUSH0 REVERT JUMPDEST PUSH0 PUSH1 0x2 DUP3 DIV SWAP1 POP PUSH1 0x1 DUP3 AND DUP1 PUSH2 0x1228 JUMPI PUSH1 0x7F DUP3 AND SWAP2 POP JUMPDEST PUSH1 0x20 DUP3 LT DUP2 SUB PUSH2 0x123B JUMPI PUSH2 0x123A PUSH2 0x11E4 JUMP JUMPDEST JUMPDEST POP SWAP2 SWAP1 POP JUMP JUMPDEST PUSH0 DUP2 SWAP1 POP DUP2 PUSH0 MSTORE PUSH1 0x20 PUSH0 KECCAK256 SWAP1 POP SWAP2 SWAP1 POP JUMP JUMPDEST PUSH0 PUSH1 0x20 PUSH1 0x1F DUP4 ADD DIV SWAP1 POP SWAP2 SWAP1 POP JUMP JUMPDEST PUSH0 DUP3 DUP3 SHL SWAP1 POP SWAP3 SWAP2 POP POP JUMP JUMPDEST PUSH0 PUSH1 0x8 DUP4 MUL PUSH2 0x129D PUSH32 0xFFFFFFFFFFFFFFFFFFFFFFFFFFFFFFFFFFFFFFFFFFFFFFFFFFFFFFFFFFFFFFFF DUP3 PUSH2 0x1262 JUMP JUMPDEST PUSH2 0x12A7 DUP7 DUP4 PUSH2 0x1262 JUMP JUMPDEST SWAP6 POP DUP1 NOT DUP5 AND SWAP4 POP DUP1 DUP7 AND DUP5 OR SWAP3 POP POP POP SWAP4 SWAP3 POP POP POP JUMP JUMPDEST PUSH0 DUP2 SWAP1 POP SWAP2 SWAP1 POP JUMP JUMPDEST PUSH0 PUSH2 0x12E2 PUSH2 0x12DD PUSH2 0x12D8 DUP5 PUSH2 0xE06 JUMP JUMPDEST PUSH2 0x12BF JUMP JUMPDEST PUSH2 0xE06 JUMP JUMPDEST SWAP1 POP SWAP2 SWAP1 POP JUMP JUMPDEST PUSH0 DUP2 SWAP1 POP SWAP2 SWAP1 POP JUMP JUMPDEST PUSH2 0x12FB DUP4 PUSH2 0x12C8 JUMP JUMPDEST PUSH2 0x130F PUSH2 0x1307 DUP3 PUSH2 0x12E9 JUMP JUMPDEST DUP5 DUP5 SLOAD PUSH2 0x126E JUMP JUMPDEST DUP3 SSTORE POP POP POP POP JUMP JUMPDEST PUSH0 SWAP1 JUMP JUMPDEST PUSH2 0x1323 PUSH2 0x1317 JUMP JUMPDEST PUSH2 0x132E DUP2 DUP5 DUP5 PUSH2 0x12F2 JUMP JUMPDEST POP POP POP JUMP JUMPDEST JUMPDEST DUP2 DUP2 LT ISZERO PUSH2 0x1351 JUMPI PUSH2 0x1346 PUSH0 DUP3 PUSH2 0x131B JUMP JUMPDEST PUSH1 0x1 DUP2 ADD SWAP1 POP PUSH2 0x1334 JUMP JUMPDEST POP POP JUMP JUMPDEST PUSH1 0x1F DUP3 GT ISZERO PUSH2 0x1396 JUMPI PUSH2 0x1367 DUP2 PUSH2 0x1241 JUMP JUMPDEST PUSH2 0x1370 DUP5 PUSH2 0x1253 JUMP JUMPDEST DUP2 ADD PUSH1 0x20 DUP6 LT ISZERO PUSH2 0x137F JUMPI DUP2 SWAP1 POP JUMPDEST PUSH2 0x1393 PUSH2 0x138B DUP6 PUSH2 0x1253 JUMP JUMPDEST DUP4 ADD DUP3 PUSH2 0x1333 JUMP JUMPDEST POP POP JUMPDEST POP POP POP JUMP JUMPDEST PUSH0 DUP3 DUP3 SHR SWAP1 POP SWAP3 SWAP2 POP POP JUMP JUMPDEST PUSH0 PUSH2 0x13B6 PUSH0 NOT DUP5 PUSH1 0x8 MUL PUSH2 0x139B JUMP JUMPDEST NOT DUP1 DUP4 AND SWAP2 POP POP SWAP3 SWAP2 POP POP JUMP JUMPDEST PUSH0 PUSH2 0x13CE DUP4 DUP4 PUSH2 0x13A7 JUMP JUMPDEST SWAP2 POP DUP3 PUSH1 0x2 MUL DUP3 OR SWAP1 POP SWAP3 SWAP2 POP POP JUMP JUMPDEST PUSH2 0x13E7 DUP3 PUSH2 0xE73 JUMP JUMPDEST PUSH8 0xFFFFFFFFFFFFFFFF DUP2 GT ISZERO PUSH2 0x1400 JUMPI PUSH2 0x13FF PUSH2 0x11B7 JUMP JUMPDEST JUMPDEST PUSH2 0x140A DUP3 SLOAD PUSH2 0x1211 JUMP JUMPDEST PUSH2 0x1415 DUP3 DUP3 DUP6 PUSH2 0x1355 JUMP JUMPDEST PUSH0 PUSH1 0x20 SWAP1 POP PUSH1 0x1F DUP4 GT PUSH1 0x1 DUP2 EQ PUSH2 0x1446 JUMPI PUSH0 DUP5 ISZERO PUSH2 0x1434 JUMPI DUP3 DUP8 ADD MLOAD SWAP1 POP JUMPDEST PUSH2 0x143E DUP6 DUP3 PUSH2 0x13C3 JUMP JUMPDEST DUP7 SSTORE POP PUSH2 0x14A5 JUMP JUMPDEST PUSH1 0x1F NOT DUP5 AND PUSH2 0x1454 DUP7 PUSH2 0x1241 JUMP JUMPDEST PUSH0 JUMPDEST DUP3 DUP2 LT ISZERO PUSH2 0x147B JUMPI DUP5 DUP10 ADD MLOAD DUP3 SSTORE PUSH1 0x1 DUP3 ADD SWAP2 POP PUSH1 0x20 DUP6 ADD SWAP5 POP PUSH1 0x20 DUP2 ADD SWAP1 POP PUSH2 0x1456 JUMP JUMPDEST DUP7 DUP4 LT ISZERO PUSH2 0x1498 JUMPI DUP5 DUP10 ADD MLOAD PUSH2 0x1494 PUSH1 0x1F DUP10 AND DUP3 PUSH2 0x13A7 JUMP JUMPDEST DUP4 SSTORE POP JUMPDEST PUSH1 0x1 PUSH1 0x2 DUP9 MUL ADD DUP9 SSTORE POP POP POP JUMPDEST POP POP POP POP POP POP JUMP JUMPDEST PUSH32 0x4E487B7100000000000000000000000000000000000000000000000000000000 PUSH0 MSTORE PUSH1 0x11 PUSH1 0x4 MSTORE PUSH1 0x24 PUSH0 REVERT JUMPDEST PUSH0 PUSH2 0x14E4 DUP3 PUSH2 0xE06 JUMP JUMPDEST SWAP2 POP PUSH2 0x14EF DUP4 PUSH2 0xE06 JUMP JUMPDEST SWAP3 POP DUP3 DUP3 SUB SWAP1 POP DUP2 DUP2 GT ISZERO PUSH2 0x1507 JUMPI PUSH2 0x1506 PUSH2 0x14AD JUMP JUMPDEST JUMPDEST SWAP3 SWAP2 POP POP JUMP JUMPDEST PUSH0 PUSH2 0x1517 DUP3 PUSH2 0xE06 JUMP JUMPDEST SWAP2 POP PUSH32 0xFFFFFFFFFFFFFFFFFFFFFFFFFFFFFFFFFFFFFFFFFFFFFFFFFFFFFFFFFFFFFFFF DUP3 SUB PUSH2 0x1549 JUMPI PUSH2 0x1548 PUSH2 0x14AD JUMP JUMPDEST JUMPDEST PUSH1 0x1 DUP3 ADD SWAP1 POP SWAP2 SWAP1 POP JUMP JUMPDEST PUSH32 0x4E487B7100000000000000000000000000000000000000000000000000000000 PUSH0 MSTORE PUSH1 0x32 PUSH1 0x4 MSTORE PUSH1 0x24 PUSH0 REVERT JUMPDEST PUSH2 0x158A DUP2 PUSH2 0xE06 JUMP JUMPDEST DUP3 MSTORE POP POP JUMP JUMPDEST PUSH0 PUSH1 0x20 DUP3 ADD SWAP1 POP PUSH2 0x15A3 PUSH0 DUP4 ADD DUP5 PUSH2 0x1581 JUMP JUMPDEST SWAP3 SWAP2 POP POP JUMP JUMPDEST PUSH0 DUP2 SLOAD SWAP1 POP PUSH2 0x15B7 DUP2 PUSH2 0x1211 JUMP JUMPDEST SWAP1 POP SWAP2 SWAP1 POP JUMP JUMPDEST DUP2 DUP2 SUB PUSH2 0x15CC JUMPI POP POP PUSH2 0x16A1 JUMP JUMPDEST PUSH2 0x15D5 DUP3 PUSH2 0x15A9 JUMP JUMPDEST PUSH8 0xFFFFFFFFFFFFFFFF DUP2 GT ISZERO PUSH2 0x15EE JUMPI PUSH2 0x15ED PUSH2 0x11B7 JUMP JUMPDEST JUMPDEST PUSH2 0x15F8 DUP3 SLOAD PUSH2 0x1211 JUMP JUMPDEST PUSH2 0x1603 DUP3 DUP3 DUP6 PUSH2 0x1355 JUMP JUMPDEST PUSH0 PUSH1 0x1F DUP4 GT PUSH1 0x1 DUP2 EQ PUSH2 0x1630 JUMPI PUSH0 DUP5 ISZERO PUSH2 0x161E JUMPI DUP3 DUP8 ADD SLOAD SWAP1 POP JUMPDEST PUSH2 0x1628 DUP6 DUP3 PUSH2 0x13C3 JUMP JUMPDEST DUP7 SSTORE POP PUSH2 0x169A JUMP JUMPDEST PUSH1 0x1F NOT DUP5 AND PUSH2 0x163E DUP8 PUSH2 0x1241 JUMP JUMPDEST SWAP7 POP PUSH2 0x1649 DUP7 PUSH2 0x1241 JUMP JUMPDEST PUSH0 JUMPDEST DUP3 DUP2 LT ISZERO PUSH2 0x1670 JUMPI DUP5 DUP10 ADD SLOAD DUP3 SSTORE PUSH1 0x1 DUP3 ADD SWAP2 POP PUSH1 0x1 DUP6 ADD SWAP5 POP PUSH1 0x20 DUP2 ADD SWAP1 POP PUSH2 0x164B JUMP JUMPDEST DUP7 DUP4 LT ISZERO PUSH2 0x168D JUMPI DUP5 DUP10 ADD SLOAD PUSH2 0x1689 PUSH1 0x1F DUP10 AND DUP3 PUSH2 0x13A7 JUMP JUMPDEST DUP4 SSTORE POP JUMPDEST PUSH1 0x1 PUSH1 0x2 DUP9 MUL ADD DUP9 SSTORE POP POP POP JUMPDEST POP POP POP POP POP POP JUMPDEST JUMP JUMPDEST PUSH32 0x4E487B7100000000000000000000000000000000000000000000000000000000 PUSH0 MSTORE PUSH1 0x31 PUSH1 0x4 MSTORE PUSH1 0x24 PUSH0 REVERT INVALID LOG2 PUSH5 0x6970667358 0x22 SLT KECCAK256 MSTORE DUP10 0xDE DELEGATECALL DUP9 DUP5 0xAF DUP10 0x4B 0xEC 0x4F 0xEF BLOBBASEFEE PC 0xFC PUSH12 0x4CA078A9EDDB7A55FDBFC39 PUSH6 0x55EAF164736F PUSH13 0x63430008190033000000000000 "
				},
				"gasEstimates": {
					"creation": {
						"codeDepositCost": "1178800",
						"executionCost": "infinite",
						"totalCost": "infinite"
					},
					"external": {
						"addContact(string,string,uint256[])": "infinite",
						"deleteContact(uint256)": "infinite",
						"getAllContacts()": "infinite",
						"getContact(uint256)": "infinite",
						"owner()": "2560",
						"renounceOwnership()": "infinite",
						"transferOwnership(address)": "infinite"
					}
				},
				"methodIdentifiers": {
					"addContact(string,string,uint256[])": "3f06f6e8",
					"deleteContact(uint256)": "b9ed6fca",
					"getAllContacts()": "ef1d6ddd",
					"getContact(uint256)": "e6505e1e",
					"owner()": "8da5cb5b",
					"renounceOwnership()": "715018a6",
					"transferOwnership(address)": "f2fde38b"
				}
			},
			"storageLayout": {
				"storage": [
					{
						"astId": 8,
						"contract": "AddressBook.sol:AddressBook",
						"label": "_owner",
						"offset": 0,
						"slot": "0",
						"type": "t_address"
					},
					{
						"astId": 187,
						"contract": "AddressBook.sol:AddressBook",
						"label": "salt",
						"offset": 0,
						"slot": "1",
						"type": "t_string_storage"
					},
					{
						"astId": 201,
						"contract": "AddressBook.sol:AddressBook",
						"label": "contacts",
						"offset": 0,
						"slot": "2",
						"type": "t_array(t_struct(Contact)197_storage)dyn_storage"
					},
					{
						"astId": 205,
						"contract": "AddressBook.sol:AddressBook",
						"label": "idToIndex",
						"offset": 0,
						"slot": "3",
						"type": "t_mapping(t_uint256,t_uint256)"
					},
					{
						"astId": 208,
						"contract": "AddressBook.sol:AddressBook",
						"label": "nextId",
						"offset": 0,
						"slot": "4",
						"type": "t_uint256"
					}
				],
				"types": {
					"t_address": {
						"encoding": "inplace",
						"label": "address",
						"numberOfBytes": "20"
					},
					"t_array(t_struct(Contact)197_storage)dyn_storage": {
						"base": "t_struct(Contact)197_storage",
						"encoding": "dynamic_array",
						"label": "struct AddressBook.Contact[]",
						"numberOfBytes": "32"
					},
					"t_array(t_uint256)dyn_storage": {
						"base": "t_uint256",
						"encoding": "dynamic_array",
						"label": "uint256[]",
						"numberOfBytes": "32"
					},
					"t_mapping(t_uint256,t_uint256)": {
						"encoding": "mapping",
						"key": "t_uint256",
						"label": "mapping(uint256 => uint256)",
						"numberOfBytes": "32",
						"value": "t_uint256"
					},
					"t_string_storage": {
						"encoding": "bytes",
						"label": "string",
						"numberOfBytes": "32"
					},
					"t_struct(Contact)197_storage": {
						"encoding": "inplace",
						"label": "struct AddressBook.Contact",
						"members": [
							{
								"astId": 189,
								"contract": "AddressBook.sol:AddressBook",
								"label": "id",
								"offset": 0,
								"slot": "0",
								"type": "t_uint256"
							},
							{
								"astId": 191,
								"contract": "AddressBook.sol:AddressBook",
								"label": "firstName",
								"offset": 0,
								"slot": "1",
								"type": "t_string_storage"
							},
							{
								"astId": 193,
								"contract": "AddressBook.sol:AddressBook",
								"label": "lastName",
								"offset": 0,
								"slot": "2",
								"type": "t_string_storage"
							},
							{
								"astId": 196,
								"contract": "AddressBook.sol:AddressBook",
								"label": "phoneNumbers",
								"offset": 0,
								"slot": "3",
								"type": "t_array(t_uint256)dyn_storage"
							}
						],
						"numberOfBytes": "128"
					},
					"t_uint256": {
						"encoding": "inplace",
						"label": "uint256",
						"numberOfBytes": "32"
					}
				}
			},
			"userdoc": {
				"kind": "user",
				"methods": {},
				"version": 1
			}
		}
	}
}